{
  "contractName": "NFCool",
  "abi": [
    {
      "inputs": [
        {
          "internalType": "string",
          "name": "_brandName",
          "type": "string"
        }
      ],
      "stateMutability": "nonpayable",
      "type": "constructor"
    },
    {
      "anonymous": false,
      "inputs": [
        {
          "indexed": true,
          "internalType": "address",
          "name": "account",
          "type": "address"
        },
        {
          "indexed": true,
          "internalType": "address",
          "name": "operator",
          "type": "address"
        },
        {
          "indexed": false,
          "internalType": "bool",
          "name": "approved",
          "type": "bool"
        }
      ],
      "name": "ApprovalForAll",
      "type": "event"
    },
    {
      "anonymous": false,
      "inputs": [
        {
          "indexed": false,
          "internalType": "address",
          "name": "account",
          "type": "address"
        }
      ],
      "name": "Paused",
      "type": "event"
    },
    {
      "anonymous": false,
      "inputs": [
        {
          "indexed": true,
          "internalType": "bytes32",
          "name": "role",
          "type": "bytes32"
        },
        {
          "indexed": true,
          "internalType": "bytes32",
          "name": "previousAdminRole",
          "type": "bytes32"
        },
        {
          "indexed": true,
          "internalType": "bytes32",
          "name": "newAdminRole",
          "type": "bytes32"
        }
      ],
      "name": "RoleAdminChanged",
      "type": "event"
    },
    {
      "anonymous": false,
      "inputs": [
        {
          "indexed": true,
          "internalType": "bytes32",
          "name": "role",
          "type": "bytes32"
        },
        {
          "indexed": true,
          "internalType": "address",
          "name": "account",
          "type": "address"
        },
        {
          "indexed": true,
          "internalType": "address",
          "name": "sender",
          "type": "address"
        }
      ],
      "name": "RoleGranted",
      "type": "event"
    },
    {
      "anonymous": false,
      "inputs": [
        {
          "indexed": true,
          "internalType": "bytes32",
          "name": "role",
          "type": "bytes32"
        },
        {
          "indexed": true,
          "internalType": "address",
          "name": "account",
          "type": "address"
        },
        {
          "indexed": true,
          "internalType": "address",
          "name": "sender",
          "type": "address"
        }
      ],
      "name": "RoleRevoked",
      "type": "event"
    },
    {
      "anonymous": false,
      "inputs": [
        {
          "indexed": true,
          "internalType": "address",
          "name": "operator",
          "type": "address"
        },
        {
          "indexed": true,
          "internalType": "address",
          "name": "from",
          "type": "address"
        },
        {
          "indexed": true,
          "internalType": "address",
          "name": "to",
          "type": "address"
        },
        {
          "indexed": false,
          "internalType": "uint256[]",
          "name": "ids",
          "type": "uint256[]"
        },
        {
          "indexed": false,
          "internalType": "uint256[]",
          "name": "values",
          "type": "uint256[]"
        }
      ],
      "name": "TransferBatch",
      "type": "event"
    },
    {
      "anonymous": false,
      "inputs": [
        {
          "indexed": true,
          "internalType": "address",
          "name": "operator",
          "type": "address"
        },
        {
          "indexed": true,
          "internalType": "address",
          "name": "from",
          "type": "address"
        },
        {
          "indexed": true,
          "internalType": "address",
          "name": "to",
          "type": "address"
        },
        {
          "indexed": false,
          "internalType": "uint256",
          "name": "id",
          "type": "uint256"
        },
        {
          "indexed": false,
          "internalType": "uint256",
          "name": "value",
          "type": "uint256"
        }
      ],
      "name": "TransferSingle",
      "type": "event"
    },
    {
      "anonymous": false,
      "inputs": [
        {
          "indexed": false,
          "internalType": "string",
          "name": "value",
          "type": "string"
        },
        {
          "indexed": true,
          "internalType": "uint256",
          "name": "id",
          "type": "uint256"
        }
      ],
      "name": "URI",
      "type": "event"
    },
    {
      "anonymous": false,
      "inputs": [
        {
          "indexed": false,
          "internalType": "address",
          "name": "account",
          "type": "address"
        }
      ],
      "name": "Unpaused",
      "type": "event"
    },
    {
      "inputs": [],
      "name": "DEFAULT_ADMIN_ROLE",
      "outputs": [
        {
          "internalType": "bytes32",
          "name": "",
          "type": "bytes32"
        }
      ],
      "stateMutability": "view",
      "type": "function"
    },
    {
      "inputs": [],
      "name": "MINTER_ROLE",
      "outputs": [
        {
          "internalType": "bytes32",
          "name": "",
          "type": "bytes32"
        }
      ],
      "stateMutability": "view",
      "type": "function"
    },
    {
      "inputs": [],
      "name": "PAUSER_ROLE",
      "outputs": [
        {
          "internalType": "bytes32",
          "name": "",
          "type": "bytes32"
        }
      ],
      "stateMutability": "view",
      "type": "function"
    },
    {
      "inputs": [
        {
          "internalType": "address",
          "name": "account",
          "type": "address"
        },
        {
          "internalType": "uint256",
          "name": "id",
          "type": "uint256"
        }
      ],
      "name": "balanceOf",
      "outputs": [
        {
          "internalType": "uint256",
          "name": "",
          "type": "uint256"
        }
      ],
      "stateMutability": "view",
      "type": "function"
    },
    {
      "inputs": [
        {
          "internalType": "address[]",
          "name": "accounts",
          "type": "address[]"
        },
        {
          "internalType": "uint256[]",
          "name": "ids",
          "type": "uint256[]"
        }
      ],
      "name": "balanceOfBatch",
      "outputs": [
        {
          "internalType": "uint256[]",
          "name": "",
          "type": "uint256[]"
        }
      ],
      "stateMutability": "view",
      "type": "function"
    },
    {
      "inputs": [
        {
          "internalType": "address",
          "name": "account",
          "type": "address"
        },
        {
          "internalType": "uint256",
          "name": "id",
          "type": "uint256"
        },
        {
          "internalType": "uint256",
          "name": "value",
          "type": "uint256"
        }
      ],
      "name": "burn",
      "outputs": [],
      "stateMutability": "nonpayable",
      "type": "function"
    },
    {
      "inputs": [
        {
          "internalType": "address",
          "name": "account",
          "type": "address"
        },
        {
          "internalType": "uint256[]",
          "name": "ids",
          "type": "uint256[]"
        },
        {
          "internalType": "uint256[]",
          "name": "values",
          "type": "uint256[]"
        }
      ],
      "name": "burnBatch",
      "outputs": [],
      "stateMutability": "nonpayable",
      "type": "function"
    },
    {
      "inputs": [
        {
          "internalType": "bytes32",
          "name": "role",
          "type": "bytes32"
        }
      ],
      "name": "getRoleAdmin",
      "outputs": [
        {
          "internalType": "bytes32",
          "name": "",
          "type": "bytes32"
        }
      ],
      "stateMutability": "view",
      "type": "function"
    },
    {
      "inputs": [
        {
          "internalType": "bytes32",
          "name": "role",
          "type": "bytes32"
        },
        {
          "internalType": "uint256",
          "name": "index",
          "type": "uint256"
        }
      ],
      "name": "getRoleMember",
      "outputs": [
        {
          "internalType": "address",
          "name": "",
          "type": "address"
        }
      ],
      "stateMutability": "view",
      "type": "function"
    },
    {
      "inputs": [
        {
          "internalType": "bytes32",
          "name": "role",
          "type": "bytes32"
        }
      ],
      "name": "getRoleMemberCount",
      "outputs": [
        {
          "internalType": "uint256",
          "name": "",
          "type": "uint256"
        }
      ],
      "stateMutability": "view",
      "type": "function"
    },
    {
      "inputs": [
        {
          "internalType": "bytes32",
          "name": "role",
          "type": "bytes32"
        },
        {
          "internalType": "address",
          "name": "account",
          "type": "address"
        }
      ],
      "name": "grantRole",
      "outputs": [],
      "stateMutability": "nonpayable",
      "type": "function"
    },
    {
      "inputs": [
        {
          "internalType": "bytes32",
          "name": "role",
          "type": "bytes32"
        },
        {
          "internalType": "address",
          "name": "account",
          "type": "address"
        }
      ],
      "name": "hasRole",
      "outputs": [
        {
          "internalType": "bool",
          "name": "",
          "type": "bool"
        }
      ],
      "stateMutability": "view",
      "type": "function"
    },
    {
      "inputs": [
        {
          "internalType": "address",
          "name": "account",
          "type": "address"
        },
        {
          "internalType": "address",
          "name": "operator",
          "type": "address"
        }
      ],
      "name": "isApprovedForAll",
      "outputs": [
        {
          "internalType": "bool",
          "name": "",
          "type": "bool"
        }
      ],
      "stateMutability": "view",
      "type": "function"
    },
    {
      "inputs": [
        {
          "internalType": "address",
          "name": "to",
          "type": "address"
        },
        {
          "internalType": "uint256",
          "name": "id",
          "type": "uint256"
        },
        {
          "internalType": "uint256",
          "name": "amount",
          "type": "uint256"
        },
        {
          "internalType": "bytes",
          "name": "data",
          "type": "bytes"
        }
      ],
      "name": "mint",
      "outputs": [],
      "stateMutability": "nonpayable",
      "type": "function"
    },
    {
      "inputs": [
        {
          "internalType": "address",
          "name": "to",
          "type": "address"
        },
        {
          "internalType": "uint256[]",
          "name": "ids",
          "type": "uint256[]"
        },
        {
          "internalType": "uint256[]",
          "name": "amounts",
          "type": "uint256[]"
        },
        {
          "internalType": "bytes",
          "name": "data",
          "type": "bytes"
        }
      ],
      "name": "mintBatch",
      "outputs": [],
      "stateMutability": "nonpayable",
      "type": "function"
    },
    {
      "inputs": [
        {
          "internalType": "address",
          "name": "",
          "type": "address"
        },
        {
          "internalType": "address",
          "name": "",
          "type": "address"
        },
        {
          "internalType": "uint256[]",
          "name": "",
          "type": "uint256[]"
        },
        {
          "internalType": "uint256[]",
          "name": "",
          "type": "uint256[]"
        },
        {
          "internalType": "bytes",
          "name": "",
          "type": "bytes"
        }
      ],
      "name": "onERC1155BatchReceived",
      "outputs": [
        {
          "internalType": "bytes4",
          "name": "",
          "type": "bytes4"
        }
      ],
      "stateMutability": "nonpayable",
      "type": "function"
    },
    {
      "inputs": [
        {
          "internalType": "address",
          "name": "",
          "type": "address"
        },
        {
          "internalType": "address",
          "name": "",
          "type": "address"
        },
        {
          "internalType": "uint256",
          "name": "",
          "type": "uint256"
        },
        {
          "internalType": "uint256",
          "name": "",
          "type": "uint256"
        },
        {
          "internalType": "bytes",
          "name": "",
          "type": "bytes"
        }
      ],
      "name": "onERC1155Received",
      "outputs": [
        {
          "internalType": "bytes4",
          "name": "",
          "type": "bytes4"
        }
      ],
      "stateMutability": "nonpayable",
      "type": "function"
    },
    {
      "inputs": [],
      "name": "pause",
      "outputs": [],
      "stateMutability": "nonpayable",
      "type": "function"
    },
    {
      "inputs": [],
      "name": "paused",
      "outputs": [
        {
          "internalType": "bool",
          "name": "",
          "type": "bool"
        }
      ],
      "stateMutability": "view",
      "type": "function"
    },
    {
      "inputs": [
        {
          "internalType": "bytes32",
          "name": "role",
          "type": "bytes32"
        },
        {
          "internalType": "address",
          "name": "account",
          "type": "address"
        }
      ],
      "name": "renounceRole",
      "outputs": [],
      "stateMutability": "nonpayable",
      "type": "function"
    },
    {
      "inputs": [
        {
          "internalType": "bytes32",
          "name": "role",
          "type": "bytes32"
        },
        {
          "internalType": "address",
          "name": "account",
          "type": "address"
        }
      ],
      "name": "revokeRole",
      "outputs": [],
      "stateMutability": "nonpayable",
      "type": "function"
    },
    {
      "inputs": [
        {
          "internalType": "address",
          "name": "from",
          "type": "address"
        },
        {
          "internalType": "address",
          "name": "to",
          "type": "address"
        },
        {
          "internalType": "uint256[]",
          "name": "ids",
          "type": "uint256[]"
        },
        {
          "internalType": "uint256[]",
          "name": "amounts",
          "type": "uint256[]"
        },
        {
          "internalType": "bytes",
          "name": "data",
          "type": "bytes"
        }
      ],
      "name": "safeBatchTransferFrom",
      "outputs": [],
      "stateMutability": "nonpayable",
      "type": "function"
    },
    {
      "inputs": [
        {
          "internalType": "address",
          "name": "from",
          "type": "address"
        },
        {
          "internalType": "address",
          "name": "to",
          "type": "address"
        },
        {
          "internalType": "uint256",
          "name": "id",
          "type": "uint256"
        },
        {
          "internalType": "uint256",
          "name": "amount",
          "type": "uint256"
        },
        {
          "internalType": "bytes",
          "name": "data",
          "type": "bytes"
        }
      ],
      "name": "safeTransferFrom",
      "outputs": [],
      "stateMutability": "nonpayable",
      "type": "function"
    },
    {
      "inputs": [
        {
          "internalType": "address",
          "name": "operator",
          "type": "address"
        },
        {
          "internalType": "bool",
          "name": "approved",
          "type": "bool"
        }
      ],
      "name": "setApprovalForAll",
      "outputs": [],
      "stateMutability": "nonpayable",
      "type": "function"
    },
    {
      "inputs": [],
      "name": "unpause",
      "outputs": [],
      "stateMutability": "nonpayable",
      "type": "function"
    },
    {
      "inputs": [
        {
          "internalType": "uint256",
          "name": "",
          "type": "uint256"
        }
      ],
      "name": "uri",
      "outputs": [
        {
          "internalType": "string",
          "name": "",
          "type": "string"
        }
      ],
      "stateMutability": "view",
      "type": "function"
    },
    {
      "inputs": [],
      "name": "getAllTokens",
      "outputs": [
        {
          "components": [
            {
              "internalType": "string",
              "name": "uri",
              "type": "string"
            },
            {
              "internalType": "string",
              "name": "name",
              "type": "string"
            }
          ],
          "internalType": "struct NFCool.TokenData[]",
          "name": "",
          "type": "tuple[]"
        }
      ],
      "stateMutability": "view",
      "type": "function"
    },
    {
      "inputs": [
        {
          "internalType": "uint256",
          "name": "tokenId",
          "type": "uint256"
        }
      ],
      "name": "tokenData",
      "outputs": [
        {
          "components": [
            {
              "internalType": "string",
              "name": "uri",
              "type": "string"
            },
            {
              "internalType": "string",
              "name": "name",
              "type": "string"
            }
          ],
          "internalType": "struct NFCool.TokenData",
          "name": "",
          "type": "tuple"
        }
      ],
      "stateMutability": "view",
      "type": "function"
    },
    {
      "inputs": [
        {
          "internalType": "uint256",
          "name": "tokenId",
          "type": "uint256"
        },
        {
          "internalType": "uint256",
          "name": "tokenUnitId",
          "type": "uint256"
        }
      ],
      "name": "tokenUnitData",
      "outputs": [
        {
          "components": [
            {
              "internalType": "address",
              "name": "owner",
              "type": "address"
            },
            {
              "internalType": "string",
              "name": "nfcId",
              "type": "string"
            },
            {
              "internalType": "string",
              "name": "status",
              "type": "string"
            }
          ],
          "internalType": "struct NFCool.TokenUnitData",
          "name": "",
          "type": "tuple"
        }
      ],
      "stateMutability": "view",
      "type": "function"
    },
    {
      "inputs": [
        {
          "internalType": "string",
          "name": "tokenUri",
          "type": "string"
        },
        {
          "internalType": "string",
          "name": "tokenName",
          "type": "string"
        },
        {
          "internalType": "bytes",
          "name": "data",
          "type": "bytes"
        }
      ],
      "name": "mintToken",
      "outputs": [
        {
          "internalType": "uint256",
          "name": "",
          "type": "uint256"
        }
      ],
      "stateMutability": "nonpayable",
      "type": "function"
    },
    {
      "inputs": [
        {
          "internalType": "uint256",
          "name": "tokenId",
          "type": "uint256"
        },
        {
          "internalType": "string",
          "name": "nfcId",
          "type": "string"
        },
        {
          "internalType": "bytes",
          "name": "data",
          "type": "bytes"
        }
      ],
      "name": "mintTokenUnit",
      "outputs": [
        {
          "internalType": "uint256",
          "name": "",
          "type": "uint256"
        }
      ],
      "stateMutability": "nonpayable",
      "type": "function"
    },
    {
      "inputs": [
        {
          "internalType": "bytes4",
          "name": "interfaceId",
          "type": "bytes4"
        }
      ],
      "name": "supportsInterface",
      "outputs": [
        {
          "internalType": "bool",
          "name": "",
          "type": "bool"
        }
      ],
      "stateMutability": "view",
      "type": "function"
    }
  ],
  "bytecode": "0x60806040523480156200001157600080fd5b506040516200656138038062006561833981810160405281019062000037919062000510565b604051806020016040528060008152508062000059816200013c60201b60201c565b506000600560006101000a81548160ff021916908315150217905550620000996000801b6200008d6200015860201b60201c565b6200016060201b60201c565b620000da7f9f2df0fed2c77648de5860a4cc508cd0818c85b8b8a1ab4ceeef8d981c8956a6620000ce6200015860201b60201c565b6200016060201b60201c565b6200011b7f65d7a28e3265b37a6474929f336521b332c1681b933f6cb9f3376673440d862a6200010f6200015860201b60201c565b6200016060201b60201c565b50806006908051906020019062000134929190620003ee565b505062000686565b806004908051906020019062000154929190620003ee565b5050565b600033905090565b620001778282620001a860201b62001bfe1760201c565b620001a38160016000858152602001908152602001600020620001be60201b62001c0c1790919060201c565b505050565b620001ba8282620001f660201b60201c565b5050565b6000620001ee836000018373ffffffffffffffffffffffffffffffffffffffff1660001b620002e760201b60201c565b905092915050565b6200020882826200036160201b60201c565b620002e357600160008084815260200190815260200160002060000160008373ffffffffffffffffffffffffffffffffffffffff1673ffffffffffffffffffffffffffffffffffffffff16815260200190815260200160002060006101000a81548160ff021916908315150217905550620002886200015860201b60201c565b73ffffffffffffffffffffffffffffffffffffffff168173ffffffffffffffffffffffffffffffffffffffff16837f2f8788117e7eff1d82e926ec794901d17c78024a50270940304540a733656f0d60405160405180910390a45b5050565b6000620002fb8383620003cb60201b60201c565b620003565782600001829080600181540180825580915050600190039060005260206000200160009091909190915055826000018054905083600101600084815260200190815260200160002081905550600190506200035b565b600090505b92915050565b600080600084815260200190815260200160002060000160008373ffffffffffffffffffffffffffffffffffffffff1673ffffffffffffffffffffffffffffffffffffffff16815260200190815260200160002060009054906101000a900460ff16905092915050565b600080836001016000848152602001908152602001600020541415905092915050565b828054620003fc90620005f2565b90600052602060002090601f0160209004810192826200042057600085556200046c565b82601f106200043b57805160ff19168380011785556200046c565b828001600101855582156200046c579182015b828111156200046b5782518255916020019190600101906200044e565b5b5090506200047b91906200047f565b5090565b5b808211156200049a57600081600090555060010162000480565b5090565b6000620004b5620004af8462000589565b62000555565b905082815260208101848484011115620004ce57600080fd5b620004db848285620005bc565b509392505050565b600082601f830112620004f557600080fd5b8151620005078482602086016200049e565b91505092915050565b6000602082840312156200052357600080fd5b600082015167ffffffffffffffff8111156200053e57600080fd5b6200054c84828501620004e3565b91505092915050565b6000604051905081810181811067ffffffffffffffff821117156200057f576200057e62000657565b5b8060405250919050565b600067ffffffffffffffff821115620005a757620005a662000657565b5b601f19601f8301169050602081019050919050565b60005b83811015620005dc578082015181840152602081019050620005bf565b83811115620005ec576000848401525b50505050565b600060028204905060018216806200060b57607f821691505b6020821081141562000622576200062162000628565b5b50919050565b7f4e487b7100000000000000000000000000000000000000000000000000000000600052602260045260246000fd5b7f4e487b7100000000000000000000000000000000000000000000000000000000600052604160045260246000fd5b615ecb80620006966000396000f3fe608060405234801561001057600080fd5b50600436106101ef5760003560e01c80638456cb591161010f578063ca15c873116100a2578063e985e9c511610071578063e985e9c5146105ee578063f23a6e611461061e578063f242432a1461064e578063f5298aca1461066a576101ef565b8063ca15c87314610566578063d539139314610596578063d547741f146105b4578063e63ab1e9146105d0576101ef565b8063a22cb465116100de578063a22cb465146104ba578063b4b5b48f146104d6578063bc197c8114610506578063c3d0427914610536576101ef565b80638456cb59146104325780639010d07c1461043c57806391d148541461046c578063a217fddf1461049c576101ef565b806336568abe116101875780635c975abb116101565780635c975abb146103ac5780636648b1cb146103ca5780636b20c454146103fa578063731133e914610416576101ef565b806336568abe146103265780633e80bb74146103425780633f4ba83a146103725780634e1273f41461037c576101ef565b8063248a9ca3116101c3578063248a9ca3146102a05780632a5c792a146102d05780632eb2c2d6146102ee5780632f2ff15d1461030a576101ef565b8062fdd58e146101f457806301ffc9a7146102245780630e89341c146102545780631f7fdffa14610284575b600080fd5b61020e600480360381019061020991906143b7565b610686565b60405161021b919061587e565b60405180910390f35b61023e600480360381019061023991906145ca565b610750565b60405161024b9190615507565b60405180910390f35b61026e600480360381019061026991906146bd565b610762565b60405161027b9190615558565b60405180910390f35b61029e600480360381019061029991906142d0565b6107f6565b005b6102ba60048036038101906102b59190614529565b610878565b6040516102c79190615522565b60405180910390f35b6102d8610897565b6040516102e5919061548c565b60405180910390f35b61030860048036038101906103039190614103565b610ae7565b005b610324600480360381019061031f9190614552565b610b88565b005b610340600480360381019061033b9190614552565b610bbc565b005b61035c6004803603810190610357919061476a565b610bf0565b604051610369919061585c565b60405180910390f35b61037a610da9565b005b610396600480360381019061039191906144bd565b610e23565b6040516103a391906154ae565b60405180910390f35b6103b4610fd4565b6040516103c19190615507565b60405180910390f35b6103e460048036038101906103df919061461c565b610feb565b6040516103f1919061587e565b60405180910390f35b610414600480360381019061040f9190614251565b6111d1565b005b610430600480360381019061042b9190614442565b61126e565b005b61043a6112f0565b005b6104566004803603810190610451919061458e565b61136a565b60405161046391906153af565b60405180910390f35b61048660048036038101906104819190614552565b611399565b6040516104939190615507565b60405180910390f35b6104a4611403565b6040516104b19190615522565b60405180910390f35b6104d460048036038101906104cf919061437b565b61140a565b005b6104f060048036038101906104eb91906146bd565b61158b565b6040516104fd919061583a565b60405180910390f35b610520600480360381019061051b9190614103565b6116dc565b60405161052d919061553d565b60405180910390f35b610550600480360381019061054b91906146e6565b6116f1565b60405161055d919061587e565b60405180910390f35b610580600480360381019061057b9190614529565b611977565b60405161058d919061587e565b60405180910390f35b61059e61199b565b6040516105ab9190615522565b60405180910390f35b6105ce60048036038101906105c99190614552565b6119bf565b005b6105d86119f3565b6040516105e59190615522565b60405180910390f35b610608600480360381019061060391906140c7565b611a17565b6040516106159190615507565b60405180910390f35b610638600480360381019061063391906141c2565b611aab565b604051610645919061553d565b60405180910390f35b610668600480360381019061066391906141c2565b611ac0565b005b610684600480360381019061067f91906143f3565b611b61565b005b60008073ffffffffffffffffffffffffffffffffffffffff168373ffffffffffffffffffffffffffffffffffffffff1614156106f7576040517f08c379a00000000000000000000000000000000000000000000000000000000081526004016106ee906155fa565b60405180910390fd5b6002600083815260200190815260200160002060008473ffffffffffffffffffffffffffffffffffffffff1673ffffffffffffffffffffffffffffffffffffffff16815260200190815260200160002054905092915050565b600061075b82611c3c565b9050919050565b60606004805461077190615c1c565b80601f016020809104026020016040519081016040528092919081815260200182805461079d90615c1c565b80156107ea5780601f106107bf576101008083540402835291602001916107ea565b820191906000526020600020905b8154815290600101906020018083116107cd57829003601f168201915b50505050509050919050565b6108277f9f2df0fed2c77648de5860a4cc508cd0818c85b8b8a1ab4ceeef8d981c8956a6610822611cb6565b611399565b610866576040517f08c379a000000000000000000000000000000000000000000000000000000000815260040161085d9061571a565b60405180910390fd5b61087284848484611cbe565b50505050565b6000806000838152602001908152602001600020600101549050919050565b60606000600760009054906101000a900460ff1660ff1667ffffffffffffffff8111156108ed577f4e487b7100000000000000000000000000000000000000000000000000000000600052604160045260246000fd5b60405190808252806020026020018201604052801561092657816020015b610913613d77565b81526020019060019003908161090b5790505b50905060005b600760009054906101000a900460ff1660ff16811015610adf576009600082815260200190815260200160002060405180604001604052908160008201805461097490615c1c565b80601f01602080910402602001604051908101604052809291908181526020018280546109a090615c1c565b80156109ed5780601f106109c2576101008083540402835291602001916109ed565b820191906000526020600020905b8154815290600101906020018083116109d057829003601f168201915b50505050508152602001600182018054610a0690615c1c565b80601f0160208091040260200160405190810160405280929190818152602001828054610a3290615c1c565b8015610a7f5780601f10610a5457610100808354040283529160200191610a7f565b820191906000526020600020905b815481529060010190602001808311610a6257829003601f168201915b505050505081525050828281518110610ac1577f4e487b7100000000000000000000000000000000000000000000000000000000600052603260045260246000fd5b60200260200101819052508080610ad790615c4e565b91505061092c565b508091505090565b610aef611cb6565b73ffffffffffffffffffffffffffffffffffffffff168573ffffffffffffffffffffffffffffffffffffffff161480610b355750610b3485610b2f611cb6565b611a17565b5b610b74576040517f08c379a0000000000000000000000000000000000000000000000000000000008152600401610b6b906156da565b60405180910390fd5b610b818585858585611f29565b5050505050565b610b92828261228c565b610bb78160016000858152602001908152602001600020611c0c90919063ffffffff16565b505050565b610bc682826122b5565b610beb816001600085815260200190815260200160002061233890919063ffffffff16565b505050565b610bf8613d91565b600a600084815260200190815260200160002060008381526020019081526020016000206040518060600160405290816000820160009054906101000a900473ffffffffffffffffffffffffffffffffffffffff1673ffffffffffffffffffffffffffffffffffffffff1673ffffffffffffffffffffffffffffffffffffffff168152602001600182018054610c8d90615c1c565b80601f0160208091040260200160405190810160405280929190818152602001828054610cb990615c1c565b8015610d065780601f10610cdb57610100808354040283529160200191610d06565b820191906000526020600020905b815481529060010190602001808311610ce957829003601f168201915b50505050508152602001600282018054610d1f90615c1c565b80601f0160208091040260200160405190810160405280929190818152602001828054610d4b90615c1c565b8015610d985780601f10610d6d57610100808354040283529160200191610d98565b820191906000526020600020905b815481529060010190602001808311610d7b57829003601f168201915b505050505081525050905092915050565b610dda7f65d7a28e3265b37a6474929f336521b332c1681b933f6cb9f3376673440d862a610dd5611cb6565b611399565b610e19576040517f08c379a0000000000000000000000000000000000000000000000000000000008152600401610e109061575a565b60405180910390fd5b610e21612368565b565b60608151835114610e69576040517f08c379a0000000000000000000000000000000000000000000000000000000008152600401610e60906157ba565b60405180910390fd5b6000835167ffffffffffffffff811115610eac577f4e487b7100000000000000000000000000000000000000000000000000000000600052604160045260246000fd5b604051908082528060200260200182016040528015610eda5781602001602082028036833780820191505090505b50905060005b8451811015610fc957610f73858281518110610f25577f4e487b7100000000000000000000000000000000000000000000000000000000600052603260045260246000fd5b6020026020010151858381518110610f66577f4e487b7100000000000000000000000000000000000000000000000000000000600052603260045260246000fd5b6020026020010151610686565b828281518110610fac577f4e487b7100000000000000000000000000000000000000000000000000000000600052603260045260246000fd5b60200260200101818152505080610fc290615c4e565b9050610ee0565b508091505092915050565b6000600560009054906101000a900460ff16905090565b600061101e7f9f2df0fed2c77648de5860a4cc508cd0818c85b8b8a1ab4ceeef8d981c8956a6611019611cb6565b611399565b61105d576040517f08c379a00000000000000000000000000000000000000000000000000000000081526004016110549061571a565b60405180910390fd5b61107c30600760009054906101000a900460ff1660ff1660008561240a565b604051806040016040528087878080601f016020809104026020016040519081016040528093929190818152602001838380828437600081840152601f19601f82011690508083019250505050505050815260200185858080601f016020809104026020016040519081016040528093929190818152602001838380828437600081840152601f19601f8201169050808301925050505050505081525060096000600760009054906101000a900460ff1660ff168152602001908152602001600020600082015181600001908051906020019061115a929190613dc8565b506020820151816001019080519060200190611177929190613dc8565b509050506007600081819054906101000a900460ff168092919061119a90615c97565b91906101000a81548160ff021916908360ff16021790555050600760009054906101000a900460ff1660ff16905095945050505050565b6111d9611cb6565b73ffffffffffffffffffffffffffffffffffffffff168373ffffffffffffffffffffffffffffffffffffffff16148061121f575061121e83611219611cb6565b611a17565b5b61125e576040517f08c379a00000000000000000000000000000000000000000000000000000000081526004016112559061565a565b60405180910390fd5b6112698383836125a1565b505050565b61129f7f9f2df0fed2c77648de5860a4cc508cd0818c85b8b8a1ab4ceeef8d981c8956a661129a611cb6565b611399565b6112de576040517f08c379a00000000000000000000000000000000000000000000000000000000081526004016112d59061571a565b60405180910390fd5b6112ea8484848461240a565b50505050565b6113217f65d7a28e3265b37a6474929f336521b332c1681b933f6cb9f3376673440d862a61131c611cb6565b611399565b611360576040517f08c379a00000000000000000000000000000000000000000000000000000000081526004016113579061577a565b60405180910390fd5b6113686128a0565b565b6000611391826001600086815260200190815260200160002061294390919063ffffffff16565b905092915050565b600080600084815260200190815260200160002060000160008373ffffffffffffffffffffffffffffffffffffffff1673ffffffffffffffffffffffffffffffffffffffff16815260200190815260200160002060009054906101000a900460ff16905092915050565b6000801b81565b8173ffffffffffffffffffffffffffffffffffffffff16611429611cb6565b73ffffffffffffffffffffffffffffffffffffffff161415611480576040517f08c379a00000000000000000000000000000000000000000000000000000000081526004016114779061579a565b60405180910390fd5b806003600061148d611cb6565b73ffffffffffffffffffffffffffffffffffffffff1673ffffffffffffffffffffffffffffffffffffffff16815260200190815260200160002060008473ffffffffffffffffffffffffffffffffffffffff1673ffffffffffffffffffffffffffffffffffffffff16815260200190815260200160002060006101000a81548160ff0219169083151502179055508173ffffffffffffffffffffffffffffffffffffffff1661153a611cb6565b73ffffffffffffffffffffffffffffffffffffffff167f17307eab39ab6107e8899845ad3d59bd9653f200f220920489ca2b5937696c318360405161157f9190615507565b60405180910390a35050565b611593613d77565b600960008381526020019081526020016000206040518060400160405290816000820180546115c190615c1c565b80601f01602080910402602001604051908101604052809291908181526020018280546115ed90615c1c565b801561163a5780601f1061160f5761010080835404028352916020019161163a565b820191906000526020600020905b81548152906001019060200180831161161d57829003601f168201915b5050505050815260200160018201805461165390615c1c565b80601f016020809104026020016040519081016040528092919081815260200182805461167f90615c1c565b80156116cc5780601f106116a1576101008083540402835291602001916116cc565b820191906000526020600020905b8154815290600101906020018083116116af57829003601f168201915b5050505050815250509050919050565b600063bc197c8160e01b905095945050505050565b60006117247f9f2df0fed2c77648de5860a4cc508cd0818c85b8b8a1ab4ceeef8d981c8956a661171f611cb6565b611399565b611763576040517f08c379a000000000000000000000000000000000000000000000000000000000815260040161175a9061571a565b60405180910390fd5b61176c8561295d565b6117ab576040517f08c379a00000000000000000000000000000000000000000000000000000000081526004016117a29061567a565b60405180910390fd5b6117cb30600860008881526020019081526020016000205460018561240a565b60405180606001604052803073ffffffffffffffffffffffffffffffffffffffff16815260200185858080601f016020809104026020016040519081016040528093929190818152602001838380828437600081840152601f19601f8201169050808301925050505050505081526020016040518060400160405280600681526020017f6d696e7465640000000000000000000000000000000000000000000000000000815250815250600a600087815260200190815260200160002060006008600089815260200190815260200160002054815260200190815260200160002060008201518160000160006101000a81548173ffffffffffffffffffffffffffffffffffffffff021916908373ffffffffffffffffffffffffffffffffffffffff160217905550602082015181600101908051906020019061190f929190613dc8565b50604082015181600201908051906020019061192c929190613dc8565b5090505060086000868152602001908152602001600020600081548092919061195490615c4e565b919050555060086000868152602001908152602001600020549050949350505050565b60006119946001600084815260200190815260200160002061297b565b9050919050565b7f9f2df0fed2c77648de5860a4cc508cd0818c85b8b8a1ab4ceeef8d981c8956a681565b6119c98282612990565b6119ee816001600085815260200190815260200160002061233890919063ffffffff16565b505050565b7f65d7a28e3265b37a6474929f336521b332c1681b933f6cb9f3376673440d862a81565b6000600360008473ffffffffffffffffffffffffffffffffffffffff1673ffffffffffffffffffffffffffffffffffffffff16815260200190815260200160002060008373ffffffffffffffffffffffffffffffffffffffff1673ffffffffffffffffffffffffffffffffffffffff16815260200190815260200160002060009054906101000a900460ff16905092915050565b600063f23a6e6160e01b905095945050505050565b611ac8611cb6565b73ffffffffffffffffffffffffffffffffffffffff168573ffffffffffffffffffffffffffffffffffffffff161480611b0e5750611b0d85611b08611cb6565b611a17565b5b611b4d576040517f08c379a0000000000000000000000000000000000000000000000000000000008152600401611b449061565a565b60405180910390fd5b611b5a85858585856129b9565b5050505050565b611b69611cb6565b73ffffffffffffffffffffffffffffffffffffffff168373ffffffffffffffffffffffffffffffffffffffff161480611baf5750611bae83611ba9611cb6565b611a17565b5b611bee576040517f08c379a0000000000000000000000000000000000000000000000000000000008152600401611be59061565a565b60405180910390fd5b611bf9838383612c3e565b505050565b611c088282612e5d565b5050565b6000611c34836000018373ffffffffffffffffffffffffffffffffffffffff1660001b612f3d565b905092915050565b60007f4e2312e0000000000000000000000000000000000000000000000000000000007bffffffffffffffffffffffffffffffffffffffffffffffffffffffff1916827bffffffffffffffffffffffffffffffffffffffffffffffffffffffff19161480611caf5750611cae82612fad565b5b9050919050565b600033905090565b600073ffffffffffffffffffffffffffffffffffffffff168473ffffffffffffffffffffffffffffffffffffffff161415611d2e576040517f08c379a0000000000000000000000000000000000000000000000000000000008152600401611d25906157fa565b60405180910390fd5b8151835114611d72576040517f08c379a0000000000000000000000000000000000000000000000000000000008152600401611d69906157da565b60405180910390fd5b6000611d7c611cb6565b9050611d8d81600087878787612fbf565b60005b8451811015611e9357838181518110611dd2577f4e487b7100000000000000000000000000000000000000000000000000000000600052603260045260246000fd5b602002602001015160026000878481518110611e17577f4e487b7100000000000000000000000000000000000000000000000000000000600052603260045260246000fd5b6020026020010151815260200190815260200160002060008873ffffffffffffffffffffffffffffffffffffffff1673ffffffffffffffffffffffffffffffffffffffff1681526020019081526020016000206000828254611e799190615a41565b925050819055508080611e8b90615c4e565b915050611d90565b508473ffffffffffffffffffffffffffffffffffffffff16600073ffffffffffffffffffffffffffffffffffffffff168273ffffffffffffffffffffffffffffffffffffffff167f4a39dc06d4c0dbc64b70af90fd698a233a518aa5d07e595d983b8c0526c8f7fb8787604051611f0b9291906154d0565b60405180910390a4611f2281600087878787612fd5565b5050505050565b8151835114611f6d576040517f08c379a0000000000000000000000000000000000000000000000000000000008152600401611f64906157da565b60405180910390fd5b600073ffffffffffffffffffffffffffffffffffffffff168473ffffffffffffffffffffffffffffffffffffffff161415611fdd576040517f08c379a0000000000000000000000000000000000000000000000000000000008152600401611fd4906156ba565b60405180910390fd5b6000611fe7611cb6565b9050611ff7818787878787612fbf565b60005b84518110156121f757600085828151811061203e577f4e487b7100000000000000000000000000000000000000000000000000000000600052603260045260246000fd5b602002602001015190506000858381518110612083577f4e487b7100000000000000000000000000000000000000000000000000000000600052603260045260246000fd5b6020026020010151905060006002600084815260200190815260200160002060008b73ffffffffffffffffffffffffffffffffffffffff1673ffffffffffffffffffffffffffffffffffffffff16815260200190815260200160002054905081811015612125576040517f08c379a000000000000000000000000000000000000000000000000000000000815260040161211c9061573a565b60405180910390fd5b8181036002600085815260200190815260200160002060008c73ffffffffffffffffffffffffffffffffffffffff1673ffffffffffffffffffffffffffffffffffffffff16815260200190815260200160002081905550816002600085815260200190815260200160002060008b73ffffffffffffffffffffffffffffffffffffffff1673ffffffffffffffffffffffffffffffffffffffff16815260200190815260200160002060008282546121dc9190615a41565b92505081905550505050806121f090615c4e565b9050611ffa565b508473ffffffffffffffffffffffffffffffffffffffff168673ffffffffffffffffffffffffffffffffffffffff168273ffffffffffffffffffffffffffffffffffffffff167f4a39dc06d4c0dbc64b70af90fd698a233a518aa5d07e595d983b8c0526c8f7fb878760405161226e9291906154d0565b60405180910390a4612284818787878787612fd5565b505050505050565b61229582610878565b6122a6816122a1611cb6565b6131a5565b6122b08383612e5d565b505050565b6122bd611cb6565b73ffffffffffffffffffffffffffffffffffffffff168173ffffffffffffffffffffffffffffffffffffffff161461232a576040517f08c379a00000000000000000000000000000000000000000000000000000000081526004016123219061581a565b60405180910390fd5b6123348282613242565b5050565b6000612360836000018373ffffffffffffffffffffffffffffffffffffffff1660001b613323565b905092915050565b612370610fd4565b6123af576040517f08c379a00000000000000000000000000000000000000000000000000000000081526004016123a6906155da565b60405180910390fd5b6000600560006101000a81548160ff0219169083151502179055507f5db9ee0a495bf2e6ff9c91a7834c1ba4fdd244a5e8aa4e537bd38aeae4b073aa6123f3611cb6565b60405161240091906153af565b60405180910390a1565b600073ffffffffffffffffffffffffffffffffffffffff168473ffffffffffffffffffffffffffffffffffffffff16141561247a576040517f08c379a0000000000000000000000000000000000000000000000000000000008152600401612471906157fa565b60405180910390fd5b6000612484611cb6565b90506124a581600087612496886134a9565b61249f886134a9565b87612fbf565b826002600086815260200190815260200160002060008773ffffffffffffffffffffffffffffffffffffffff1673ffffffffffffffffffffffffffffffffffffffff16815260200190815260200160002060008282546125059190615a41565b925050819055508473ffffffffffffffffffffffffffffffffffffffff16600073ffffffffffffffffffffffffffffffffffffffff168273ffffffffffffffffffffffffffffffffffffffff167fc3d58168c5ae7397731d063d5bbf3d657854427343f4c083240f7aacaa2d0f628787604051612583929190615899565b60405180910390a461259a8160008787878761356f565b5050505050565b600073ffffffffffffffffffffffffffffffffffffffff168373ffffffffffffffffffffffffffffffffffffffff161415612611576040517f08c379a0000000000000000000000000000000000000000000000000000000008152600401612608906156fa565b60405180910390fd5b8051825114612655576040517f08c379a000000000000000000000000000000000000000000000000000000000815260040161264c906157da565b60405180910390fd5b600061265f611cb6565b905061267f81856000868660405180602001604052806000815250612fbf565b60005b835181101561281a5760008482815181106126c6577f4e487b7100000000000000000000000000000000000000000000000000000000600052603260045260246000fd5b60200260200101519050600084838151811061270b577f4e487b7100000000000000000000000000000000000000000000000000000000600052603260045260246000fd5b6020026020010151905060006002600084815260200190815260200160002060008973ffffffffffffffffffffffffffffffffffffffff1673ffffffffffffffffffffffffffffffffffffffff168152602001908152602001600020549050818110156127ad576040517f08c379a00000000000000000000000000000000000000000000000000000000081526004016127a49061561a565b60405180910390fd5b8181036002600085815260200190815260200160002060008a73ffffffffffffffffffffffffffffffffffffffff1673ffffffffffffffffffffffffffffffffffffffff16815260200190815260200160002081905550505050808061281290615c4e565b915050612682565b50600073ffffffffffffffffffffffffffffffffffffffff168473ffffffffffffffffffffffffffffffffffffffff168273ffffffffffffffffffffffffffffffffffffffff167f4a39dc06d4c0dbc64b70af90fd698a233a518aa5d07e595d983b8c0526c8f7fb86866040516128929291906154d0565b60405180910390a450505050565b6128a8610fd4565b156128e8576040517f08c379a00000000000000000000000000000000000000000000000000000000081526004016128df9061569a565b60405180910390fd5b6001600560006101000a81548160ff0219169083151502179055507f62e78cea01bee320cd4e420270b5ea74000d11b0c9f74754ebdbfc544b05a25861292c611cb6565b60405161293991906153af565b60405180910390a1565b6000612952836000018361373f565b60001c905092915050565b6000600760009054906101000a900460ff1660ff1682109050919050565b600061298982600001613790565b9050919050565b61299982610878565b6129aa816129a5611cb6565b6131a5565b6129b48383613242565b505050565b600073ffffffffffffffffffffffffffffffffffffffff168473ffffffffffffffffffffffffffffffffffffffff161415612a29576040517f08c379a0000000000000000000000000000000000000000000000000000000008152600401612a20906156ba565b60405180910390fd5b6000612a33611cb6565b9050612a53818787612a44886134a9565b612a4d886134a9565b87612fbf565b60006002600086815260200190815260200160002060008873ffffffffffffffffffffffffffffffffffffffff1673ffffffffffffffffffffffffffffffffffffffff16815260200190815260200160002054905083811015612aeb576040517f08c379a0000000000000000000000000000000000000000000000000000000008152600401612ae29061573a565b60405180910390fd5b8381036002600087815260200190815260200160002060008973ffffffffffffffffffffffffffffffffffffffff1673ffffffffffffffffffffffffffffffffffffffff16815260200190815260200160002081905550836002600087815260200190815260200160002060008873ffffffffffffffffffffffffffffffffffffffff1673ffffffffffffffffffffffffffffffffffffffff1681526020019081526020016000206000828254612ba29190615a41565b925050819055508573ffffffffffffffffffffffffffffffffffffffff168773ffffffffffffffffffffffffffffffffffffffff168373ffffffffffffffffffffffffffffffffffffffff167fc3d58168c5ae7397731d063d5bbf3d657854427343f4c083240f7aacaa2d0f628888604051612c1f929190615899565b60405180910390a4612c3582888888888861356f565b50505050505050565b600073ffffffffffffffffffffffffffffffffffffffff168373ffffffffffffffffffffffffffffffffffffffff161415612cae576040517f08c379a0000000000000000000000000000000000000000000000000000000008152600401612ca5906156fa565b60405180910390fd5b6000612cb8611cb6565b9050612ce881856000612cca876134a9565b612cd3876134a9565b60405180602001604052806000815250612fbf565b60006002600085815260200190815260200160002060008673ffffffffffffffffffffffffffffffffffffffff1673ffffffffffffffffffffffffffffffffffffffff16815260200190815260200160002054905082811015612d80576040517f08c379a0000000000000000000000000000000000000000000000000000000008152600401612d779061561a565b60405180910390fd5b8281036002600086815260200190815260200160002060008773ffffffffffffffffffffffffffffffffffffffff1673ffffffffffffffffffffffffffffffffffffffff16815260200190815260200160002081905550600073ffffffffffffffffffffffffffffffffffffffff168573ffffffffffffffffffffffffffffffffffffffff168373ffffffffffffffffffffffffffffffffffffffff167fc3d58168c5ae7397731d063d5bbf3d657854427343f4c083240f7aacaa2d0f628787604051612e4e929190615899565b60405180910390a45050505050565b612e678282611399565b612f3957600160008084815260200190815260200160002060000160008373ffffffffffffffffffffffffffffffffffffffff1673ffffffffffffffffffffffffffffffffffffffff16815260200190815260200160002060006101000a81548160ff021916908315150217905550612ede611cb6565b73ffffffffffffffffffffffffffffffffffffffff168173ffffffffffffffffffffffffffffffffffffffff16837f2f8788117e7eff1d82e926ec794901d17c78024a50270940304540a733656f0d60405160405180910390a45b5050565b6000612f4983836137a1565b612fa2578260000182908060018154018082558091505060019003906000526020600020016000909190919091505582600001805490508360010160008481526020019081526020016000208190555060019050612fa7565b600090505b92915050565b6000612fb8826137c4565b9050919050565b612fcd8686868686866138a6565b505050505050565b612ff48473ffffffffffffffffffffffffffffffffffffffff16613904565b1561319d578373ffffffffffffffffffffffffffffffffffffffff1663bc197c8187878686866040518663ffffffff1660e01b815260040161303a9594939291906153ca565b602060405180830381600087803b15801561305457600080fd5b505af192505050801561308557506040513d601f19601f8201168201806040525081019061308291906145f3565b60015b61311457613091615d6c565b8061309c57506130d9565b806040517f08c379a00000000000000000000000000000000000000000000000000000000081526004016130d09190615558565b60405180910390fd5b6040517f08c379a000000000000000000000000000000000000000000000000000000000815260040161310b9061557a565b60405180910390fd5b63bc197c8160e01b7bffffffffffffffffffffffffffffffffffffffffffffffffffffffff1916817bffffffffffffffffffffffffffffffffffffffffffffffffffffffff19161461319b576040517f08c379a0000000000000000000000000000000000000000000000000000000008152600401613192906155ba565b60405180910390fd5b505b505050505050565b6131af8282611399565b61323e576131d48173ffffffffffffffffffffffffffffffffffffffff166014613917565b6131e28360001c6020613917565b6040516020016131f3929190615375565b6040516020818303038152906040526040517f08c379a00000000000000000000000000000000000000000000000000000000081526004016132359190615558565b60405180910390fd5b5050565b61324c8282611399565b1561331f57600080600084815260200190815260200160002060000160008373ffffffffffffffffffffffffffffffffffffffff1673ffffffffffffffffffffffffffffffffffffffff16815260200190815260200160002060006101000a81548160ff0219169083151502179055506132c4611cb6565b73ffffffffffffffffffffffffffffffffffffffff168173ffffffffffffffffffffffffffffffffffffffff16837ff6391f5c32d9c69d2a47ea670b442974b53935d1edc7fd64eb21e047a839171b60405160405180910390a45b5050565b6000808360010160008481526020019081526020016000205490506000811461349d5760006001826133559190615af1565b905060006001866000018054905061336d9190615af1565b90508181146134285760008660000182815481106133b4577f4e487b7100000000000000000000000000000000000000000000000000000000600052603260045260246000fd5b90600052602060002001549050808760000184815481106133fe577f4e487b7100000000000000000000000000000000000000000000000000000000600052603260045260246000fd5b90600052602060002001819055508387600101600083815260200190815260200160002081905550505b85600001805480613462577f4e487b7100000000000000000000000000000000000000000000000000000000600052603160045260246000fd5b6001900381819060005260206000200160009055905585600101600086815260200190815260200160002060009055600193505050506134a3565b60009150505b92915050565b60606000600167ffffffffffffffff8111156134ee577f4e487b7100000000000000000000000000000000000000000000000000000000600052604160045260246000fd5b60405190808252806020026020018201604052801561351c5781602001602082028036833780820191505090505b509050828160008151811061355a577f4e487b7100000000000000000000000000000000000000000000000000000000600052603260045260246000fd5b60200260200101818152505080915050919050565b61358e8473ffffffffffffffffffffffffffffffffffffffff16613904565b15613737578373ffffffffffffffffffffffffffffffffffffffff1663f23a6e6187878686866040518663ffffffff1660e01b81526004016135d4959493929190615432565b602060405180830381600087803b1580156135ee57600080fd5b505af192505050801561361f57506040513d601f19601f8201168201806040525081019061361c91906145f3565b60015b6136ae5761362b615d6c565b806136365750613673565b806040517f08c379a000000000000000000000000000000000000000000000000000000000815260040161366a9190615558565b60405180910390fd5b6040517f08c379a00000000000000000000000000000000000000000000000000000000081526004016136a59061557a565b60405180910390fd5b63f23a6e6160e01b7bffffffffffffffffffffffffffffffffffffffffffffffffffffffff1916817bffffffffffffffffffffffffffffffffffffffffffffffffffffffff191614613735576040517f08c379a000000000000000000000000000000000000000000000000000000000815260040161372c906155ba565b60405180910390fd5b505b505050505050565b600082600001828154811061377d577f4e487b7100000000000000000000000000000000000000000000000000000000600052603260045260246000fd5b9060005260206000200154905092915050565b600081600001805490509050919050565b600080836001016000848152602001908152602001600020541415905092915050565b60007fd9b67a26000000000000000000000000000000000000000000000000000000007bffffffffffffffffffffffffffffffffffffffffffffffffffffffff1916827bffffffffffffffffffffffffffffffffffffffffffffffffffffffff1916148061388f57507f0e89341c000000000000000000000000000000000000000000000000000000007bffffffffffffffffffffffffffffffffffffffffffffffffffffffff1916827bffffffffffffffffffffffffffffffffffffffffffffffffffffffff1916145b8061389f575061389e82613c11565b5b9050919050565b6138b4868686868686613c8b565b6138bc610fd4565b156138fc576040517f08c379a00000000000000000000000000000000000000000000000000000000081526004016138f39061563a565b60405180910390fd5b505050505050565b600080823b905060008111915050919050565b60606000600283600261392a9190615a97565b6139349190615a41565b67ffffffffffffffff811115613973577f4e487b7100000000000000000000000000000000000000000000000000000000600052604160045260246000fd5b6040519080825280601f01601f1916602001820160405280156139a55781602001600182028036833780820191505090505b5090507f300000000000000000000000000000000000000000000000000000000000000081600081518110613a03577f4e487b7100000000000000000000000000000000000000000000000000000000600052603260045260246000fd5b60200101907effffffffffffffffffffffffffffffffffffffffffffffffffffffffffffff1916908160001a9053507f780000000000000000000000000000000000000000000000000000000000000081600181518110613a8d577f4e487b7100000000000000000000000000000000000000000000000000000000600052603260045260246000fd5b60200101907effffffffffffffffffffffffffffffffffffffffffffffffffffffffffffff1916908160001a90535060006001846002613acd9190615a97565b613ad79190615a41565b90505b6001811115613bc3577f3031323334353637383961626364656600000000000000000000000000000000600f861660108110613b3f577f4e487b7100000000000000000000000000000000000000000000000000000000600052603260045260246000fd5b1a60f81b828281518110613b7c577f4e487b7100000000000000000000000000000000000000000000000000000000600052603260045260246000fd5b60200101907effffffffffffffffffffffffffffffffffffffffffffffffffffffffffffff1916908160001a905350600485901c945080613bbc90615bf2565b9050613ada565b5060008414613c07576040517f08c379a0000000000000000000000000000000000000000000000000000000008152600401613bfe9061559a565b60405180910390fd5b8091505092915050565b60007f5a05180f000000000000000000000000000000000000000000000000000000007bffffffffffffffffffffffffffffffffffffffffffffffffffffffff1916827bffffffffffffffffffffffffffffffffffffffffffffffffffffffff19161480613c845750613c8382613c93565b5b9050919050565b505050505050565b60007f7965db0b000000000000000000000000000000000000000000000000000000007bffffffffffffffffffffffffffffffffffffffffffffffffffffffff1916827bffffffffffffffffffffffffffffffffffffffffffffffffffffffff19161480613d065750613d0582613d0d565b5b9050919050565b60007f01ffc9a7000000000000000000000000000000000000000000000000000000007bffffffffffffffffffffffffffffffffffffffffffffffffffffffff1916827bffffffffffffffffffffffffffffffffffffffffffffffffffffffff1916149050919050565b604051806040016040528060608152602001606081525090565b6040518060600160405280600073ffffffffffffffffffffffffffffffffffffffff16815260200160608152602001606081525090565b828054613dd490615c1c565b90600052602060002090601f016020900481019282613df65760008555613e3d565b82601f10613e0f57805160ff1916838001178555613e3d565b82800160010185558215613e3d579182015b82811115613e3c578251825591602001919060010190613e21565b5b509050613e4a9190613e4e565b5090565b5b80821115613e67576000816000905550600101613e4f565b5090565b6000613e7e613e79846158f3565b6158c2565b90508083825260208201905082856020860282011115613e9d57600080fd5b60005b85811015613ecd5781613eb38882613f81565b845260208401935060208301925050600181019050613ea0565b5050509392505050565b6000613eea613ee58461591f565b6158c2565b90508083825260208201905082856020860282011115613f0957600080fd5b60005b85811015613f395781613f1f88826140b2565b845260208401935060208301925050600181019050613f0c565b5050509392505050565b6000613f56613f518461594b565b6158c2565b905082815260208101848484011115613f6e57600080fd5b613f79848285615bb0565b509392505050565b600081359050613f9081615e22565b92915050565b600082601f830112613fa757600080fd5b8135613fb7848260208601613e6b565b91505092915050565b600082601f830112613fd157600080fd5b8135613fe1848260208601613ed7565b91505092915050565b600081359050613ff981615e39565b92915050565b60008135905061400e81615e50565b92915050565b60008135905061402381615e67565b92915050565b60008151905061403881615e67565b92915050565b600082601f83011261404f57600080fd5b813561405f848260208601613f43565b91505092915050565b60008083601f84011261407a57600080fd5b8235905067ffffffffffffffff81111561409357600080fd5b6020830191508360018202830111156140ab57600080fd5b9250929050565b6000813590506140c181615e7e565b92915050565b600080604083850312156140da57600080fd5b60006140e885828601613f81565b92505060206140f985828601613f81565b9150509250929050565b600080600080600060a0868803121561411b57600080fd5b600061412988828901613f81565b955050602061413a88828901613f81565b945050604086013567ffffffffffffffff81111561415757600080fd5b61416388828901613fc0565b935050606086013567ffffffffffffffff81111561418057600080fd5b61418c88828901613fc0565b925050608086013567ffffffffffffffff8111156141a957600080fd5b6141b58882890161403e565b9150509295509295909350565b600080600080600060a086880312156141da57600080fd5b60006141e888828901613f81565b95505060206141f988828901613f81565b945050604061420a888289016140b2565b935050606061421b888289016140b2565b925050608086013567ffffffffffffffff81111561423857600080fd5b6142448882890161403e565b9150509295509295909350565b60008060006060848603121561426657600080fd5b600061427486828701613f81565b935050602084013567ffffffffffffffff81111561429157600080fd5b61429d86828701613fc0565b925050604084013567ffffffffffffffff8111156142ba57600080fd5b6142c686828701613fc0565b9150509250925092565b600080600080608085870312156142e657600080fd5b60006142f487828801613f81565b945050602085013567ffffffffffffffff81111561431157600080fd5b61431d87828801613fc0565b935050604085013567ffffffffffffffff81111561433a57600080fd5b61434687828801613fc0565b925050606085013567ffffffffffffffff81111561436357600080fd5b61436f8782880161403e565b91505092959194509250565b6000806040838503121561438e57600080fd5b600061439c85828601613f81565b92505060206143ad85828601613fea565b9150509250929050565b600080604083850312156143ca57600080fd5b60006143d885828601613f81565b92505060206143e9858286016140b2565b9150509250929050565b60008060006060848603121561440857600080fd5b600061441686828701613f81565b9350506020614427868287016140b2565b9250506040614438868287016140b2565b9150509250925092565b6000806000806080858703121561445857600080fd5b600061446687828801613f81565b9450506020614477878288016140b2565b9350506040614488878288016140b2565b925050606085013567ffffffffffffffff8111156144a557600080fd5b6144b18782880161403e565b91505092959194509250565b600080604083850312156144d057600080fd5b600083013567ffffffffffffffff8111156144ea57600080fd5b6144f685828601613f96565b925050602083013567ffffffffffffffff81111561451357600080fd5b61451f85828601613fc0565b9150509250929050565b60006020828403121561453b57600080fd5b600061454984828501613fff565b91505092915050565b6000806040838503121561456557600080fd5b600061457385828601613fff565b925050602061458485828601613f81565b9150509250929050565b600080604083850312156145a157600080fd5b60006145af85828601613fff565b92505060206145c0858286016140b2565b9150509250929050565b6000602082840312156145dc57600080fd5b60006145ea84828501614014565b91505092915050565b60006020828403121561460557600080fd5b600061461384828501614029565b91505092915050565b60008060008060006060868803121561463457600080fd5b600086013567ffffffffffffffff81111561464e57600080fd5b61465a88828901614068565b9550955050602086013567ffffffffffffffff81111561467957600080fd5b61468588828901614068565b9350935050604086013567ffffffffffffffff8111156146a457600080fd5b6146b08882890161403e565b9150509295509295909350565b6000602082840312156146cf57600080fd5b60006146dd848285016140b2565b91505092915050565b600080600080606085870312156146fc57600080fd5b600061470a878288016140b2565b945050602085013567ffffffffffffffff81111561472757600080fd5b61473387828801614068565b9350935050604085013567ffffffffffffffff81111561475257600080fd5b61475e8782880161403e565b91505092959194509250565b6000806040838503121561477d57600080fd5b600061478b858286016140b2565b925050602061479c858286016140b2565b9150509250929050565b60006147b28383615278565b905092915050565b60006147c68383615357565b60208301905092915050565b6147db81615b25565b82525050565b6147ea81615b25565b82525050565b60006147fb8261599b565b61480581856159e1565b9350836020820285016148178561597b565b8060005b85811015614853578484038952815161483485826147a6565b945061483f836159c7565b925060208a0199505060018101905061481b565b50829750879550505050505092915050565b6000614870826159a6565b61487a81856159f2565b93506148858361598b565b8060005b838110156148b657815161489d88826147ba565b97506148a8836159d4565b925050600181019050614889565b5085935050505092915050565b6148cc81615b37565b82525050565b6148db81615b43565b82525050565b6148ea81615b4d565b82525050565b60006148fb826159b1565b6149058185615a03565b9350614915818560208601615bbf565b61491e81615d4e565b840191505092915050565b6000614934826159bc565b61493e8185615a14565b935061494e818560208601615bbf565b61495781615d4e565b840191505092915050565b600061496d826159bc565b6149778185615a25565b9350614987818560208601615bbf565b61499081615d4e565b840191505092915050565b60006149a6826159bc565b6149b08185615a36565b93506149c0818560208601615bbf565b80840191505092915050565b60006149d9603483615a25565b91507f455243313135353a207472616e7366657220746f206e6f6e204552433131353560008301527f526563656976657220696d706c656d656e7465720000000000000000000000006020830152604082019050919050565b6000614a3f602083615a25565b91507f537472696e67733a20686578206c656e67746820696e73756666696369656e746000830152602082019050919050565b6000614a7f602883615a25565b91507f455243313135353a204552433131353552656365697665722072656a6563746560008301527f6420746f6b656e730000000000000000000000000000000000000000000000006020830152604082019050919050565b6000614ae5601483615a25565b91507f5061757361626c653a206e6f74207061757365640000000000000000000000006000830152602082019050919050565b6000614b25602b83615a25565b91507f455243313135353a2062616c616e636520717565727920666f7220746865207a60008301527f65726f20616464726573730000000000000000000000000000000000000000006020830152604082019050919050565b6000614b8b602483615a25565b91507f455243313135353a206275726e20616d6f756e7420657863656564732062616c60008301527f616e6365000000000000000000000000000000000000000000000000000000006020830152604082019050919050565b6000614bf1602c83615a25565b91507f455243313135355061757361626c653a20746f6b656e207472616e736665722060008301527f7768696c652070617573656400000000000000000000000000000000000000006020830152604082019050919050565b6000614c57602983615a25565b91507f455243313135353a2063616c6c6572206973206e6f74206f776e6572206e6f7260008301527f20617070726f76656400000000000000000000000000000000000000000000006020830152604082019050919050565b6000614cbd601783615a25565b91507f54686520746f6b656e20646f206e6f74206578697374730000000000000000006000830152602082019050919050565b6000614cfd601083615a25565b91507f5061757361626c653a20706175736564000000000000000000000000000000006000830152602082019050919050565b6000614d3d602583615a25565b91507f455243313135353a207472616e7366657220746f20746865207a65726f20616460008301527f64726573730000000000000000000000000000000000000000000000000000006020830152604082019050919050565b6000614da3603283615a25565b91507f455243313135353a207472616e736665722063616c6c6572206973206e6f742060008301527f6f776e6572206e6f7220617070726f76656400000000000000000000000000006020830152604082019050919050565b6000614e09602383615a25565b91507f455243313135353a206275726e2066726f6d20746865207a65726f206164647260008301527f65737300000000000000000000000000000000000000000000000000000000006020830152604082019050919050565b6000614e6f603883615a25565b91507f455243313135355072657365744d696e7465725061757365723a206d7573742060008301527f68617665206d696e74657220726f6c6520746f206d696e7400000000000000006020830152604082019050919050565b6000614ed5602a83615a25565b91507f455243313135353a20696e73756666696369656e742062616c616e636520666f60008301527f72207472616e73666572000000000000000000000000000000000000000000006020830152604082019050919050565b6000614f3b603b83615a25565b91507f455243313135355072657365744d696e7465725061757365723a206d7573742060008301527f686176652070617573657220726f6c6520746f20756e706175736500000000006020830152604082019050919050565b6000614fa1603983615a25565b91507f455243313135355072657365744d696e7465725061757365723a206d7573742060008301527f686176652070617573657220726f6c6520746f207061757365000000000000006020830152604082019050919050565b6000615007601783615a36565b91507f416363657373436f6e74726f6c3a206163636f756e74200000000000000000006000830152601782019050919050565b6000615047602983615a25565b91507f455243313135353a2073657474696e6720617070726f76616c2073746174757360008301527f20666f722073656c6600000000000000000000000000000000000000000000006020830152604082019050919050565b60006150ad602983615a25565b91507f455243313135353a206163636f756e747320616e6420696473206c656e67746860008301527f206d69736d6174636800000000000000000000000000000000000000000000006020830152604082019050919050565b6000615113602883615a25565b91507f455243313135353a2069647320616e6420616d6f756e7473206c656e6774682060008301527f6d69736d617463680000000000000000000000000000000000000000000000006020830152604082019050919050565b6000615179602183615a25565b91507f455243313135353a206d696e7420746f20746865207a65726f2061646472657360008301527f73000000000000000000000000000000000000000000000000000000000000006020830152604082019050919050565b60006151df601183615a36565b91507f206973206d697373696e6720726f6c65200000000000000000000000000000006000830152601182019050919050565b600061521f602f83615a25565b91507f416363657373436f6e74726f6c3a2063616e206f6e6c792072656e6f756e636560008301527f20726f6c657320666f722073656c6600000000000000000000000000000000006020830152604082019050919050565b600060408301600083015184820360008601526152958282614929565b915050602083015184820360208601526152af8282614929565b9150508091505092915050565b600060408301600083015184820360008601526152d98282614929565b915050602083015184820360208601526152f38282614929565b9150508091505092915050565b600060608301600083015161531860008601826147d2565b50602083015184820360208601526153308282614929565b9150506040830151848203604086015261534a8282614929565b9150508091505092915050565b61536081615b99565b82525050565b61536f81615b99565b82525050565b600061538082614ffa565b915061538c828561499b565b9150615397826151d2565b91506153a3828461499b565b91508190509392505050565b60006020820190506153c460008301846147e1565b92915050565b600060a0820190506153df60008301886147e1565b6153ec60208301876147e1565b81810360408301526153fe8186614865565b905081810360608301526154128185614865565b9050818103608083015261542681846148f0565b90509695505050505050565b600060a08201905061544760008301886147e1565b61545460208301876147e1565b6154616040830186615366565b61546e6060830185615366565b818103608083015261548081846148f0565b90509695505050505050565b600060208201905081810360008301526154a681846147f0565b905092915050565b600060208201905081810360008301526154c88184614865565b905092915050565b600060408201905081810360008301526154ea8185614865565b905081810360208301526154fe8184614865565b90509392505050565b600060208201905061551c60008301846148c3565b92915050565b600060208201905061553760008301846148d2565b92915050565b600060208201905061555260008301846148e1565b92915050565b600060208201905081810360008301526155728184614962565b905092915050565b60006020820190508181036000830152615593816149cc565b9050919050565b600060208201905081810360008301526155b381614a32565b9050919050565b600060208201905081810360008301526155d381614a72565b9050919050565b600060208201905081810360008301526155f381614ad8565b9050919050565b6000602082019050818103600083015261561381614b18565b9050919050565b6000602082019050818103600083015261563381614b7e565b9050919050565b6000602082019050818103600083015261565381614be4565b9050919050565b6000602082019050818103600083015261567381614c4a565b9050919050565b6000602082019050818103600083015261569381614cb0565b9050919050565b600060208201905081810360008301526156b381614cf0565b9050919050565b600060208201905081810360008301526156d381614d30565b9050919050565b600060208201905081810360008301526156f381614d96565b9050919050565b6000602082019050818103600083015261571381614dfc565b9050919050565b6000602082019050818103600083015261573381614e62565b9050919050565b6000602082019050818103600083015261575381614ec8565b9050919050565b6000602082019050818103600083015261577381614f2e565b9050919050565b6000602082019050818103600083015261579381614f94565b9050919050565b600060208201905081810360008301526157b38161503a565b9050919050565b600060208201905081810360008301526157d3816150a0565b9050919050565b600060208201905081810360008301526157f381615106565b9050919050565b600060208201905081810360008301526158138161516c565b9050919050565b6000602082019050818103600083015261583381615212565b9050919050565b6000602082019050818103600083015261585481846152bc565b905092915050565b600060208201905081810360008301526158768184615300565b905092915050565b60006020820190506158936000830184615366565b92915050565b60006040820190506158ae6000830185615366565b6158bb6020830184615366565b9392505050565b6000604051905081810181811067ffffffffffffffff821117156158e9576158e8615d1f565b5b8060405250919050565b600067ffffffffffffffff82111561590e5761590d615d1f565b5b602082029050602081019050919050565b600067ffffffffffffffff82111561593a57615939615d1f565b5b602082029050602081019050919050565b600067ffffffffffffffff82111561596657615965615d1f565b5b601f19601f8301169050602081019050919050565b6000819050602082019050919050565b6000819050602082019050919050565b600081519050919050565b600081519050919050565b600081519050919050565b600081519050919050565b6000602082019050919050565b6000602082019050919050565b600082825260208201905092915050565b600082825260208201905092915050565b600082825260208201905092915050565b600082825260208201905092915050565b600082825260208201905092915050565b600081905092915050565b6000615a4c82615b99565b9150615a5783615b99565b9250827fffffffffffffffffffffffffffffffffffffffffffffffffffffffffffffffff03821115615a8c57615a8b615cc1565b5b828201905092915050565b6000615aa282615b99565b9150615aad83615b99565b9250817fffffffffffffffffffffffffffffffffffffffffffffffffffffffffffffffff0483118215151615615ae657615ae5615cc1565b5b828202905092915050565b6000615afc82615b99565b9150615b0783615b99565b925082821015615b1a57615b19615cc1565b5b828203905092915050565b6000615b3082615b79565b9050919050565b60008115159050919050565b6000819050919050565b60007fffffffff0000000000000000000000000000000000000000000000000000000082169050919050565b600073ffffffffffffffffffffffffffffffffffffffff82169050919050565b6000819050919050565b600060ff82169050919050565b82818337600083830152505050565b60005b83811015615bdd578082015181840152602081019050615bc2565b83811115615bec576000848401525b50505050565b6000615bfd82615b99565b91506000821415615c1157615c10615cc1565b5b600182039050919050565b60006002820490506001821680615c3457607f821691505b60208210811415615c4857615c47615cf0565b5b50919050565b6000615c5982615b99565b91507fffffffffffffffffffffffffffffffffffffffffffffffffffffffffffffffff821415615c8c57615c8b615cc1565b5b600182019050919050565b6000615ca282615ba3565b915060ff821415615cb657615cb5615cc1565b5b600182019050919050565b7f4e487b7100000000000000000000000000000000000000000000000000000000600052601160045260246000fd5b7f4e487b7100000000000000000000000000000000000000000000000000000000600052602260045260246000fd5b7f4e487b7100000000000000000000000000000000000000000000000000000000600052604160045260246000fd5b6000601f19601f8301169050919050565b60008160e01c9050919050565b600060443d1015615d7c57615e1f565b60046000803e615d8d600051615d5f565b6308c379a08114615d9e5750615e1f565b60405160043d036004823e80513d602482011167ffffffffffffffff82111715615dca57505050615e1f565b808201805167ffffffffffffffff811115615de9575050505050615e1f565b8060208301013d8501811115615e0457505050505050615e1f565b615e0d82615d4e565b60208401016040528296505050505050505b90565b615e2b81615b25565b8114615e3657600080fd5b50565b615e4281615b37565b8114615e4d57600080fd5b50565b615e5981615b43565b8114615e6457600080fd5b50565b615e7081615b4d565b8114615e7b57600080fd5b50565b615e8781615b99565b8114615e9257600080fd5b5056fea264697066735822122023567a28b35e8d577afeb2940ff75e786cc66e296d997aab5fa55823e89f99aa64736f6c63430008000033",
  "immutableReferences": {},
  "source": "pragma solidity ^0.8.0;\r\n\r\nimport \"@openzeppelin/contracts/token/ERC1155/presets/ERC1155PresetMinterPauser.sol\";\r\nimport \"@openzeppelin/contracts/token/ERC1155/extensions/IERC1155MetadataURI.sol\";\r\nimport \"@openzeppelin/contracts/token/ERC1155/utils/ERC1155Holder.sol\";\r\n\r\n\r\ncontract NFCool is ERC1155PresetMinterPauser, ERC1155Holder {\r\n    using Strings for uint256;\r\n\r\n    struct TokenData {\r\n        string uri;\r\n        string name;\r\n    }\r\n\r\n    struct TokenUnitData {\r\n        address owner;\r\n        string nfcId;\r\n        string status;\r\n    }\r\n\r\n    string brandName;\r\n\r\n    uint8 tokensCount;\r\n    mapping (uint256 => uint256) private _tokenUnitsCount;\r\n\r\n    mapping(uint256 => TokenData) private _tokenData;\r\n\r\n    mapping(uint256 => mapping(uint256 => TokenUnitData)) private _tokenUnitData;\r\n\r\n    constructor(string memory _brandName) ERC1155PresetMinterPauser(\"\") {\r\n        brandName = _brandName;\r\n    }\r\n\r\n    function getAllTokens() public view virtual returns (TokenData[] memory) {\r\n        TokenData[] memory tokens = new TokenData[](tokensCount);\r\n\r\n        for (uint256 i = 0 ; i < tokensCount ; i++) {\r\n            tokens[i] = _tokenData[i];\r\n        }\r\n\r\n        return tokens;\r\n    }\r\n\r\n    function tokenData(uint256 tokenId) public view virtual returns (TokenData memory) {\r\n        return _tokenData[tokenId];\r\n    }\r\n\r\n    function tokenUnitData(uint256 tokenId, uint256 tokenUnitId) public view virtual returns (TokenUnitData memory) {\r\n        return _tokenUnitData[tokenId][tokenUnitId];\r\n    }\r\n\r\n    function _setTokenURI(uint256 tokenId, string memory _tokenURI) internal virtual {\r\n        _tokenData[tokenId].uri = _tokenURI;\r\n    }\r\n\r\n    function _exists(uint256 tokenId) private view returns (bool) {\r\n        return tokenId < tokensCount;\r\n    }\r\n\r\n    function mintToken(string calldata tokenUri, string calldata tokenName, bytes memory data) external returns (uint256) {\r\n        require(hasRole(MINTER_ROLE, _msgSender()), \"ERC1155PresetMinterPauser: must have minter role to mint\");\r\n\r\n        _mint(address(this), tokensCount, 0, data);\r\n        _tokenData[tokensCount] = TokenData(tokenUri, tokenName);\r\n\r\n        tokensCount++;\r\n        return tokensCount;\r\n    }\r\n\r\n    function mintTokenUnit(uint256 tokenId, string calldata nfcId, bytes memory data) external returns (uint256) {\r\n        require(hasRole(MINTER_ROLE, _msgSender()), \"ERC1155PresetMinterPauser: must have minter role to mint\");\r\n        require(_exists(tokenId), \"The token do not exists\");\r\n\r\n        _mint(address(this), _tokenUnitsCount[tokenId], 1, data);\r\n        _tokenUnitData[tokenId][_tokenUnitsCount[tokenId]] = TokenUnitData(address(this), nfcId, \"minted\");\r\n\r\n        _tokenUnitsCount[tokenId]++;\r\n        return _tokenUnitsCount[tokenId];\r\n    }\r\n\r\n    function supportsInterface(bytes4 interfaceId) public view virtual override(ERC1155PresetMinterPauser, ERC1155Receiver) returns (bool) {\r\n        return super.supportsInterface(interfaceId);\r\n    }\r\n}\r\n",
  "sourcePath": "C:\\Users\\smlvi\\WebstormProjects\\nfcool-smart-contracts\\contracts\\NFCool.sol",
  "compiler": {
    "name": "solc",
    "version": "0.8.0+commit.c7dfd78e.Emscripten.clang"
  },
  "schemaVersion": "3.4.3",
  "updatedAt": "2021-11-11T21:25:53.941Z",
  "devdoc": {
    "kind": "dev",
    "methods": {
      "balanceOf(address,uint256)": {
        "details": "See {IERC1155-balanceOf}. Requirements: - `account` cannot be the zero address."
      },
      "balanceOfBatch(address[],uint256[])": {
        "details": "See {IERC1155-balanceOfBatch}. Requirements: - `accounts` and `ids` must have the same length."
      },
      "getRoleAdmin(bytes32)": {
        "details": "Returns the admin role that controls `role`. See {grantRole} and {revokeRole}. To change a role's admin, use {_setRoleAdmin}."
      },
      "getRoleMember(bytes32,uint256)": {
        "details": "Returns one of the accounts that have `role`. `index` must be a value between 0 and {getRoleMemberCount}, non-inclusive. Role bearers are not sorted in any particular way, and their ordering may change at any point. WARNING: When using {getRoleMember} and {getRoleMemberCount}, make sure you perform all queries on the same block. See the following https://forum.openzeppelin.com/t/iterating-over-elements-on-enumerableset-in-openzeppelin-contracts/2296[forum post] for more information."
      },
      "getRoleMemberCount(bytes32)": {
        "details": "Returns the number of accounts that have `role`. Can be used together with {getRoleMember} to enumerate all bearers of a role."
      },
      "grantRole(bytes32,address)": {
        "details": "Overload {grantRole} to track enumerable memberships"
      },
      "hasRole(bytes32,address)": {
        "details": "Returns `true` if `account` has been granted `role`."
      },
      "isApprovedForAll(address,address)": {
        "details": "See {IERC1155-isApprovedForAll}."
      },
      "mint(address,uint256,uint256,bytes)": {
        "details": "Creates `amount` new tokens for `to`, of token type `id`. See {ERC1155-_mint}. Requirements: - the caller must have the `MINTER_ROLE`."
      },
      "mintBatch(address,uint256[],uint256[],bytes)": {
        "details": "xref:ROOT:erc1155.adoc#batch-operations[Batched] variant of {mint}."
      },
      "pause()": {
        "details": "Pauses all token transfers. See {ERC1155Pausable} and {Pausable-_pause}. Requirements: - the caller must have the `PAUSER_ROLE`."
      },
      "paused()": {
        "details": "Returns true if the contract is paused, and false otherwise."
      },
      "renounceRole(bytes32,address)": {
        "details": "Overload {renounceRole} to track enumerable memberships"
      },
      "revokeRole(bytes32,address)": {
        "details": "Overload {revokeRole} to track enumerable memberships"
      },
      "safeBatchTransferFrom(address,address,uint256[],uint256[],bytes)": {
        "details": "See {IERC1155-safeBatchTransferFrom}."
      },
      "safeTransferFrom(address,address,uint256,uint256,bytes)": {
        "details": "See {IERC1155-safeTransferFrom}."
      },
      "setApprovalForAll(address,bool)": {
        "details": "See {IERC1155-setApprovalForAll}."
      },
      "unpause()": {
        "details": "Unpauses all token transfers. See {ERC1155Pausable} and {Pausable-_unpause}. Requirements: - the caller must have the `PAUSER_ROLE`."
      },
      "uri(uint256)": {
        "details": "See {IERC1155MetadataURI-uri}. This implementation returns the same URI for *all* token types. It relies on the token type ID substitution mechanism https://eips.ethereum.org/EIPS/eip-1155#metadata[defined in the EIP]. Clients calling this function must replace the `\\{id\\}` substring with the actual token type ID."
      }
    },
    "version": 1
  },
  "userdoc": {
    "kind": "user",
    "methods": {},
    "version": 1
  }
}