{
  "contractName": "NFCool",
  "abi": [
    {
      "inputs": [
        {
          "internalType": "string",
          "name": "_brandName",
          "type": "string"
        }
      ],
      "stateMutability": "nonpayable",
      "type": "constructor"
    },
    {
      "anonymous": false,
      "inputs": [
        {
          "indexed": true,
          "internalType": "address",
          "name": "account",
          "type": "address"
        },
        {
          "indexed": true,
          "internalType": "address",
          "name": "operator",
          "type": "address"
        },
        {
          "indexed": false,
          "internalType": "bool",
          "name": "approved",
          "type": "bool"
        }
      ],
      "name": "ApprovalForAll",
      "type": "event"
    },
    {
      "anonymous": false,
      "inputs": [
        {
          "indexed": true,
          "internalType": "uint256",
          "name": "tokenId",
          "type": "uint256"
        },
        {
          "indexed": false,
          "internalType": "uint256",
          "name": "unitId",
          "type": "uint256"
        },
        {
          "indexed": true,
          "internalType": "address",
          "name": "to",
          "type": "address"
        },
        {
          "indexed": false,
          "internalType": "bool",
          "name": "valid",
          "type": "bool"
        }
      ],
      "name": "OwnershipPermissionGave",
      "type": "event"
    },
    {
      "anonymous": false,
      "inputs": [
        {
          "indexed": true,
          "internalType": "bytes32",
          "name": "role",
          "type": "bytes32"
        },
        {
          "indexed": true,
          "internalType": "bytes32",
          "name": "previousAdminRole",
          "type": "bytes32"
        },
        {
          "indexed": true,
          "internalType": "bytes32",
          "name": "newAdminRole",
          "type": "bytes32"
        }
      ],
      "name": "RoleAdminChanged",
      "type": "event"
    },
    {
      "anonymous": false,
      "inputs": [
        {
          "indexed": true,
          "internalType": "bytes32",
          "name": "role",
          "type": "bytes32"
        },
        {
          "indexed": true,
          "internalType": "address",
          "name": "account",
          "type": "address"
        },
        {
          "indexed": true,
          "internalType": "address",
          "name": "sender",
          "type": "address"
        }
      ],
      "name": "RoleGranted",
      "type": "event"
    },
    {
      "anonymous": false,
      "inputs": [
        {
          "indexed": true,
          "internalType": "bytes32",
          "name": "role",
          "type": "bytes32"
        },
        {
          "indexed": true,
          "internalType": "address",
          "name": "account",
          "type": "address"
        },
        {
          "indexed": true,
          "internalType": "address",
          "name": "sender",
          "type": "address"
        }
      ],
      "name": "RoleRevoked",
      "type": "event"
    },
    {
      "anonymous": false,
      "inputs": [
        {
          "indexed": false,
          "internalType": "uint256",
          "name": "tokenId",
          "type": "uint256"
        },
        {
          "indexed": false,
          "internalType": "string",
          "name": "tokenUri",
          "type": "string"
        },
        {
          "indexed": false,
          "internalType": "string",
          "name": "tokenName",
          "type": "string"
        },
        {
          "indexed": false,
          "internalType": "bytes",
          "name": "data",
          "type": "bytes"
        }
      ],
      "name": "TokenMinted",
      "type": "event"
    },
    {
      "anonymous": false,
      "inputs": [
        {
          "indexed": true,
          "internalType": "uint256",
          "name": "tokenId",
          "type": "uint256"
        },
        {
          "indexed": false,
          "internalType": "uint256",
          "name": "unitId",
          "type": "uint256"
        },
        {
          "indexed": false,
          "internalType": "string",
          "name": "nfcId",
          "type": "string"
        },
        {
          "indexed": false,
          "internalType": "bytes",
          "name": "data",
          "type": "bytes"
        }
      ],
      "name": "TokenUnitMinted",
      "type": "event"
    },
    {
      "anonymous": false,
      "inputs": [
        {
          "indexed": true,
          "internalType": "address",
          "name": "operator",
          "type": "address"
        },
        {
          "indexed": true,
          "internalType": "address",
          "name": "from",
          "type": "address"
        },
        {
          "indexed": true,
          "internalType": "address",
          "name": "to",
          "type": "address"
        },
        {
          "indexed": false,
          "internalType": "uint256[]",
          "name": "ids",
          "type": "uint256[]"
        },
        {
          "indexed": false,
          "internalType": "uint256[]",
          "name": "values",
          "type": "uint256[]"
        }
      ],
      "name": "TransferBatch",
      "type": "event"
    },
    {
      "anonymous": false,
      "inputs": [
        {
          "indexed": true,
          "internalType": "address",
          "name": "operator",
          "type": "address"
        },
        {
          "indexed": true,
          "internalType": "address",
          "name": "from",
          "type": "address"
        },
        {
          "indexed": true,
          "internalType": "address",
          "name": "to",
          "type": "address"
        },
        {
          "indexed": false,
          "internalType": "uint256",
          "name": "id",
          "type": "uint256"
        },
        {
          "indexed": false,
          "internalType": "uint256",
          "name": "value",
          "type": "uint256"
        }
      ],
      "name": "TransferSingle",
      "type": "event"
    },
    {
      "anonymous": false,
      "inputs": [
        {
          "indexed": false,
          "internalType": "string",
          "name": "value",
          "type": "string"
        },
        {
          "indexed": true,
          "internalType": "uint256",
          "name": "id",
          "type": "uint256"
        }
      ],
      "name": "URI",
      "type": "event"
    },
    {
      "inputs": [],
      "name": "DEFAULT_ADMIN_ROLE",
      "outputs": [
        {
          "internalType": "bytes32",
          "name": "",
          "type": "bytes32"
        }
      ],
      "stateMutability": "view",
      "type": "function"
    },
    {
      "inputs": [],
      "name": "MINTER_ROLE",
      "outputs": [
        {
          "internalType": "bytes32",
          "name": "",
          "type": "bytes32"
        }
      ],
      "stateMutability": "view",
      "type": "function"
    },
    {
      "inputs": [
        {
          "internalType": "address",
          "name": "account",
          "type": "address"
        },
        {
          "internalType": "uint256",
          "name": "id",
          "type": "uint256"
        }
      ],
      "name": "balanceOf",
      "outputs": [
        {
          "internalType": "uint256",
          "name": "",
          "type": "uint256"
        }
      ],
      "stateMutability": "view",
      "type": "function"
    },
    {
      "inputs": [
        {
          "internalType": "address[]",
          "name": "accounts",
          "type": "address[]"
        },
        {
          "internalType": "uint256[]",
          "name": "ids",
          "type": "uint256[]"
        }
      ],
      "name": "balanceOfBatch",
      "outputs": [
        {
          "internalType": "uint256[]",
          "name": "",
          "type": "uint256[]"
        }
      ],
      "stateMutability": "view",
      "type": "function"
    },
    {
      "inputs": [
        {
          "internalType": "bytes32",
          "name": "role",
          "type": "bytes32"
        }
      ],
      "name": "getRoleAdmin",
      "outputs": [
        {
          "internalType": "bytes32",
          "name": "",
          "type": "bytes32"
        }
      ],
      "stateMutability": "view",
      "type": "function"
    },
    {
      "inputs": [
        {
          "internalType": "bytes32",
          "name": "role",
          "type": "bytes32"
        },
        {
          "internalType": "uint256",
          "name": "index",
          "type": "uint256"
        }
      ],
      "name": "getRoleMember",
      "outputs": [
        {
          "internalType": "address",
          "name": "",
          "type": "address"
        }
      ],
      "stateMutability": "view",
      "type": "function"
    },
    {
      "inputs": [
        {
          "internalType": "bytes32",
          "name": "role",
          "type": "bytes32"
        }
      ],
      "name": "getRoleMemberCount",
      "outputs": [
        {
          "internalType": "uint256",
          "name": "",
          "type": "uint256"
        }
      ],
      "stateMutability": "view",
      "type": "function"
    },
    {
      "inputs": [
        {
          "internalType": "bytes32",
          "name": "role",
          "type": "bytes32"
        },
        {
          "internalType": "address",
          "name": "account",
          "type": "address"
        }
      ],
      "name": "grantRole",
      "outputs": [],
      "stateMutability": "nonpayable",
      "type": "function"
    },
    {
      "inputs": [
        {
          "internalType": "bytes32",
          "name": "role",
          "type": "bytes32"
        },
        {
          "internalType": "address",
          "name": "account",
          "type": "address"
        }
      ],
      "name": "hasRole",
      "outputs": [
        {
          "internalType": "bool",
          "name": "",
          "type": "bool"
        }
      ],
      "stateMutability": "view",
      "type": "function"
    },
    {
      "inputs": [
        {
          "internalType": "address",
          "name": "account",
          "type": "address"
        },
        {
          "internalType": "address",
          "name": "operator",
          "type": "address"
        }
      ],
      "name": "isApprovedForAll",
      "outputs": [
        {
          "internalType": "bool",
          "name": "",
          "type": "bool"
        }
      ],
      "stateMutability": "view",
      "type": "function"
    },
    {
      "inputs": [
        {
          "internalType": "address",
          "name": "",
          "type": "address"
        },
        {
          "internalType": "address",
          "name": "",
          "type": "address"
        },
        {
          "internalType": "uint256[]",
          "name": "",
          "type": "uint256[]"
        },
        {
          "internalType": "uint256[]",
          "name": "",
          "type": "uint256[]"
        },
        {
          "internalType": "bytes",
          "name": "",
          "type": "bytes"
        }
      ],
      "name": "onERC1155BatchReceived",
      "outputs": [
        {
          "internalType": "bytes4",
          "name": "",
          "type": "bytes4"
        }
      ],
      "stateMutability": "nonpayable",
      "type": "function"
    },
    {
      "inputs": [
        {
          "internalType": "address",
          "name": "",
          "type": "address"
        },
        {
          "internalType": "address",
          "name": "",
          "type": "address"
        },
        {
          "internalType": "uint256",
          "name": "",
          "type": "uint256"
        },
        {
          "internalType": "uint256",
          "name": "",
          "type": "uint256"
        },
        {
          "internalType": "bytes",
          "name": "",
          "type": "bytes"
        }
      ],
      "name": "onERC1155Received",
      "outputs": [
        {
          "internalType": "bytes4",
          "name": "",
          "type": "bytes4"
        }
      ],
      "stateMutability": "nonpayable",
      "type": "function"
    },
    {
      "inputs": [
        {
          "internalType": "bytes32",
          "name": "role",
          "type": "bytes32"
        },
        {
          "internalType": "address",
          "name": "account",
          "type": "address"
        }
      ],
      "name": "renounceRole",
      "outputs": [],
      "stateMutability": "nonpayable",
      "type": "function"
    },
    {
      "inputs": [
        {
          "internalType": "bytes32",
          "name": "role",
          "type": "bytes32"
        },
        {
          "internalType": "address",
          "name": "account",
          "type": "address"
        }
      ],
      "name": "revokeRole",
      "outputs": [],
      "stateMutability": "nonpayable",
      "type": "function"
    },
    {
      "inputs": [
        {
          "internalType": "address",
          "name": "from",
          "type": "address"
        },
        {
          "internalType": "address",
          "name": "to",
          "type": "address"
        },
        {
          "internalType": "uint256[]",
          "name": "ids",
          "type": "uint256[]"
        },
        {
          "internalType": "uint256[]",
          "name": "amounts",
          "type": "uint256[]"
        },
        {
          "internalType": "bytes",
          "name": "data",
          "type": "bytes"
        }
      ],
      "name": "safeBatchTransferFrom",
      "outputs": [],
      "stateMutability": "nonpayable",
      "type": "function"
    },
    {
      "inputs": [
        {
          "internalType": "address",
          "name": "from",
          "type": "address"
        },
        {
          "internalType": "address",
          "name": "to",
          "type": "address"
        },
        {
          "internalType": "uint256",
          "name": "id",
          "type": "uint256"
        },
        {
          "internalType": "uint256",
          "name": "amount",
          "type": "uint256"
        },
        {
          "internalType": "bytes",
          "name": "data",
          "type": "bytes"
        }
      ],
      "name": "safeTransferFrom",
      "outputs": [],
      "stateMutability": "nonpayable",
      "type": "function"
    },
    {
      "inputs": [
        {
          "internalType": "address",
          "name": "operator",
          "type": "address"
        },
        {
          "internalType": "bool",
          "name": "approved",
          "type": "bool"
        }
      ],
      "name": "setApprovalForAll",
      "outputs": [],
      "stateMutability": "nonpayable",
      "type": "function"
    },
    {
      "inputs": [
        {
          "internalType": "uint256",
          "name": "",
          "type": "uint256"
        }
      ],
      "name": "uri",
      "outputs": [
        {
          "internalType": "string",
          "name": "",
          "type": "string"
        }
      ],
      "stateMutability": "view",
      "type": "function"
    },
    {
      "inputs": [
        {
          "internalType": "uint256",
          "name": "tokenId",
          "type": "uint256"
        },
        {
          "internalType": "uint256",
          "name": "unitId",
          "type": "uint256"
        },
        {
          "internalType": "address",
          "name": "account",
          "type": "address"
        }
      ],
      "name": "haveClaimPermission",
      "outputs": [
        {
          "internalType": "bool",
          "name": "",
          "type": "bool"
        }
      ],
      "stateMutability": "view",
      "type": "function"
    },
    {
      "inputs": [],
      "name": "getTokensCount",
      "outputs": [
        {
          "internalType": "uint256",
          "name": "",
          "type": "uint256"
        }
      ],
      "stateMutability": "view",
      "type": "function"
    },
    {
      "inputs": [
        {
          "internalType": "uint256",
          "name": "tokenId",
          "type": "uint256"
        }
      ],
      "name": "tokenData",
      "outputs": [
        {
          "components": [
            {
              "internalType": "string",
              "name": "uri",
              "type": "string"
            },
            {
              "internalType": "string",
              "name": "name",
              "type": "string"
            }
          ],
          "internalType": "struct TokenData",
          "name": "",
          "type": "tuple"
        }
      ],
      "stateMutability": "view",
      "type": "function"
    },
    {
      "inputs": [
        {
          "internalType": "uint256",
          "name": "tokenId",
          "type": "uint256"
        },
        {
          "internalType": "uint256",
          "name": "tokenUnitId",
          "type": "uint256"
        }
      ],
      "name": "tokenUnitData",
      "outputs": [
        {
          "components": [
            {
              "internalType": "address",
              "name": "owner",
              "type": "address"
            },
            {
              "internalType": "string",
              "name": "nfcId",
              "type": "string"
            },
            {
              "internalType": "string",
              "name": "status",
              "type": "string"
            }
          ],
          "internalType": "struct TokenUnitData",
          "name": "",
          "type": "tuple"
        }
      ],
      "stateMutability": "view",
      "type": "function"
    },
    {
      "inputs": [
        {
          "internalType": "string",
          "name": "tokenUri",
          "type": "string"
        },
        {
          "internalType": "string",
          "name": "tokenName",
          "type": "string"
        },
        {
          "internalType": "bytes",
          "name": "data",
          "type": "bytes"
        }
      ],
      "name": "mintToken",
      "outputs": [
        {
          "internalType": "uint256",
          "name": "",
          "type": "uint256"
        }
      ],
      "stateMutability": "nonpayable",
      "type": "function"
    },
    {
      "inputs": [
        {
          "internalType": "uint256",
          "name": "tokenId",
          "type": "uint256"
        },
        {
          "internalType": "string",
          "name": "nfcId",
          "type": "string"
        },
        {
          "internalType": "bytes",
          "name": "data",
          "type": "bytes"
        }
      ],
      "name": "mintTokenUnit",
      "outputs": [
        {
          "internalType": "uint256",
          "name": "",
          "type": "uint256"
        }
      ],
      "stateMutability": "nonpayable",
      "type": "function"
    },
    {
      "inputs": [
        {
          "internalType": "uint256",
          "name": "tokenId",
          "type": "uint256"
        },
        {
          "internalType": "uint256",
          "name": "unitId",
          "type": "uint256"
        },
        {
          "internalType": "address",
          "name": "to",
          "type": "address"
        },
        {
          "internalType": "string",
          "name": "pin",
          "type": "string"
        }
      ],
      "name": "requestPhoneVerification",
      "outputs": [
        {
          "internalType": "bytes32",
          "name": "requestId",
          "type": "bytes32"
        }
      ],
      "stateMutability": "nonpayable",
      "type": "function"
    },
    {
      "inputs": [
        {
          "internalType": "uint256",
          "name": "tokenId",
          "type": "uint256"
        },
        {
          "internalType": "uint256",
          "name": "unitId",
          "type": "uint256"
        },
        {
          "internalType": "address",
          "name": "to",
          "type": "address"
        },
        {
          "internalType": "bool",
          "name": "valid",
          "type": "bool"
        }
      ],
      "name": "ownershipPermission",
      "outputs": [],
      "stateMutability": "nonpayable",
      "type": "function"
    },
    {
      "inputs": [
        {
          "internalType": "uint256",
          "name": "tokenId",
          "type": "uint256"
        },
        {
          "internalType": "uint256",
          "name": "unitId",
          "type": "uint256"
        },
        {
          "internalType": "address",
          "name": "to",
          "type": "address"
        }
      ],
      "name": "claimOwnership",
      "outputs": [],
      "stateMutability": "nonpayable",
      "type": "function"
    },
    {
      "inputs": [
        {
          "internalType": "address",
          "name": "from",
          "type": "address"
        },
        {
          "internalType": "address",
          "name": "to",
          "type": "address"
        },
        {
          "internalType": "uint256",
          "name": "tokenId",
          "type": "uint256"
        },
        {
          "internalType": "uint256",
          "name": "unitId",
          "type": "uint256"
        },
        {
          "internalType": "bytes",
          "name": "data",
          "type": "bytes"
        }
      ],
      "name": "safeUnitTransferFrom",
      "outputs": [],
      "stateMutability": "nonpayable",
      "type": "function"
    },
    {
      "inputs": [
        {
          "internalType": "address",
          "name": "contractAdr",
          "type": "address"
        }
      ],
      "name": "setVerificationContract",
      "outputs": [],
      "stateMutability": "nonpayable",
      "type": "function"
    },
    {
      "inputs": [
        {
          "internalType": "uint256",
          "name": "tokenId",
          "type": "uint256"
        },
        {
          "internalType": "uint256",
          "name": "unitId",
          "type": "uint256"
        }
      ],
      "name": "unitSold",
      "outputs": [],
      "stateMutability": "nonpayable",
      "type": "function"
    },
    {
      "inputs": [
        {
          "internalType": "uint256",
          "name": "tokenId",
          "type": "uint256"
        },
        {
          "internalType": "uint256",
          "name": "unitId",
          "type": "uint256"
        }
      ],
      "name": "unitStolen",
      "outputs": [],
      "stateMutability": "nonpayable",
      "type": "function"
    },
    {
      "inputs": [
        {
          "internalType": "uint256",
          "name": "tokenId",
          "type": "uint256"
        },
        {
          "internalType": "uint256",
          "name": "unitId",
          "type": "uint256"
        }
      ],
      "name": "unitLost",
      "outputs": [],
      "stateMutability": "nonpayable",
      "type": "function"
    },
    {
      "inputs": [
        {
          "internalType": "uint256",
          "name": "tokenId",
          "type": "uint256"
        },
        {
          "internalType": "uint256",
          "name": "unitId",
          "type": "uint256"
        }
      ],
      "name": "unitLostFound",
      "outputs": [],
      "stateMutability": "nonpayable",
      "type": "function"
    },
    {
      "inputs": [
        {
          "internalType": "bytes4",
          "name": "interfaceId",
          "type": "bytes4"
        }
      ],
      "name": "supportsInterface",
      "outputs": [
        {
          "internalType": "bool",
          "name": "",
          "type": "bool"
        }
      ],
      "stateMutability": "view",
      "type": "function"
    }
  ],
  "bytecode": "0x60806040523480156200001157600080fd5b506040516200699b3803806200699b8339818101604052810190620000379190620004c0565b60405180602001604052806000815250806200005981620000e060201b60201c565b506200007e6000801b62000072620000fc60201b60201c565b6200010460201b60201c565b620000bf7f9f2df0fed2c77648de5860a4cc508cd0818c85b8b8a1ab4ceeef8d981c8956a6620000b3620000fc60201b60201c565b6200010460201b60201c565b508060059080519060200190620000d892919062000392565b505062000695565b8060049080519060200190620000f892919062000392565b5050565b600033905090565b6200011b82826200014c60201b620023c71760201c565b6200014781600160008581526020019081526020016000206200016260201b620023d51790919060201c565b505050565b6200015e82826200019a60201b60201c565b5050565b600062000192836000018373ffffffffffffffffffffffffffffffffffffffff1660001b6200028b60201b60201c565b905092915050565b620001ac82826200030560201b60201c565b6200028757600160008084815260200190815260200160002060000160008373ffffffffffffffffffffffffffffffffffffffff1673ffffffffffffffffffffffffffffffffffffffff16815260200190815260200160002060006101000a81548160ff0219169083151502179055506200022c620000fc60201b60201c565b73ffffffffffffffffffffffffffffffffffffffff168173ffffffffffffffffffffffffffffffffffffffff16837f2f8788117e7eff1d82e926ec794901d17c78024a50270940304540a733656f0d60405160405180910390a45b5050565b60006200029f83836200036f60201b60201c565b620002fa578260000182908060018154018082558091505060019003906000526020600020016000909190919091505582600001805490508360010160008481526020019081526020016000208190555060019050620002ff565b600090505b92915050565b600080600084815260200190815260200160002060000160008373ffffffffffffffffffffffffffffffffffffffff1673ffffffffffffffffffffffffffffffffffffffff16815260200190815260200160002060009054906101000a900460ff16905092915050565b600080836001016000848152602001908152602001600020541415905092915050565b828054620003a090620005a6565b90600052602060002090601f016020900481019282620003c4576000855562000410565b82601f10620003df57805160ff191683800117855562000410565b8280016001018555821562000410579182015b828111156200040f578251825591602001919060010190620003f2565b5b5090506200041f919062000423565b5090565b5b808211156200043e57600081600090555060010162000424565b5090565b60006200045962000453846200053a565b62000511565b90508281526020810184848401111562000478576200047762000675565b5b6200048584828562000570565b509392505050565b600082601f830112620004a557620004a462000670565b5b8151620004b784826020860162000442565b91505092915050565b600060208284031215620004d957620004d86200067f565b5b600082015167ffffffffffffffff811115620004fa57620004f96200067a565b5b62000508848285016200048d565b91505092915050565b60006200051d62000530565b90506200052b8282620005dc565b919050565b6000604051905090565b600067ffffffffffffffff82111562000558576200055762000641565b5b620005638262000684565b9050602081019050919050565b60005b838110156200059057808201518184015260208101905062000573565b83811115620005a0576000848401525b50505050565b60006002820490506001821680620005bf57607f821691505b60208210811415620005d657620005d562000612565b5b50919050565b620005e78262000684565b810181811067ffffffffffffffff8211171562000609576200060862000641565b5b80604052505050565b7f4e487b7100000000000000000000000000000000000000000000000000000000600052602260045260246000fd5b7f4e487b7100000000000000000000000000000000000000000000000000000000600052604160045260246000fd5b600080fd5b600080fd5b600080fd5b600080fd5b6000601f19601f8301169050919050565b6162f680620006a56000396000f3fe608060405234801561001057600080fd5b50600436106102055760003560e01c80639010d07c1161011a578063ca15c873116100ad578063f1cb3a1a1161007c578063f1cb3a1a14610668578063f23a6e6114610698578063f242432a146106c8578063f53fb9b9146106e4578063fb48d6be1461070057610205565b8063ca15c873146105ce578063d5391393146105fe578063d547741f1461061c578063e985e9c51461063857610205565b8063a22cb465116100e9578063a22cb46514610522578063b4b5b48f1461053e578063bc197c811461056e578063c3d042791461059e57610205565b80639010d07c1461048857806391d14854146104b8578063991ffb49146104e8578063a217fddf1461050457610205565b80632f2ff15d1161019d578063481d4e531161016c578063481d4e53146103d45780634e1273f4146103f0578063545b6422146104205780636648b1cb1461043c5780637bd161b41461046c57610205565b80632f2ff15d1461034e57806336568abe1461036a5780633962f82d146103865780633e80bb74146103a457610205565b80631cbb35e9116101d95780631cbb35e9146102b6578063241230ef146102e6578063248a9ca3146103025780632eb2c2d61461033257610205565b8062fdd58e1461020a57806301ffc9a71461023a5780630e89341c1461026a578063159a9ede1461029a575b600080fd5b610224600480360381019061021f91906140d6565b61071c565b60405161023191906152b2565b60405180910390f35b610254600480360381019061024f9190614268565b6107e6565b6040516102619190614edb565b60405180910390f35b610284600480360381019061027f9190614373565b6107f8565b6040516102919190614f2c565b60405180910390f35b6102b460048036038101906102af9190614430565b61088c565b005b6102d060048036038101906102cb9190614470565b6109fd565b6040516102dd9190614edb565b60405180910390f35b61030060048036038101906102fb9190614470565b610a7b565b005b61031c6004803603810190610317919061418e565b610c09565b6040516103299190614ef6565b60405180910390f35b61034c60048036038101906103479190613f30565b610c28565b005b610368600480360381019061036391906141e8565b610cc9565b005b610384600480360381019061037f91906141e8565b610cfd565b005b61038e610d31565b60405161039b91906152b2565b60405180910390f35b6103be60048036038101906103b99190614430565b610d4b565b6040516103cb9190615290565b60405180910390f35b6103ee60048036038101906103e99190614430565b610f04565b005b61040a60048036038101906104059190614116565b611075565b6040516104179190614e82565b60405180910390f35b61043a60048036038101906104359190614430565b61118e565b005b610456600480360381019061045191906142c2565b611325565b60405161046391906152b2565b60405180910390f35b61048660048036038101906104819190614430565b611567565b005b6104a2600480360381019061049d9190614228565b6116d8565b6040516104af9190614da5565b60405180910390f35b6104d260048036038101906104cd91906141e8565b611707565b6040516104df9190614edb565b60405180910390f35b61050260048036038101906104fd9190613fff565b611771565b005b61050c611812565b6040516105199190614ef6565b60405180910390f35b61053c60048036038101906105379190614096565b611819565b005b61055860048036038101906105539190614373565b61199a565b604051610565919061526e565b60405180910390f35b61058860048036038101906105839190613f30565b611aeb565b6040516105959190614f11565b60405180910390f35b6105b860048036038101906105b391906143a0565b611b00565b6040516105c591906152b2565b60405180910390f35b6105e860048036038101906105e3919061418e565b611dd0565b6040516105f591906152b2565b60405180910390f35b610606611df4565b6040516106139190614ef6565b60405180910390f35b610636600480360381019061063191906141e8565b611e18565b005b610652600480360381019061064d9190613ef0565b611e4c565b60405161065f9190614edb565b60405180910390f35b610682600480360381019061067d919061452a565b611ee0565b60405161068f9190614ef6565b60405180910390f35b6106b260048036038101906106ad9190613fff565b612130565b6040516106bf9190614f11565b60405180910390f35b6106e260048036038101906106dd9190613fff565b612145565b005b6106fe60048036038101906106f991906144c3565b6121e6565b005b61071a60048036038101906107159190613ec3565b612330565b005b60008073ffffffffffffffffffffffffffffffffffffffff168373ffffffffffffffffffffffffffffffffffffffff16141561078d576040517f08c379a000000000000000000000000000000000000000000000000000000000815260040161078490614fee565b60405180910390fd5b6002600083815260200190815260200160002060008473ffffffffffffffffffffffffffffffffffffffff1673ffffffffffffffffffffffffffffffffffffffff16815260200190815260200160002054905092915050565b60006107f182612405565b9050919050565b60606004805461080790615783565b80601f016020809104026020016040519081016040528092919081815260200182805461083390615783565b80156108805780601f1061085557610100808354040283529160200191610880565b820191906000526020600020905b81548152906001019060200180831161086357829003601f168201915b50505050509050919050565b61089782823361247f565b6108d6576040517f08c379a00000000000000000000000000000000000000000000000000000000081526004016108cd9061508e565b60405180910390fd5b6040516020016108e590614d2c565b604051602081830303815290604052805190602001206009600084815260200190815260200160002060008381526020019081526020016000206002016040516020016109329190614d00565b6040516020818303038152906040528051906020012014610988576040517f08c379a000000000000000000000000000000000000000000000000000000000815260040161097f9061510e565b60405180910390fd5b6040518060400160405280600581526020017f6f776e656400000000000000000000000000000000000000000000000000000081525060096000848152602001908152602001600020600083815260200190815260200160002060020190805190602001906109f8929190613b3a565b505050565b6000600a6000858152602001908152602001600020600084815260200190815260200160002060009054906101000a900473ffffffffffffffffffffffffffffffffffffffff1673ffffffffffffffffffffffffffffffffffffffff168273ffffffffffffffffffffffffffffffffffffffff161490509392505050565b610a868383836109fd565b610ac5576040517f08c379a0000000000000000000000000000000000000000000000000000000008152600401610abc90614f8e565b60405180910390fd5b604051602001610ad490614d41565b60405160208183030381529060405280519060200120600960008581526020019081526020016000206000848152602001908152602001600020600201604051602001610b219190614d00565b6040516020818303038152906040528051906020012014610b77576040517f08c379a0000000000000000000000000000000000000000000000000000000008152600401610b6e9061518e565b60405180910390fd5b6040518060400160405280600581526020017f6f776e65640000000000000000000000000000000000000000000000000000008152506009600085815260200190815260200160002060008481526020019081526020016000206002019080519060200190610be7929190613b3a565b50610c043082858560405180602001604052806000815250612500565b505050565b6000806000838152602001908152602001600020600101549050919050565b610c3061257b565b73ffffffffffffffffffffffffffffffffffffffff168573ffffffffffffffffffffffffffffffffffffffff161480610c765750610c7585610c7061257b565b611e4c565b5b610cb5576040517f08c379a0000000000000000000000000000000000000000000000000000000008152600401610cac906150ee565b60405180910390fd5b610cc28585858585612583565b5050505050565b610cd3828261289a565b610cf881600160008581526020019081526020016000206123d590919063ffffffff16565b505050565b610d0782826128c3565b610d2c816001600085815260200190815260200160002061294690919063ffffffff16565b505050565b6000600660009054906101000a900460ff1660ff16905090565b610d53613bc0565b6009600084815260200190815260200160002060008381526020019081526020016000206040518060600160405290816000820160009054906101000a900473ffffffffffffffffffffffffffffffffffffffff1673ffffffffffffffffffffffffffffffffffffffff1673ffffffffffffffffffffffffffffffffffffffff168152602001600182018054610de890615783565b80601f0160208091040260200160405190810160405280929190818152602001828054610e1490615783565b8015610e615780601f10610e3657610100808354040283529160200191610e61565b820191906000526020600020905b815481529060010190602001808311610e4457829003601f168201915b50505050508152602001600282018054610e7a90615783565b80601f0160208091040260200160405190810160405280929190818152602001828054610ea690615783565b8015610ef35780601f10610ec857610100808354040283529160200191610ef3565b820191906000526020600020905b815481529060010190602001808311610ed657829003601f168201915b505050505081525050905092915050565b610f0f82823361247f565b610f4e576040517f08c379a0000000000000000000000000000000000000000000000000000000008152600401610f459061508e565b60405180910390fd5b604051602001610f5d90614d17565b60405160208183030381529060405280519060200120600960008481526020019081526020016000206000838152602001908152602001600020600201604051602001610faa9190614d00565b6040516020818303038152906040528051906020012014611000576040517f08c379a0000000000000000000000000000000000000000000000000000000008152600401610ff79061522e565b60405180910390fd5b6040518060400160405280600681526020017f73746f6c656e00000000000000000000000000000000000000000000000000008152506009600084815260200190815260200160002060008381526020019081526020016000206002019080519060200190611070929190613b3a565b505050565b606081518351146110bb576040517f08c379a00000000000000000000000000000000000000000000000000000000081526004016110b2906151ce565b60405180910390fd5b6000835167ffffffffffffffff8111156110d8576110d7615915565b5b6040519080825280602002602001820160405280156111065781602001602082028036833780820191505090505b50905060005b84518110156111835761115385828151811061112b5761112a6158e6565b5b6020026020010151858381518110611146576111456158e6565b5b602002602001015161071c565b828281518110611166576111656158e6565b5b6020026020010181815250508061117c906157e6565b905061110c565b508091505092915050565b6111bf7f9f2df0fed2c77648de5860a4cc508cd0818c85b8b8a1ab4ceeef8d981c8956a66111ba61257b565b611707565b6111fe576040517f08c379a00000000000000000000000000000000000000000000000000000000081526004016111f59061512e565b60405180910390fd5b60405160200161120d90614d90565b6040516020818303038152906040528051906020012060096000848152602001908152602001600020600083815260200190815260200160002060020160405160200161125a9190614d00565b60405160208183030381529060405280519060200120146112b0576040517f08c379a00000000000000000000000000000000000000000000000000000000081526004016112a79061502e565b60405180910390fd5b6040518060400160405280600481526020017f736f6c64000000000000000000000000000000000000000000000000000000008152506009600084815260200190815260200160002060008381526020019081526020016000206002019080519060200190611320929190613b3a565b505050565b60006113587f9f2df0fed2c77648de5860a4cc508cd0818c85b8b8a1ab4ceeef8d981c8956a661135361257b565b611707565b611397576040517f08c379a000000000000000000000000000000000000000000000000000000000815260040161138e9061512e565b60405180910390fd5b6113b630600660009054906101000a900460ff1660ff16600085612976565b604051806040016040528087878080601f016020809104026020016040519081016040528093929190818152602001838380828437600081840152601f19601f82011690508083019250505050505050815260200185858080601f016020809104026020016040519081016040528093929190818152602001838380828437600081840152601f19601f8201169050808301925050505050505081525060086000600660009054906101000a900460ff1660ff1681526020019081526020016000206000820151816000019080519060200190611494929190613b3a565b5060208201518160010190805190602001906114b1929190613b3a565b509050507f1c001b259495d284b16f44ac0662ad743888a2bf65fe7dc4c654e3a8327a9c63600660009054906101000a900460ff1687878787876040516114fd969594939291906153b4565b60405180910390a16006600081819054906101000a900460ff16809291906115249061582f565b91906101000a81548160ff021916908360ff160217905550506001600660009054906101000a900460ff166115599190615646565b60ff16905095945050505050565b61157282823361247f565b6115b1576040517f08c379a00000000000000000000000000000000000000000000000000000000081526004016115a89061508e565b60405180910390fd5b6040516020016115c090614d17565b6040516020818303038152906040528051906020012060096000848152602001908152602001600020600083815260200190815260200160002060020160405160200161160d9190614d00565b6040516020818303038152906040528051906020012014611663576040517f08c379a000000000000000000000000000000000000000000000000000000000815260040161165a90614f4e565b60405180910390fd5b6040518060400160405280600481526020017f6c6f73740000000000000000000000000000000000000000000000000000000081525060096000848152602001908152602001600020600083815260200190815260200160002060020190805190602001906116d3929190613b3a565b505050565b60006116ff8260016000868152602001908152602001600020612b0d90919063ffffffff16565b905092915050565b600080600084815260200190815260200160002060000160008373ffffffffffffffffffffffffffffffffffffffff1673ffffffffffffffffffffffffffffffffffffffff16815260200190815260200160002060009054906101000a900460ff16905092915050565b61177961257b565b73ffffffffffffffffffffffffffffffffffffffff168573ffffffffffffffffffffffffffffffffffffffff1614806117bf57506117be856117b961257b565b611e4c565b5b6117fe576040517f08c379a00000000000000000000000000000000000000000000000000000000081526004016117f59061504e565b60405180910390fd5b61180b8585858585612500565b5050505050565b6000801b81565b8173ffffffffffffffffffffffffffffffffffffffff1661183861257b565b73ffffffffffffffffffffffffffffffffffffffff16141561188f576040517f08c379a0000000000000000000000000000000000000000000000000000000008152600401611886906151ae565b60405180910390fd5b806003600061189c61257b565b73ffffffffffffffffffffffffffffffffffffffff1673ffffffffffffffffffffffffffffffffffffffff16815260200190815260200160002060008473ffffffffffffffffffffffffffffffffffffffff1673ffffffffffffffffffffffffffffffffffffffff16815260200190815260200160002060006101000a81548160ff0219169083151502179055508173ffffffffffffffffffffffffffffffffffffffff1661194961257b565b73ffffffffffffffffffffffffffffffffffffffff167f17307eab39ab6107e8899845ad3d59bd9653f200f220920489ca2b5937696c318360405161198e9190614edb565b60405180910390a35050565b6119a2613bf7565b600860008381526020019081526020016000206040518060400160405290816000820180546119d090615783565b80601f01602080910402602001604051908101604052809291908181526020018280546119fc90615783565b8015611a495780601f10611a1e57610100808354040283529160200191611a49565b820191906000526020600020905b815481529060010190602001808311611a2c57829003601f168201915b50505050508152602001600182018054611a6290615783565b80601f0160208091040260200160405190810160405280929190818152602001828054611a8e90615783565b8015611adb5780601f10611ab057610100808354040283529160200191611adb565b820191906000526020600020905b815481529060010190602001808311611abe57829003601f168201915b5050505050815250509050919050565b600063bc197c8160e01b905095945050505050565b6000611b337f9f2df0fed2c77648de5860a4cc508cd0818c85b8b8a1ab4ceeef8d981c8956a6611b2e61257b565b611707565b611b72576040517f08c379a0000000000000000000000000000000000000000000000000000000008152600401611b699061512e565b60405180910390fd5b611b7b85612b27565b611bba576040517f08c379a0000000000000000000000000000000000000000000000000000000008152600401611bb19061506e565b60405180910390fd5b611bc73086600185612976565b60405180606001604052803073ffffffffffffffffffffffffffffffffffffffff16815260200185858080601f016020809104026020016040519081016040528093929190818152602001838380828437600081840152601f19601f8201169050808301925050505050505081526020016040518060400160405280600681526020017f6d696e74656400000000000000000000000000000000000000000000000000008152508152506009600087815260200190815260200160002060006007600089815260200190815260200160002054815260200190815260200160002060008201518160000160006101000a81548173ffffffffffffffffffffffffffffffffffffffff021916908373ffffffffffffffffffffffffffffffffffffffff1602179055506020820151816001019080519060200190611d0b929190613b3a565b506040820151816002019080519060200190611d28929190613b3a565b50905050847f5ff47a97796301f38bf23b5ecefbb1b59a05f7a5689a668b98c0821a0e8f3e066007600088815260200190815260200160002054868686604051611d7594939291906152f6565b60405180910390a2600760008681526020019081526020016000206000815480929190611da1906157e6565b919050555060016007600087815260200190815260200160002054611dc69190615612565b9050949350505050565b6000611ded60016000848152602001908152602001600020612b45565b9050919050565b7f9f2df0fed2c77648de5860a4cc508cd0818c85b8b8a1ab4ceeef8d981c8956a681565b611e228282612b5a565b611e47816001600085815260200190815260200160002061294690919063ffffffff16565b505050565b6000600360008473ffffffffffffffffffffffffffffffffffffffff1673ffffffffffffffffffffffffffffffffffffffff16815260200190815260200160002060008373ffffffffffffffffffffffffffffffffffffffff1673ffffffffffffffffffffffffffffffffffffffff16815260200190815260200160002060009054906101000a900460ff16905092915050565b60008073ffffffffffffffffffffffffffffffffffffffff16600660019054906101000a900473ffffffffffffffffffffffffffffffffffffffff1673ffffffffffffffffffffffffffffffffffffffff161415611f73576040517f08c379a0000000000000000000000000000000000000000000000000000000008152600401611f6a9061516e565b60405180910390fd5b611f7f868660006109fd565b611fbe576040517f08c379a0000000000000000000000000000000000000000000000000000000008152600401611fb59061500e565b60405180910390fd5b604051602001611fcd90614d41565b6040516020818303038152906040528051906020012060096000888152602001908152602001600020600087815260200190815260200160002060020160405160200161201a9190614d00565b6040516020818303038152906040528051906020012014612070576040517f08c379a00000000000000000000000000000000000000000000000000000000081526004016120679061518e565b60405180910390fd5b600660019054906101000a900473ffffffffffffffffffffffffffffffffffffffff1673ffffffffffffffffffffffffffffffffffffffff16639fe8660f87878787876040518663ffffffff1660e01b81526004016120d3959493929190615366565b602060405180830381600087803b1580156120ed57600080fd5b505af1158015612101573d6000803e3d6000fd5b505050506040513d601f19601f8201168201806040525081019061212591906141bb565b905095945050505050565b600063f23a6e6160e01b905095945050505050565b61214d61257b565b73ffffffffffffffffffffffffffffffffffffffff168573ffffffffffffffffffffffffffffffffffffffff16148061219357506121928561218d61257b565b611e4c565b5b6121d2576040517f08c379a00000000000000000000000000000000000000000000000000000000081526004016121c99061504e565b60405180910390fd5b6121df8585858585612b83565b5050505050565b600660019054906101000a900473ffffffffffffffffffffffffffffffffffffffff1673ffffffffffffffffffffffffffffffffffffffff163373ffffffffffffffffffffffffffffffffffffffff1614612276576040517f08c379a000000000000000000000000000000000000000000000000000000000815260040161226d906150ae565b60405180910390fd5b81600a6000868152602001908152602001600020600085815260200190815260200160002060006101000a81548173ffffffffffffffffffffffffffffffffffffffff021916908373ffffffffffffffffffffffffffffffffffffffff1602179055508173ffffffffffffffffffffffffffffffffffffffff16847f408b354a5a743483dc98fde82fba59cd10f8174901861cf5dabe1d2850ac374b85846040516123229291906152cd565b60405180910390a350505050565b6123446000801b61233f61257b565b611707565b612383576040517f08c379a000000000000000000000000000000000000000000000000000000000815260040161237a9061512e565b60405180910390fd5b80600660016101000a81548173ffffffffffffffffffffffffffffffffffffffff021916908373ffffffffffffffffffffffffffffffffffffffff16021790555050565b6123d18282612e08565b5050565b60006123fd836000018373ffffffffffffffffffffffffffffffffffffffff1660001b612ee8565b905092915050565b60007f4e2312e0000000000000000000000000000000000000000000000000000000007bffffffffffffffffffffffffffffffffffffffffffffffffffffffff1916827bffffffffffffffffffffffffffffffffffffffffffffffffffffffff19161480612478575061247782612f58565b5b9050919050565b60008173ffffffffffffffffffffffffffffffffffffffff1660096000868152602001908152602001600020600085815260200190815260200160002060000160009054906101000a900473ffffffffffffffffffffffffffffffffffffffff1673ffffffffffffffffffffffffffffffffffffffff161490509392505050565b8360096000858152602001908152602001600020600084815260200190815260200160002060000160006101000a81548173ffffffffffffffffffffffffffffffffffffffff021916908373ffffffffffffffffffffffffffffffffffffffff160217905550612574858585600185612b83565b5050505050565b600033905090565b81518351146125c7576040517f08c379a00000000000000000000000000000000000000000000000000000000081526004016125be906151ee565b60405180910390fd5b600073ffffffffffffffffffffffffffffffffffffffff168473ffffffffffffffffffffffffffffffffffffffff161415612637576040517f08c379a000000000000000000000000000000000000000000000000000000000815260040161262e906150ce565b60405180910390fd5b600061264161257b565b9050612651818787878787612f6a565b60005b8451811015612805576000858281518110612672576126716158e6565b5b602002602001015190506000858381518110612691576126906158e6565b5b6020026020010151905060006002600084815260200190815260200160002060008b73ffffffffffffffffffffffffffffffffffffffff1673ffffffffffffffffffffffffffffffffffffffff16815260200190815260200160002054905081811015612733576040517f08c379a000000000000000000000000000000000000000000000000000000000815260040161272a9061514e565b60405180910390fd5b8181036002600085815260200190815260200160002060008c73ffffffffffffffffffffffffffffffffffffffff1673ffffffffffffffffffffffffffffffffffffffff16815260200190815260200160002081905550816002600085815260200190815260200160002060008b73ffffffffffffffffffffffffffffffffffffffff1673ffffffffffffffffffffffffffffffffffffffff16815260200190815260200160002060008282546127ea9190615562565b92505081905550505050806127fe906157e6565b9050612654565b508473ffffffffffffffffffffffffffffffffffffffff168673ffffffffffffffffffffffffffffffffffffffff168273ffffffffffffffffffffffffffffffffffffffff167f4a39dc06d4c0dbc64b70af90fd698a233a518aa5d07e595d983b8c0526c8f7fb878760405161287c929190614ea4565b60405180910390a4612892818787878787612f72565b505050505050565b6128a382610c09565b6128b4816128af61257b565b613159565b6128be8383612e08565b505050565b6128cb61257b565b73ffffffffffffffffffffffffffffffffffffffff168173ffffffffffffffffffffffffffffffffffffffff1614612938576040517f08c379a000000000000000000000000000000000000000000000000000000000815260040161292f9061524e565b60405180910390fd5b61294282826131f6565b5050565b600061296e836000018373ffffffffffffffffffffffffffffffffffffffff1660001b6132d7565b905092915050565b600073ffffffffffffffffffffffffffffffffffffffff168473ffffffffffffffffffffffffffffffffffffffff1614156129e6576040517f08c379a00000000000000000000000000000000000000000000000000000000081526004016129dd9061520e565b60405180910390fd5b60006129f061257b565b9050612a1181600087612a02886133eb565b612a0b886133eb565b87612f6a565b826002600086815260200190815260200160002060008773ffffffffffffffffffffffffffffffffffffffff1673ffffffffffffffffffffffffffffffffffffffff1681526020019081526020016000206000828254612a719190615562565b925050819055508473ffffffffffffffffffffffffffffffffffffffff16600073ffffffffffffffffffffffffffffffffffffffff168273ffffffffffffffffffffffffffffffffffffffff167fc3d58168c5ae7397731d063d5bbf3d657854427343f4c083240f7aacaa2d0f628787604051612aef92919061533d565b60405180910390a4612b0681600087878787613465565b5050505050565b6000612b1c836000018361364c565b60001c905092915050565b6000600660009054906101000a900460ff1660ff1682109050919050565b6000612b5382600001613677565b9050919050565b612b6382610c09565b612b7481612b6f61257b565b613159565b612b7e83836131f6565b505050565b600073ffffffffffffffffffffffffffffffffffffffff168473ffffffffffffffffffffffffffffffffffffffff161415612bf3576040517f08c379a0000000000000000000000000000000000000000000000000000000008152600401612bea906150ce565b60405180910390fd5b6000612bfd61257b565b9050612c1d818787612c0e886133eb565b612c17886133eb565b87612f6a565b60006002600086815260200190815260200160002060008873ffffffffffffffffffffffffffffffffffffffff1673ffffffffffffffffffffffffffffffffffffffff16815260200190815260200160002054905083811015612cb5576040517f08c379a0000000000000000000000000000000000000000000000000000000008152600401612cac9061514e565b60405180910390fd5b8381036002600087815260200190815260200160002060008973ffffffffffffffffffffffffffffffffffffffff1673ffffffffffffffffffffffffffffffffffffffff16815260200190815260200160002081905550836002600087815260200190815260200160002060008873ffffffffffffffffffffffffffffffffffffffff1673ffffffffffffffffffffffffffffffffffffffff1681526020019081526020016000206000828254612d6c9190615562565b925050819055508573ffffffffffffffffffffffffffffffffffffffff168773ffffffffffffffffffffffffffffffffffffffff168373ffffffffffffffffffffffffffffffffffffffff167fc3d58168c5ae7397731d063d5bbf3d657854427343f4c083240f7aacaa2d0f628888604051612de992919061533d565b60405180910390a4612dff828888888888613465565b50505050505050565b612e128282611707565b612ee457600160008084815260200190815260200160002060000160008373ffffffffffffffffffffffffffffffffffffffff1673ffffffffffffffffffffffffffffffffffffffff16815260200190815260200160002060006101000a81548160ff021916908315150217905550612e8961257b565b73ffffffffffffffffffffffffffffffffffffffff168173ffffffffffffffffffffffffffffffffffffffff16837f2f8788117e7eff1d82e926ec794901d17c78024a50270940304540a733656f0d60405160405180910390a45b5050565b6000612ef48383613688565b612f4d578260000182908060018154018082558091505060019003906000526020600020016000909190919091505582600001805490508360010160008481526020019081526020016000208190555060019050612f52565b600090505b92915050565b6000612f63826136ab565b9050919050565b505050505050565b612f918473ffffffffffffffffffffffffffffffffffffffff1661378d565b15613151578373ffffffffffffffffffffffffffffffffffffffff1663bc197c8187878686866040518663ffffffff1660e01b8152600401612fd7959493929190614dc0565b602060405180830381600087803b158015612ff157600080fd5b505af192505050801561302257506040513d601f19601f8201168201806040525081019061301f9190614295565b60015b6130c85761302e615944565b806308c379a0141561308b57506130436161b7565b8061304e575061308d565b806040517f08c379a00000000000000000000000000000000000000000000000000000000081526004016130829190614f2c565b60405180910390fd5b505b6040517f08c379a00000000000000000000000000000000000000000000000000000000081526004016130bf90614f6e565b60405180910390fd5b63bc197c8160e01b7bffffffffffffffffffffffffffffffffffffffffffffffffffffffff1916817bffffffffffffffffffffffffffffffffffffffffffffffffffffffff19161461314f576040517f08c379a000000000000000000000000000000000000000000000000000000000815260040161314690614fce565b60405180910390fd5b505b505050505050565b6131638282611707565b6131f2576131888173ffffffffffffffffffffffffffffffffffffffff1660146137a0565b6131968360001c60206137a0565b6040516020016131a7929190614d56565b6040516020818303038152906040526040517f08c379a00000000000000000000000000000000000000000000000000000000081526004016131e99190614f2c565b60405180910390fd5b5050565b6132008282611707565b156132d357600080600084815260200190815260200160002060000160008373ffffffffffffffffffffffffffffffffffffffff1673ffffffffffffffffffffffffffffffffffffffff16815260200190815260200160002060006101000a81548160ff02191690831515021790555061327861257b565b73ffffffffffffffffffffffffffffffffffffffff168173ffffffffffffffffffffffffffffffffffffffff16837ff6391f5c32d9c69d2a47ea670b442974b53935d1edc7fd64eb21e047a839171b60405160405180910390a45b5050565b600080836001016000848152602001908152602001600020549050600081146133df5760006001826133099190615612565b90506000600186600001805490506133219190615612565b9050818114613390576000866000018281548110613342576133416158e6565b5b9060005260206000200154905080876000018481548110613366576133656158e6565b5b90600052602060002001819055508387600101600083815260200190815260200160002081905550505b856000018054806133a4576133a36158b7565b5b6001900381819060005260206000200160009055905585600101600086815260200190815260200160002060009055600193505050506133e5565b60009150505b92915050565b60606000600167ffffffffffffffff81111561340a57613409615915565b5b6040519080825280602002602001820160405280156134385781602001602082028036833780820191505090505b50905082816000815181106134505761344f6158e6565b5b60200260200101818152505080915050919050565b6134848473ffffffffffffffffffffffffffffffffffffffff1661378d565b15613644578373ffffffffffffffffffffffffffffffffffffffff1663f23a6e6187878686866040518663ffffffff1660e01b81526004016134ca959493929190614e28565b602060405180830381600087803b1580156134e457600080fd5b505af192505050801561351557506040513d601f19601f820116820180604052508101906135129190614295565b60015b6135bb57613521615944565b806308c379a0141561357e57506135366161b7565b806135415750613580565b806040517f08c379a00000000000000000000000000000000000000000000000000000000081526004016135759190614f2c565b60405180910390fd5b505b6040517f08c379a00000000000000000000000000000000000000000000000000000000081526004016135b290614f6e565b60405180910390fd5b63f23a6e6160e01b7bffffffffffffffffffffffffffffffffffffffffffffffffffffffff1916817bffffffffffffffffffffffffffffffffffffffffffffffffffffffff191614613642576040517f08c379a000000000000000000000000000000000000000000000000000000000815260040161363990614fce565b60405180910390fd5b505b505050505050565b6000826000018281548110613664576136636158e6565b5b9060005260206000200154905092915050565b600081600001805490509050919050565b600080836001016000848152602001908152602001600020541415905092915050565b60007fd9b67a26000000000000000000000000000000000000000000000000000000007bffffffffffffffffffffffffffffffffffffffffffffffffffffffff1916827bffffffffffffffffffffffffffffffffffffffffffffffffffffffff1916148061377657507f0e89341c000000000000000000000000000000000000000000000000000000007bffffffffffffffffffffffffffffffffffffffffffffffffffffffff1916827bffffffffffffffffffffffffffffffffffffffffffffffffffffffff1916145b806137865750613785826139dc565b5b9050919050565b600080823b905060008111915050919050565b6060600060028360026137b391906155b8565b6137bd9190615562565b67ffffffffffffffff8111156137d6576137d5615915565b5b6040519080825280601f01601f1916602001820160405280156138085781602001600182028036833780820191505090505b5090507f3000000000000000000000000000000000000000000000000000000000000000816000815181106138405761383f6158e6565b5b60200101907effffffffffffffffffffffffffffffffffffffffffffffffffffffffffffff1916908160001a9053507f7800000000000000000000000000000000000000000000000000000000000000816001815181106138a4576138a36158e6565b5b60200101907effffffffffffffffffffffffffffffffffffffffffffffffffffffffffffff1916908160001a905350600060018460026138e491906155b8565b6138ee9190615562565b90505b600181111561398e577f3031323334353637383961626364656600000000000000000000000000000000600f8616601081106139305761392f6158e6565b5b1a60f81b828281518110613947576139466158e6565b5b60200101907effffffffffffffffffffffffffffffffffffffffffffffffffffffffffffff1916908160001a905350600485901c94508061398790615759565b90506138f1565b50600084146139d2576040517f08c379a00000000000000000000000000000000000000000000000000000000081526004016139c990614fae565b60405180910390fd5b8091505092915050565b60007f5a05180f000000000000000000000000000000000000000000000000000000007bffffffffffffffffffffffffffffffffffffffffffffffffffffffff1916827bffffffffffffffffffffffffffffffffffffffffffffffffffffffff19161480613a4f5750613a4e82613a56565b5b9050919050565b60007f7965db0b000000000000000000000000000000000000000000000000000000007bffffffffffffffffffffffffffffffffffffffffffffffffffffffff1916827bffffffffffffffffffffffffffffffffffffffffffffffffffffffff19161480613ac95750613ac882613ad0565b5b9050919050565b60007f01ffc9a7000000000000000000000000000000000000000000000000000000007bffffffffffffffffffffffffffffffffffffffffffffffffffffffff1916827bffffffffffffffffffffffffffffffffffffffffffffffffffffffff1916149050919050565b828054613b4690615783565b90600052602060002090601f016020900481019282613b685760008555613baf565b82601f10613b8157805160ff1916838001178555613baf565b82800160010185558215613baf579182015b82811115613bae578251825591602001919060010190613b93565b5b509050613bbc9190613c11565b5090565b6040518060600160405280600073ffffffffffffffffffffffffffffffffffffffff16815260200160608152602001606081525090565b604051806040016040528060608152602001606081525090565b5b80821115613c2a576000816000905550600101613c12565b5090565b6000613c41613c3c84615437565b615412565b90508083825260208201905082856020860282011115613c6457613c63615970565b5b60005b85811015613c945781613c7a8882613d50565b845260208401935060208301925050600181019050613c67565b5050509392505050565b6000613cb1613cac84615463565b615412565b90508083825260208201905082856020860282011115613cd457613cd3615970565b5b60005b85811015613d045781613cea8882613eae565b845260208401935060208301925050600181019050613cd7565b5050509392505050565b6000613d21613d1c8461548f565b615412565b905082815260208101848484011115613d3d57613d3c615975565b5b613d48848285615717565b509392505050565b600081359050613d5f8161624d565b92915050565b600082601f830112613d7a57613d7961596b565b5b8135613d8a848260208601613c2e565b91505092915050565b600082601f830112613da857613da761596b565b5b8135613db8848260208601613c9e565b91505092915050565b600081359050613dd081616264565b92915050565b600081359050613de58161627b565b92915050565b600081519050613dfa8161627b565b92915050565b600081359050613e0f81616292565b92915050565b600081519050613e2481616292565b92915050565b600082601f830112613e3f57613e3e61596b565b5b8135613e4f848260208601613d0e565b91505092915050565b60008083601f840112613e6e57613e6d61596b565b5b8235905067ffffffffffffffff811115613e8b57613e8a615966565b5b602083019150836001820283011115613ea757613ea6615970565b5b9250929050565b600081359050613ebd816162a9565b92915050565b600060208284031215613ed957613ed861597f565b5b6000613ee784828501613d50565b91505092915050565b60008060408385031215613f0757613f0661597f565b5b6000613f1585828601613d50565b9250506020613f2685828601613d50565b9150509250929050565b600080600080600060a08688031215613f4c57613f4b61597f565b5b6000613f5a88828901613d50565b9550506020613f6b88828901613d50565b945050604086013567ffffffffffffffff811115613f8c57613f8b61597a565b5b613f9888828901613d93565b935050606086013567ffffffffffffffff811115613fb957613fb861597a565b5b613fc588828901613d93565b925050608086013567ffffffffffffffff811115613fe657613fe561597a565b5b613ff288828901613e2a565b9150509295509295909350565b600080600080600060a0868803121561401b5761401a61597f565b5b600061402988828901613d50565b955050602061403a88828901613d50565b945050604061404b88828901613eae565b935050606061405c88828901613eae565b925050608086013567ffffffffffffffff81111561407d5761407c61597a565b5b61408988828901613e2a565b9150509295509295909350565b600080604083850312156140ad576140ac61597f565b5b60006140bb85828601613d50565b92505060206140cc85828601613dc1565b9150509250929050565b600080604083850312156140ed576140ec61597f565b5b60006140fb85828601613d50565b925050602061410c85828601613eae565b9150509250929050565b6000806040838503121561412d5761412c61597f565b5b600083013567ffffffffffffffff81111561414b5761414a61597a565b5b61415785828601613d65565b925050602083013567ffffffffffffffff8111156141785761417761597a565b5b61418485828601613d93565b9150509250929050565b6000602082840312156141a4576141a361597f565b5b60006141b284828501613dd6565b91505092915050565b6000602082840312156141d1576141d061597f565b5b60006141df84828501613deb565b91505092915050565b600080604083850312156141ff576141fe61597f565b5b600061420d85828601613dd6565b925050602061421e85828601613d50565b9150509250929050565b6000806040838503121561423f5761423e61597f565b5b600061424d85828601613dd6565b925050602061425e85828601613eae565b9150509250929050565b60006020828403121561427e5761427d61597f565b5b600061428c84828501613e00565b91505092915050565b6000602082840312156142ab576142aa61597f565b5b60006142b984828501613e15565b91505092915050565b6000806000806000606086880312156142de576142dd61597f565b5b600086013567ffffffffffffffff8111156142fc576142fb61597a565b5b61430888828901613e58565b9550955050602086013567ffffffffffffffff81111561432b5761432a61597a565b5b61433788828901613e58565b9350935050604086013567ffffffffffffffff81111561435a5761435961597a565b5b61436688828901613e2a565b9150509295509295909350565b6000602082840312156143895761438861597f565b5b600061439784828501613eae565b91505092915050565b600080600080606085870312156143ba576143b961597f565b5b60006143c887828801613eae565b945050602085013567ffffffffffffffff8111156143e9576143e861597a565b5b6143f587828801613e58565b9350935050604085013567ffffffffffffffff8111156144185761441761597a565b5b61442487828801613e2a565b91505092959194509250565b600080604083850312156144475761444661597f565b5b600061445585828601613eae565b925050602061446685828601613eae565b9150509250929050565b6000806000606084860312156144895761448861597f565b5b600061449786828701613eae565b93505060206144a886828701613eae565b92505060406144b986828701613d50565b9150509250925092565b600080600080608085870312156144dd576144dc61597f565b5b60006144eb87828801613eae565b94505060206144fc87828801613eae565b935050604061450d87828801613d50565b925050606061451e87828801613dc1565b91505092959194509250565b6000806000806000608086880312156145465761454561597f565b5b600061455488828901613eae565b955050602061456588828901613eae565b945050604061457688828901613d50565b935050606086013567ffffffffffffffff8111156145975761459661597a565b5b6145a388828901613e58565b92509250509295509295909350565b60006145be8383614cd3565b60208301905092915050565b6145d38161567a565b82525050565b6145e28161567a565b82525050565b60006145f3826154e5565b6145fd8185615513565b9350614608836154c0565b8060005b8381101561463957815161462088826145b2565b975061462b83615506565b92505060018101905061460c565b5085935050505092915050565b61464f8161568c565b82525050565b61465e81615698565b82525050565b61466d816156a2565b82525050565b600061467e826154f0565b6146888185615524565b9350614698818560208601615726565b6146a181615984565b840191505092915050565b60006146b88385615546565b93506146c5838584615717565b6146ce83615984565b840190509392505050565b60006146e4826154fb565b6146ee8185615535565b93506146fe818560208601615726565b61470781615984565b840191505092915050565b600061471d826154fb565b6147278185615546565b9350614737818560208601615726565b61474081615984565b840191505092915050565b6000614756826154fb565b6147608185615557565b9350614770818560208601615726565b80840191505092915050565b6000815461478981615783565b6147938186615557565b945060018216600081146147ae57600181146147bf576147f2565b60ff198316865281860193506147f2565b6147c8856154d0565b60005b838110156147ea578154818901526001820191506020810190506147cb565b838801955050505b50505092915050565b6000614808602f83615546565b9150614813826159a2565b604082019050919050565b600061482b603483615546565b9150614836826159f1565b604082019050919050565b600061484e602583615546565b915061485982615a40565b604082019050919050565b6000614871602083615546565b915061487c82615a8f565b602082019050919050565b6000614894602883615546565b915061489f82615ab8565b604082019050919050565b60006148b7602b83615546565b91506148c282615b07565b604082019050919050565b60006148da601e83615546565b91506148e582615b56565b602082019050919050565b60006148fd602f83615546565b915061490882615b7f565b604082019050919050565b6000614920602983615546565b915061492b82615bce565b604082019050919050565b6000614943601783615546565b915061494e82615c1d565b602082019050919050565b6000614966603e83615546565b915061497182615c46565b604082019050919050565b6000614989600583615557565b915061499482615c95565b600582019050919050565b60006149ac602f83615546565b91506149b782615cbe565b604082019050919050565b60006149cf602583615546565b91506149da82615d0d565b604082019050919050565b60006149f2603283615546565b91506149fd82615d5c565b604082019050919050565b6000614a15600483615557565b9150614a2082615dab565b600482019050919050565b6000614a38603083615546565b9150614a4382615dd4565b604082019050919050565b6000614a5b603883615546565b9150614a6682615e23565b604082019050919050565b6000614a7e602a83615546565b9150614a8982615e72565b604082019050919050565b6000614aa1600483615557565b9150614aac82615ec1565b600482019050919050565b6000614ac4603983615546565b9150614acf82615eea565b604082019050919050565b6000614ae7601b83615546565b9150614af282615f39565b602082019050919050565b6000614b0a601783615557565b9150614b1582615f62565b601782019050919050565b6000614b2d602983615546565b9150614b3882615f8b565b604082019050919050565b6000614b50602983615546565b9150614b5b82615fda565b604082019050919050565b6000614b73600683615557565b9150614b7e82616029565b600682019050919050565b6000614b96602883615546565b9150614ba182616052565b604082019050919050565b6000614bb9602183615546565b9150614bc4826160a1565b604082019050919050565b6000614bdc603183615546565b9150614be7826160f0565b604082019050919050565b6000614bff601183615557565b9150614c0a8261613f565b601182019050919050565b6000614c22602f83615546565b9150614c2d82616168565b604082019050919050565b60006040830160008301518482036000860152614c5582826146d9565b91505060208301518482036020860152614c6f82826146d9565b9150508091505092915050565b6000606083016000830151614c9460008601826145ca565b5060208301518482036020860152614cac82826146d9565b91505060408301518482036040860152614cc682826146d9565b9150508091505092915050565b614cdc816156ee565b82525050565b614ceb816156ee565b82525050565b614cfa81615705565b82525050565b6000614d0c828461477c565b915081905092915050565b6000614d228261497c565b9150819050919050565b6000614d3782614a08565b9150819050919050565b6000614d4c82614a94565b9150819050919050565b6000614d6182614afd565b9150614d6d828561474b565b9150614d7882614bf2565b9150614d84828461474b565b91508190509392505050565b6000614d9b82614b66565b9150819050919050565b6000602082019050614dba60008301846145d9565b92915050565b600060a082019050614dd560008301886145d9565b614de260208301876145d9565b8181036040830152614df481866145e8565b90508181036060830152614e0881856145e8565b90508181036080830152614e1c8184614673565b90509695505050505050565b600060a082019050614e3d60008301886145d9565b614e4a60208301876145d9565b614e576040830186614ce2565b614e646060830185614ce2565b8181036080830152614e768184614673565b90509695505050505050565b60006020820190508181036000830152614e9c81846145e8565b905092915050565b60006040820190508181036000830152614ebe81856145e8565b90508181036020830152614ed281846145e8565b90509392505050565b6000602082019050614ef06000830184614646565b92915050565b6000602082019050614f0b6000830184614655565b92915050565b6000602082019050614f266000830184614664565b92915050565b60006020820190508181036000830152614f468184614712565b905092915050565b60006020820190508181036000830152614f67816147fb565b9050919050565b60006020820190508181036000830152614f878161481e565b9050919050565b60006020820190508181036000830152614fa781614841565b9050919050565b60006020820190508181036000830152614fc781614864565b9050919050565b60006020820190508181036000830152614fe781614887565b9050919050565b60006020820190508181036000830152615007816148aa565b9050919050565b60006020820190508181036000830152615027816148cd565b9050919050565b60006020820190508181036000830152615047816148f0565b9050919050565b6000602082019050818103600083015261506781614913565b9050919050565b6000602082019050818103600083015261508781614936565b9050919050565b600060208201905081810360008301526150a781614959565b9050919050565b600060208201905081810360008301526150c78161499f565b9050919050565b600060208201905081810360008301526150e7816149c2565b9050919050565b60006020820190508181036000830152615107816149e5565b9050919050565b6000602082019050818103600083015261512781614a2b565b9050919050565b6000602082019050818103600083015261514781614a4e565b9050919050565b6000602082019050818103600083015261516781614a71565b9050919050565b6000602082019050818103600083015261518781614ab7565b9050919050565b600060208201905081810360008301526151a781614ada565b9050919050565b600060208201905081810360008301526151c781614b20565b9050919050565b600060208201905081810360008301526151e781614b43565b9050919050565b6000602082019050818103600083015261520781614b89565b9050919050565b6000602082019050818103600083015261522781614bac565b9050919050565b6000602082019050818103600083015261524781614bcf565b9050919050565b6000602082019050818103600083015261526781614c15565b9050919050565b600060208201905081810360008301526152888184614c38565b905092915050565b600060208201905081810360008301526152aa8184614c7c565b905092915050565b60006020820190506152c76000830184614ce2565b92915050565b60006040820190506152e26000830185614ce2565b6152ef6020830184614646565b9392505050565b600060608201905061530b6000830187614ce2565b818103602083015261531e8185876146ac565b905081810360408301526153328184614673565b905095945050505050565b60006040820190506153526000830185614ce2565b61535f6020830184614ce2565b9392505050565b600060808201905061537b6000830188614ce2565b6153886020830187614ce2565b61539560408301866145d9565b81810360608301526153a88184866146ac565b90509695505050505050565b60006080820190506153c96000830189614cf1565b81810360208301526153dc8187896146ac565b905081810360408301526153f18185876146ac565b905081810360608301526154058184614673565b9050979650505050505050565b600061541c61542d565b905061542882826157b5565b919050565b6000604051905090565b600067ffffffffffffffff82111561545257615451615915565b5b602082029050602081019050919050565b600067ffffffffffffffff82111561547e5761547d615915565b5b602082029050602081019050919050565b600067ffffffffffffffff8211156154aa576154a9615915565b5b6154b382615984565b9050602081019050919050565b6000819050602082019050919050565b60008190508160005260206000209050919050565b600081519050919050565b600081519050919050565b600081519050919050565b6000602082019050919050565b600082825260208201905092915050565b600082825260208201905092915050565b600082825260208201905092915050565b600082825260208201905092915050565b600081905092915050565b600061556d826156ee565b9150615578836156ee565b9250827fffffffffffffffffffffffffffffffffffffffffffffffffffffffffffffffff038211156155ad576155ac615859565b5b828201905092915050565b60006155c3826156ee565b91506155ce836156ee565b9250817fffffffffffffffffffffffffffffffffffffffffffffffffffffffffffffffff048311821515161561560757615606615859565b5b828202905092915050565b600061561d826156ee565b9150615628836156ee565b92508282101561563b5761563a615859565b5b828203905092915050565b6000615651826156f8565b915061565c836156f8565b92508282101561566f5761566e615859565b5b828203905092915050565b6000615685826156ce565b9050919050565b60008115159050919050565b6000819050919050565b60007fffffffff0000000000000000000000000000000000000000000000000000000082169050919050565b600073ffffffffffffffffffffffffffffffffffffffff82169050919050565b6000819050919050565b600060ff82169050919050565b6000615710826156f8565b9050919050565b82818337600083830152505050565b60005b83811015615744578082015181840152602081019050615729565b83811115615753576000848401525b50505050565b6000615764826156ee565b9150600082141561577857615777615859565b5b600182039050919050565b6000600282049050600182168061579b57607f821691505b602082108114156157af576157ae615888565b5b50919050565b6157be82615984565b810181811067ffffffffffffffff821117156157dd576157dc615915565b5b80604052505050565b60006157f1826156ee565b91507fffffffffffffffffffffffffffffffffffffffffffffffffffffffffffffffff82141561582457615823615859565b5b600182019050919050565b600061583a826156f8565b915060ff82141561584e5761584d615859565b5b600182019050919050565b7f4e487b7100000000000000000000000000000000000000000000000000000000600052601160045260246000fd5b7f4e487b7100000000000000000000000000000000000000000000000000000000600052602260045260246000fd5b7f4e487b7100000000000000000000000000000000000000000000000000000000600052603160045260246000fd5b7f4e487b7100000000000000000000000000000000000000000000000000000000600052603260045260246000fd5b7f4e487b7100000000000000000000000000000000000000000000000000000000600052604160045260246000fd5b600060033d11156159635760046000803e615960600051615995565b90505b90565b600080fd5b600080fd5b600080fd5b600080fd5b600080fd5b600080fd5b6000601f19601f8301169050919050565b60008160e01c9050919050565b7f54686520737461747573206f66207468697320746f6b656e2063616e2774206260008201527f652073657420617320276c6f7374270000000000000000000000000000000000602082015250565b7f455243313135353a207472616e7366657220746f206e6f6e204552433131353560008201527f526563656976657220696d706c656d656e746572000000000000000000000000602082015250565b7f546865206164647265737320646f6e2774206861766520746865207065726d6960008201527f7373696f6e000000000000000000000000000000000000000000000000000000602082015250565b7f537472696e67733a20686578206c656e67746820696e73756666696369656e74600082015250565b7f455243313135353a204552433131353552656365697665722072656a6563746560008201527f6420746f6b656e73000000000000000000000000000000000000000000000000602082015250565b7f455243313135353a2062616c616e636520717565727920666f7220746865207a60008201527f65726f2061646472657373000000000000000000000000000000000000000000602082015250565b7f546865207065726d697373696f6e20697320616c726561647920676176650000600082015250565b7f54686520737461747573206f66207468697320746f6b656e2063616e2774206260008201527f65207365742061732027736f6c64270000000000000000000000000000000000602082015250565b7f455243313135353a2063616c6c6572206973206e6f74206f776e6572206e6f7260008201527f20617070726f7665640000000000000000000000000000000000000000000000602082015250565b7f54686520746f6b656e20646f206e6f7420657869737473000000000000000000600082015250565b7f596f7520646f6e2774206861766520746865207065726d697373696f6e20746f60008201527f20656469742074686520737461747573206f66207468697320746f6b656e0000602082015250565b7f6f776e6564000000000000000000000000000000000000000000000000000000600082015250565b7f596f7520646f6e2774206861766520746865207065726d697373696f6e20746f60008201527f2067697665206f776e6572736869700000000000000000000000000000000000602082015250565b7f455243313135353a207472616e7366657220746f20746865207a65726f20616460008201527f6472657373000000000000000000000000000000000000000000000000000000602082015250565b7f455243313135353a207472616e736665722063616c6c6572206973206e6f742060008201527f6f776e6572206e6f7220617070726f7665640000000000000000000000000000602082015250565b7f6c6f737400000000000000000000000000000000000000000000000000000000600082015250565b7f54686520737461747573206f66207468697320746f6b656e2063616e2774206260008201527f652073657420617320276f776e65642700000000000000000000000000000000602082015250565b7f455243313135355072657365744d696e7465725061757365723a206d7573742060008201527f68617665206d696e74657220726f6c6520746f206d696e740000000000000000602082015250565b7f455243313135353a20696e73756666696369656e742062616c616e636520666f60008201527f72207472616e7366657200000000000000000000000000000000000000000000602082015250565b7f736f6c6400000000000000000000000000000000000000000000000000000000600082015250565b7f596f75206e65656420746f20736574757020746865207665726966696361746960008201527f6f6e20636f6e7472616374206164647265737320666972737400000000000000602082015250565b7f5468697320746f6b656e2063616e277420626520636c61696d65640000000000600082015250565b7f416363657373436f6e74726f6c3a206163636f756e7420000000000000000000600082015250565b7f455243313135353a2073657474696e6720617070726f76616c2073746174757360008201527f20666f722073656c660000000000000000000000000000000000000000000000602082015250565b7f455243313135353a206163636f756e747320616e6420696473206c656e67746860008201527f206d69736d617463680000000000000000000000000000000000000000000000602082015250565b7f6d696e7465640000000000000000000000000000000000000000000000000000600082015250565b7f455243313135353a2069647320616e6420616d6f756e7473206c656e6774682060008201527f6d69736d61746368000000000000000000000000000000000000000000000000602082015250565b7f455243313135353a206d696e7420746f20746865207a65726f2061646472657360008201527f7300000000000000000000000000000000000000000000000000000000000000602082015250565b7f54686520737461747573206f66207468697320746f6b656e2063616e2774206260008201527f6520736574206173202773746f6c656e27000000000000000000000000000000602082015250565b7f206973206d697373696e6720726f6c6520000000000000000000000000000000600082015250565b7f416363657373436f6e74726f6c3a2063616e206f6e6c792072656e6f756e636560008201527f20726f6c657320666f722073656c660000000000000000000000000000000000602082015250565b600060443d10156161c75761624a565b6161cf61542d565b60043d036004823e80513d602482011167ffffffffffffffff821117156161f757505061624a565b808201805167ffffffffffffffff811115616215575050505061624a565b80602083010160043d03850181111561623257505050505061624a565b616241826020018501866157b5565b82955050505050505b90565b6162568161567a565b811461626157600080fd5b50565b61626d8161568c565b811461627857600080fd5b50565b61628481615698565b811461628f57600080fd5b50565b61629b816156a2565b81146162a657600080fd5b50565b6162b2816156ee565b81146162bd57600080fd5b5056fea2646970667358221220c9c2e121f33d1dfb79c82491c3f7061307daadeed9b80042f3d859f1421ec15964736f6c63430008070033",
  "immutableReferences": {},
  "source": "pragma solidity ^0.8.7;\r\n\r\nimport \"./interfaces/INFCool.sol\";\r\nimport \"./interfaces/IPhoneVerification.sol\";\r\nimport \"./ERC1155Access.sol\";\r\nimport \"@openzeppelin/contracts/token/ERC1155/utils/ERC1155Holder.sol\";\r\n\r\ncontract NFCool is INFCool, ERC1155Access, ERC1155Holder {\r\n    string brandName;\r\n    uint8 tokensCount;\r\n\r\n    address private _verificationContract;\r\n\r\n    mapping (uint256 => uint256) private _tokenUnitsCount;\r\n    mapping(uint256 => TokenData) private _tokenData;\r\n    mapping(uint256 => mapping(uint256 => TokenUnitData)) private _tokenUnitData;\r\n    mapping(uint256 => mapping(uint256 => address)) private _claimPermissions;\r\n\r\n    constructor(string memory _brandName) ERC1155Access(\"\") {\r\n        brandName = _brandName;\r\n    }\r\n\r\n    function haveClaimPermission(uint256 tokenId, uint256 unitId, address account) public view returns (bool) {\r\n        return account == _claimPermissions[tokenId][unitId];\r\n    }\r\n\r\n//    function allBalancesOf(address account) public view returns (uint256[] memory){\r\n//        uint[] memory amounts = new uint[](tokensCount);\r\n//\r\n//        for (uint i = 0 ; i < tokensCount ; i++) {\r\n//            amounts[i] = balanceOf(account, i);\r\n//        }\r\n//        return amounts;\r\n//    }\r\n\r\n    function getTokensCount() public view virtual override returns (uint256) {\r\n        return tokensCount;\r\n    }\r\n\r\n    function tokenData(uint256 tokenId) public view virtual override returns (TokenData memory) {\r\n        return _tokenData[tokenId];\r\n    }\r\n\r\n    function tokenUnitData(uint256 tokenId, uint256 tokenUnitId) public view virtual override returns (TokenUnitData memory) {\r\n        return _tokenUnitData[tokenId][tokenUnitId];\r\n    }\r\n\r\n    function mintToken(string calldata tokenUri, string calldata tokenName, bytes memory data) external virtual override returns (uint256) {\r\n        require(hasRole(MINTER_ROLE, _msgSender()), \"ERC1155PresetMinterPauser: must have minter role to mint\");\r\n\r\n        _mint(address(this), tokensCount, 0, data);\r\n        _tokenData[tokensCount] = TokenData(tokenUri, tokenName);\r\n\r\n        emit TokenMinted(tokensCount, tokenUri, tokenName, data);\r\n\r\n        tokensCount++;\r\n        return tokensCount - 1;\r\n    }\r\n\r\n    function mintTokenUnit(uint256 tokenId, string calldata nfcId, bytes memory data) external virtual override returns (uint256) {\r\n        require(hasRole(MINTER_ROLE, _msgSender()), \"ERC1155PresetMinterPauser: must have minter role to mint\");\r\n        require(_exists(tokenId), \"The token do not exists\");\r\n\r\n        _mint(address(this), tokenId, 1, data);\r\n        _tokenUnitData[tokenId][_tokenUnitsCount[tokenId]] = TokenUnitData(address(this), nfcId, \"minted\");\r\n\r\n        emit TokenUnitMinted(tokenId, _tokenUnitsCount[tokenId], nfcId, data);\r\n\r\n        _tokenUnitsCount[tokenId]++;\r\n\r\n        return _tokenUnitsCount[tokenId] - 1;\r\n    }\r\n\r\n    function requestPhoneVerification(uint256 tokenId, uint256 unitId, address to, string calldata pin) external virtual override returns (bytes32 requestId) {\r\n        require(_verificationContract != address(0), \"You need to setup the verification contract address first\");\r\n        require(haveClaimPermission(tokenId, unitId, address(0)), \"The permission is already gave\");\r\n        require(keccak256(abi.encodePacked(_tokenUnitData[tokenId][unitId].status)) == keccak256(abi.encodePacked(\"sold\")), \"This token can't be claimed\");\r\n\r\n        return IPhoneVerification(_verificationContract).requestOwnership(tokenId, unitId, to, pin);\r\n    }\r\n\r\n    function ownershipPermission(uint256 tokenId, uint256 unitId, address to, bool valid) external virtual override {\r\n        require(msg.sender == _verificationContract, \"You don't have the permission to give ownership\");\r\n\r\n        _claimPermissions[tokenId][unitId] = to;\r\n\r\n        emit OwnershipPermissionGave(tokenId, unitId, to, valid);\r\n    }\r\n\r\n    function claimOwnership(uint256 tokenId, uint256 unitId, address to) external virtual override {\r\n        require(haveClaimPermission(tokenId, unitId, to), \"The address don't have the permission\");\r\n        require(keccak256(abi.encodePacked(_tokenUnitData[tokenId][unitId].status)) == keccak256(abi.encodePacked(\"sold\")), \"This token can't be claimed\");\r\n\r\n        _tokenUnitData[tokenId][unitId].status = \"owned\";\r\n        _safeUnitTransferFrom(address(this), to, tokenId, unitId, '');\r\n    }\r\n\r\n    function safeUnitTransferFrom(\r\n        address from,\r\n        address to,\r\n        uint256 tokenId,\r\n        uint256 unitId,\r\n        bytes memory data\r\n    ) public virtual override {\r\n        require(\r\n            from == _msgSender() || isApprovedForAll(from, _msgSender()),\r\n            \"ERC1155: caller is not owner nor approved\"\r\n        );\r\n        _safeUnitTransferFrom(from, to, tokenId, unitId, data);\r\n    }\r\n\r\n    function _safeUnitTransferFrom(\r\n        address from,\r\n        address to,\r\n        uint256 tokenId,\r\n        uint256 unitId,\r\n        bytes memory data\r\n    ) internal virtual {\r\n        _tokenUnitData[tokenId][unitId].owner = to;\r\n        _safeTransferFrom(from, to, tokenId, 1, data);\r\n    }\r\n\r\n    function setVerificationContract(address contractAdr) external virtual override {\r\n        require(hasRole(DEFAULT_ADMIN_ROLE, _msgSender()), \"ERC1155PresetMinterPauser: must have minter role to mint\");\r\n        _verificationContract = contractAdr;\r\n    }\r\n\r\n    function unitSold(uint256 tokenId, uint256 unitId) external {\r\n        require(hasRole(MINTER_ROLE, _msgSender()), \"ERC1155PresetMinterPauser: must have minter role to mint\");\r\n        require(keccak256(abi.encodePacked(_tokenUnitData[tokenId][unitId].status)) == keccak256(abi.encodePacked('minted')), \"The status of this token can't be set as 'sold'\");\r\n\r\n        _tokenUnitData[tokenId][unitId].status = \"sold\";\r\n    }\r\n\r\n    function unitStolen(uint256 tokenId, uint256 unitId) external {\r\n        require(_isOwner(tokenId, unitId, msg.sender), \"You don't have the permission to edit the status of this token\");\r\n        require(keccak256(abi.encodePacked(_tokenUnitData[tokenId][unitId].status)) == keccak256(abi.encodePacked('owned')), \"The status of this token can't be set as 'stolen'\");\r\n\r\n        _tokenUnitData[tokenId][unitId].status = \"stolen\";\r\n    }\r\n\r\n    function unitLost(uint256 tokenId, uint256 unitId) external {\r\n        require(_isOwner(tokenId, unitId, msg.sender), \"You don't have the permission to edit the status of this token\");\r\n        require(keccak256(abi.encodePacked(_tokenUnitData[tokenId][unitId].status)) == keccak256(abi.encodePacked('owned')), \"The status of this token can't be set as 'lost'\");\r\n\r\n        _tokenUnitData[tokenId][unitId].status = \"lost\";\r\n    }\r\n\r\n    function unitLostFound(uint256 tokenId, uint256 unitId) external {\r\n        require(_isOwner(tokenId, unitId, msg.sender), \"You don't have the permission to edit the status of this token\");\r\n        require(keccak256(abi.encodePacked(_tokenUnitData[tokenId][unitId].status)) == keccak256(abi.encodePacked('lost')), \"The status of this token can't be set as 'owned'\");\r\n\r\n        _tokenUnitData[tokenId][unitId].status = \"owned\";\r\n    }\r\n\r\n    function supportsInterface(bytes4 interfaceId) public view virtual override(ERC1155Access, ERC1155Receiver) returns (bool) {\r\n        return super.supportsInterface(interfaceId);\r\n    }\r\n\r\n    function _setTokenURI(uint256 tokenId, string memory _tokenURI) internal virtual {\r\n        _tokenData[tokenId].uri = _tokenURI;\r\n    }\r\n\r\n    function _exists(uint256 tokenId) private view returns (bool) {\r\n        return tokenId < tokensCount;\r\n    }\r\n\r\n    function _isOwner(uint256 tokenId, uint256 unitId, address account) private view returns (bool) {\r\n        return _tokenUnitData[tokenId][unitId].owner == account;\r\n    }\r\n}\r\n",
  "sourcePath": "C:\\Users\\smlvi\\WebstormProjects\\nfcool-smart-contracts\\contracts\\NFCool.sol",
  "compiler": {
    "name": "solc",
    "version": "0.8.7+commit.e28d00a7.Emscripten.clang"
  },
  "schemaVersion": "3.4.3",
  "updatedAt": "2021-11-24T13:16:37.948Z",
  "devdoc": {
    "kind": "dev",
    "methods": {
      "balanceOf(address,uint256)": {
        "details": "See {IERC1155-balanceOf}. Requirements: - `account` cannot be the zero address."
      },
      "balanceOfBatch(address[],uint256[])": {
        "details": "See {IERC1155-balanceOfBatch}. Requirements: - `accounts` and `ids` must have the same length."
      },
      "getRoleAdmin(bytes32)": {
        "details": "Returns the admin role that controls `role`. See {grantRole} and {revokeRole}. To change a role's admin, use {_setRoleAdmin}."
      },
      "getRoleMember(bytes32,uint256)": {
        "details": "Returns one of the accounts that have `role`. `index` must be a value between 0 and {getRoleMemberCount}, non-inclusive. Role bearers are not sorted in any particular way, and their ordering may change at any point. WARNING: When using {getRoleMember} and {getRoleMemberCount}, make sure you perform all queries on the same block. See the following https://forum.openzeppelin.com/t/iterating-over-elements-on-enumerableset-in-openzeppelin-contracts/2296[forum post] for more information."
      },
      "getRoleMemberCount(bytes32)": {
        "details": "Returns the number of accounts that have `role`. Can be used together with {getRoleMember} to enumerate all bearers of a role."
      },
      "grantRole(bytes32,address)": {
        "details": "Overload {grantRole} to track enumerable memberships"
      },
      "hasRole(bytes32,address)": {
        "details": "Returns `true` if `account` has been granted `role`."
      },
      "isApprovedForAll(address,address)": {
        "details": "See {IERC1155-isApprovedForAll}."
      },
      "renounceRole(bytes32,address)": {
        "details": "Overload {renounceRole} to track enumerable memberships"
      },
      "revokeRole(bytes32,address)": {
        "details": "Overload {revokeRole} to track enumerable memberships"
      },
      "safeBatchTransferFrom(address,address,uint256[],uint256[],bytes)": {
        "details": "See {IERC1155-safeBatchTransferFrom}."
      },
      "safeTransferFrom(address,address,uint256,uint256,bytes)": {
        "details": "See {IERC1155-safeTransferFrom}."
      },
      "setApprovalForAll(address,bool)": {
        "details": "See {IERC1155-setApprovalForAll}."
      },
      "uri(uint256)": {
        "details": "See {IERC1155MetadataURI-uri}. This implementation returns the same URI for *all* token types. It relies on the token type ID substitution mechanism https://eips.ethereum.org/EIPS/eip-1155#metadata[defined in the EIP]. Clients calling this function must replace the `\\{id\\}` substring with the actual token type ID."
      }
    },
    "version": 1
  },
  "userdoc": {
    "kind": "user",
    "methods": {},
    "version": 1
  }
}