{
  "contractName": "NFCool",
  "abi": [
    {
      "inputs": [
        {
          "internalType": "string",
          "name": "_brandName",
          "type": "string"
        }
      ],
      "stateMutability": "nonpayable",
      "type": "constructor"
    },
    {
      "anonymous": false,
      "inputs": [
        {
          "indexed": true,
          "internalType": "address",
          "name": "account",
          "type": "address"
        },
        {
          "indexed": true,
          "internalType": "address",
          "name": "operator",
          "type": "address"
        },
        {
          "indexed": false,
          "internalType": "bool",
          "name": "approved",
          "type": "bool"
        }
      ],
      "name": "ApprovalForAll",
      "type": "event"
    },
    {
      "anonymous": false,
      "inputs": [
        {
          "indexed": false,
          "internalType": "address",
          "name": "account",
          "type": "address"
        }
      ],
      "name": "Paused",
      "type": "event"
    },
    {
      "anonymous": false,
      "inputs": [
        {
          "indexed": true,
          "internalType": "bytes32",
          "name": "role",
          "type": "bytes32"
        },
        {
          "indexed": true,
          "internalType": "bytes32",
          "name": "previousAdminRole",
          "type": "bytes32"
        },
        {
          "indexed": true,
          "internalType": "bytes32",
          "name": "newAdminRole",
          "type": "bytes32"
        }
      ],
      "name": "RoleAdminChanged",
      "type": "event"
    },
    {
      "anonymous": false,
      "inputs": [
        {
          "indexed": true,
          "internalType": "bytes32",
          "name": "role",
          "type": "bytes32"
        },
        {
          "indexed": true,
          "internalType": "address",
          "name": "account",
          "type": "address"
        },
        {
          "indexed": true,
          "internalType": "address",
          "name": "sender",
          "type": "address"
        }
      ],
      "name": "RoleGranted",
      "type": "event"
    },
    {
      "anonymous": false,
      "inputs": [
        {
          "indexed": true,
          "internalType": "bytes32",
          "name": "role",
          "type": "bytes32"
        },
        {
          "indexed": true,
          "internalType": "address",
          "name": "account",
          "type": "address"
        },
        {
          "indexed": true,
          "internalType": "address",
          "name": "sender",
          "type": "address"
        }
      ],
      "name": "RoleRevoked",
      "type": "event"
    },
    {
      "anonymous": false,
      "inputs": [
        {
          "indexed": true,
          "internalType": "address",
          "name": "operator",
          "type": "address"
        },
        {
          "indexed": true,
          "internalType": "address",
          "name": "from",
          "type": "address"
        },
        {
          "indexed": true,
          "internalType": "address",
          "name": "to",
          "type": "address"
        },
        {
          "indexed": false,
          "internalType": "uint256[]",
          "name": "ids",
          "type": "uint256[]"
        },
        {
          "indexed": false,
          "internalType": "uint256[]",
          "name": "values",
          "type": "uint256[]"
        }
      ],
      "name": "TransferBatch",
      "type": "event"
    },
    {
      "anonymous": false,
      "inputs": [
        {
          "indexed": true,
          "internalType": "address",
          "name": "operator",
          "type": "address"
        },
        {
          "indexed": true,
          "internalType": "address",
          "name": "from",
          "type": "address"
        },
        {
          "indexed": true,
          "internalType": "address",
          "name": "to",
          "type": "address"
        },
        {
          "indexed": false,
          "internalType": "uint256",
          "name": "id",
          "type": "uint256"
        },
        {
          "indexed": false,
          "internalType": "uint256",
          "name": "value",
          "type": "uint256"
        }
      ],
      "name": "TransferSingle",
      "type": "event"
    },
    {
      "anonymous": false,
      "inputs": [
        {
          "indexed": false,
          "internalType": "string",
          "name": "value",
          "type": "string"
        },
        {
          "indexed": true,
          "internalType": "uint256",
          "name": "id",
          "type": "uint256"
        }
      ],
      "name": "URI",
      "type": "event"
    },
    {
      "anonymous": false,
      "inputs": [
        {
          "indexed": false,
          "internalType": "address",
          "name": "account",
          "type": "address"
        }
      ],
      "name": "Unpaused",
      "type": "event"
    },
    {
      "inputs": [],
      "name": "DEFAULT_ADMIN_ROLE",
      "outputs": [
        {
          "internalType": "bytes32",
          "name": "",
          "type": "bytes32"
        }
      ],
      "stateMutability": "view",
      "type": "function"
    },
    {
      "inputs": [],
      "name": "MINTER_ROLE",
      "outputs": [
        {
          "internalType": "bytes32",
          "name": "",
          "type": "bytes32"
        }
      ],
      "stateMutability": "view",
      "type": "function"
    },
    {
      "inputs": [],
      "name": "PAUSER_ROLE",
      "outputs": [
        {
          "internalType": "bytes32",
          "name": "",
          "type": "bytes32"
        }
      ],
      "stateMutability": "view",
      "type": "function"
    },
    {
      "inputs": [
        {
          "internalType": "address",
          "name": "account",
          "type": "address"
        },
        {
          "internalType": "uint256",
          "name": "id",
          "type": "uint256"
        }
      ],
      "name": "balanceOf",
      "outputs": [
        {
          "internalType": "uint256",
          "name": "",
          "type": "uint256"
        }
      ],
      "stateMutability": "view",
      "type": "function"
    },
    {
      "inputs": [
        {
          "internalType": "address[]",
          "name": "accounts",
          "type": "address[]"
        },
        {
          "internalType": "uint256[]",
          "name": "ids",
          "type": "uint256[]"
        }
      ],
      "name": "balanceOfBatch",
      "outputs": [
        {
          "internalType": "uint256[]",
          "name": "",
          "type": "uint256[]"
        }
      ],
      "stateMutability": "view",
      "type": "function"
    },
    {
      "inputs": [
        {
          "internalType": "address",
          "name": "account",
          "type": "address"
        },
        {
          "internalType": "uint256",
          "name": "id",
          "type": "uint256"
        },
        {
          "internalType": "uint256",
          "name": "value",
          "type": "uint256"
        }
      ],
      "name": "burn",
      "outputs": [],
      "stateMutability": "nonpayable",
      "type": "function"
    },
    {
      "inputs": [
        {
          "internalType": "address",
          "name": "account",
          "type": "address"
        },
        {
          "internalType": "uint256[]",
          "name": "ids",
          "type": "uint256[]"
        },
        {
          "internalType": "uint256[]",
          "name": "values",
          "type": "uint256[]"
        }
      ],
      "name": "burnBatch",
      "outputs": [],
      "stateMutability": "nonpayable",
      "type": "function"
    },
    {
      "inputs": [
        {
          "internalType": "bytes32",
          "name": "role",
          "type": "bytes32"
        }
      ],
      "name": "getRoleAdmin",
      "outputs": [
        {
          "internalType": "bytes32",
          "name": "",
          "type": "bytes32"
        }
      ],
      "stateMutability": "view",
      "type": "function"
    },
    {
      "inputs": [
        {
          "internalType": "bytes32",
          "name": "role",
          "type": "bytes32"
        },
        {
          "internalType": "uint256",
          "name": "index",
          "type": "uint256"
        }
      ],
      "name": "getRoleMember",
      "outputs": [
        {
          "internalType": "address",
          "name": "",
          "type": "address"
        }
      ],
      "stateMutability": "view",
      "type": "function"
    },
    {
      "inputs": [
        {
          "internalType": "bytes32",
          "name": "role",
          "type": "bytes32"
        }
      ],
      "name": "getRoleMemberCount",
      "outputs": [
        {
          "internalType": "uint256",
          "name": "",
          "type": "uint256"
        }
      ],
      "stateMutability": "view",
      "type": "function"
    },
    {
      "inputs": [
        {
          "internalType": "bytes32",
          "name": "role",
          "type": "bytes32"
        },
        {
          "internalType": "address",
          "name": "account",
          "type": "address"
        }
      ],
      "name": "grantRole",
      "outputs": [],
      "stateMutability": "nonpayable",
      "type": "function"
    },
    {
      "inputs": [
        {
          "internalType": "bytes32",
          "name": "role",
          "type": "bytes32"
        },
        {
          "internalType": "address",
          "name": "account",
          "type": "address"
        }
      ],
      "name": "hasRole",
      "outputs": [
        {
          "internalType": "bool",
          "name": "",
          "type": "bool"
        }
      ],
      "stateMutability": "view",
      "type": "function"
    },
    {
      "inputs": [
        {
          "internalType": "address",
          "name": "account",
          "type": "address"
        },
        {
          "internalType": "address",
          "name": "operator",
          "type": "address"
        }
      ],
      "name": "isApprovedForAll",
      "outputs": [
        {
          "internalType": "bool",
          "name": "",
          "type": "bool"
        }
      ],
      "stateMutability": "view",
      "type": "function"
    },
    {
      "inputs": [
        {
          "internalType": "address",
          "name": "to",
          "type": "address"
        },
        {
          "internalType": "uint256",
          "name": "id",
          "type": "uint256"
        },
        {
          "internalType": "uint256",
          "name": "amount",
          "type": "uint256"
        },
        {
          "internalType": "bytes",
          "name": "data",
          "type": "bytes"
        }
      ],
      "name": "mint",
      "outputs": [],
      "stateMutability": "nonpayable",
      "type": "function"
    },
    {
      "inputs": [
        {
          "internalType": "address",
          "name": "to",
          "type": "address"
        },
        {
          "internalType": "uint256[]",
          "name": "ids",
          "type": "uint256[]"
        },
        {
          "internalType": "uint256[]",
          "name": "amounts",
          "type": "uint256[]"
        },
        {
          "internalType": "bytes",
          "name": "data",
          "type": "bytes"
        }
      ],
      "name": "mintBatch",
      "outputs": [],
      "stateMutability": "nonpayable",
      "type": "function"
    },
    {
      "inputs": [
        {
          "internalType": "address",
          "name": "",
          "type": "address"
        },
        {
          "internalType": "address",
          "name": "",
          "type": "address"
        },
        {
          "internalType": "uint256[]",
          "name": "",
          "type": "uint256[]"
        },
        {
          "internalType": "uint256[]",
          "name": "",
          "type": "uint256[]"
        },
        {
          "internalType": "bytes",
          "name": "",
          "type": "bytes"
        }
      ],
      "name": "onERC1155BatchReceived",
      "outputs": [
        {
          "internalType": "bytes4",
          "name": "",
          "type": "bytes4"
        }
      ],
      "stateMutability": "nonpayable",
      "type": "function"
    },
    {
      "inputs": [
        {
          "internalType": "address",
          "name": "",
          "type": "address"
        },
        {
          "internalType": "address",
          "name": "",
          "type": "address"
        },
        {
          "internalType": "uint256",
          "name": "",
          "type": "uint256"
        },
        {
          "internalType": "uint256",
          "name": "",
          "type": "uint256"
        },
        {
          "internalType": "bytes",
          "name": "",
          "type": "bytes"
        }
      ],
      "name": "onERC1155Received",
      "outputs": [
        {
          "internalType": "bytes4",
          "name": "",
          "type": "bytes4"
        }
      ],
      "stateMutability": "nonpayable",
      "type": "function"
    },
    {
      "inputs": [],
      "name": "pause",
      "outputs": [],
      "stateMutability": "nonpayable",
      "type": "function"
    },
    {
      "inputs": [],
      "name": "paused",
      "outputs": [
        {
          "internalType": "bool",
          "name": "",
          "type": "bool"
        }
      ],
      "stateMutability": "view",
      "type": "function"
    },
    {
      "inputs": [
        {
          "internalType": "bytes32",
          "name": "role",
          "type": "bytes32"
        },
        {
          "internalType": "address",
          "name": "account",
          "type": "address"
        }
      ],
      "name": "renounceRole",
      "outputs": [],
      "stateMutability": "nonpayable",
      "type": "function"
    },
    {
      "inputs": [
        {
          "internalType": "bytes32",
          "name": "role",
          "type": "bytes32"
        },
        {
          "internalType": "address",
          "name": "account",
          "type": "address"
        }
      ],
      "name": "revokeRole",
      "outputs": [],
      "stateMutability": "nonpayable",
      "type": "function"
    },
    {
      "inputs": [
        {
          "internalType": "address",
          "name": "from",
          "type": "address"
        },
        {
          "internalType": "address",
          "name": "to",
          "type": "address"
        },
        {
          "internalType": "uint256[]",
          "name": "ids",
          "type": "uint256[]"
        },
        {
          "internalType": "uint256[]",
          "name": "amounts",
          "type": "uint256[]"
        },
        {
          "internalType": "bytes",
          "name": "data",
          "type": "bytes"
        }
      ],
      "name": "safeBatchTransferFrom",
      "outputs": [],
      "stateMutability": "nonpayable",
      "type": "function"
    },
    {
      "inputs": [
        {
          "internalType": "address",
          "name": "from",
          "type": "address"
        },
        {
          "internalType": "address",
          "name": "to",
          "type": "address"
        },
        {
          "internalType": "uint256",
          "name": "id",
          "type": "uint256"
        },
        {
          "internalType": "uint256",
          "name": "amount",
          "type": "uint256"
        },
        {
          "internalType": "bytes",
          "name": "data",
          "type": "bytes"
        }
      ],
      "name": "safeTransferFrom",
      "outputs": [],
      "stateMutability": "nonpayable",
      "type": "function"
    },
    {
      "inputs": [
        {
          "internalType": "address",
          "name": "operator",
          "type": "address"
        },
        {
          "internalType": "bool",
          "name": "approved",
          "type": "bool"
        }
      ],
      "name": "setApprovalForAll",
      "outputs": [],
      "stateMutability": "nonpayable",
      "type": "function"
    },
    {
      "inputs": [],
      "name": "unpause",
      "outputs": [],
      "stateMutability": "nonpayable",
      "type": "function"
    },
    {
      "inputs": [
        {
          "internalType": "uint256",
          "name": "",
          "type": "uint256"
        }
      ],
      "name": "uri",
      "outputs": [
        {
          "internalType": "string",
          "name": "",
          "type": "string"
        }
      ],
      "stateMutability": "view",
      "type": "function"
    },
    {
      "inputs": [],
      "name": "getAllTokens",
      "outputs": [
        {
          "components": [
            {
              "internalType": "string",
              "name": "uri",
              "type": "string"
            },
            {
              "internalType": "string",
              "name": "name",
              "type": "string"
            }
          ],
          "internalType": "struct NFCool.TokenData[]",
          "name": "",
          "type": "tuple[]"
        }
      ],
      "stateMutability": "view",
      "type": "function"
    },
    {
      "inputs": [
        {
          "internalType": "uint256",
          "name": "tokenId",
          "type": "uint256"
        }
      ],
      "name": "tokenData",
      "outputs": [
        {
          "components": [
            {
              "internalType": "string",
              "name": "uri",
              "type": "string"
            },
            {
              "internalType": "string",
              "name": "name",
              "type": "string"
            }
          ],
          "internalType": "struct NFCool.TokenData",
          "name": "",
          "type": "tuple"
        }
      ],
      "stateMutability": "view",
      "type": "function"
    },
    {
      "inputs": [
        {
          "internalType": "uint256",
          "name": "tokenId",
          "type": "uint256"
        },
        {
          "internalType": "uint256",
          "name": "tokenUnitId",
          "type": "uint256"
        }
      ],
      "name": "tokenUnitData",
      "outputs": [
        {
          "components": [
            {
              "internalType": "address",
              "name": "owner",
              "type": "address"
            },
            {
              "internalType": "string",
              "name": "nfcId",
              "type": "string"
            },
            {
              "internalType": "string",
              "name": "status",
              "type": "string"
            }
          ],
          "internalType": "struct NFCool.TokenUnitData",
          "name": "",
          "type": "tuple"
        }
      ],
      "stateMutability": "view",
      "type": "function"
    },
    {
      "inputs": [
        {
          "internalType": "string",
          "name": "tokenUri",
          "type": "string"
        },
        {
          "internalType": "string",
          "name": "tokenName",
          "type": "string"
        },
        {
          "internalType": "bytes",
          "name": "data",
          "type": "bytes"
        }
      ],
      "name": "mintToken",
      "outputs": [
        {
          "internalType": "uint256",
          "name": "",
          "type": "uint256"
        }
      ],
      "stateMutability": "nonpayable",
      "type": "function"
    },
    {
      "inputs": [
        {
          "internalType": "uint256",
          "name": "tokenId",
          "type": "uint256"
        },
        {
          "internalType": "string",
          "name": "nfcId",
          "type": "string"
        },
        {
          "internalType": "bytes",
          "name": "data",
          "type": "bytes"
        }
      ],
      "name": "mintTokenUnit",
      "outputs": [
        {
          "internalType": "uint256",
          "name": "",
          "type": "uint256"
        }
      ],
      "stateMutability": "nonpayable",
      "type": "function"
    },
    {
      "inputs": [
        {
          "internalType": "bytes4",
          "name": "interfaceId",
          "type": "bytes4"
        }
      ],
      "name": "supportsInterface",
      "outputs": [
        {
          "internalType": "bool",
          "name": "",
          "type": "bool"
        }
      ],
      "stateMutability": "view",
      "type": "function"
    }
  ],
  "bytecode": "0x60806040523480156200001157600080fd5b506040516200649b3803806200649b833981810160405281019062000037919062000510565b604051806020016040528060008152508062000059816200013c60201b60201c565b506000600560006101000a81548160ff021916908315150217905550620000996000801b6200008d6200015860201b60201c565b6200016060201b60201c565b620000da7f9f2df0fed2c77648de5860a4cc508cd0818c85b8b8a1ab4ceeef8d981c8956a6620000ce6200015860201b60201c565b6200016060201b60201c565b6200011b7f65d7a28e3265b37a6474929f336521b332c1681b933f6cb9f3376673440d862a6200010f6200015860201b60201c565b6200016060201b60201c565b50806006908051906020019062000134929190620003ee565b505062000686565b806004908051906020019062000154929190620003ee565b5050565b600033905090565b620001778282620001a860201b62001bb61760201c565b620001a38160016000858152602001908152602001600020620001be60201b62001bc41790919060201c565b505050565b620001ba8282620001f660201b60201c565b5050565b6000620001ee836000018373ffffffffffffffffffffffffffffffffffffffff1660001b620002e760201b60201c565b905092915050565b6200020882826200036160201b60201c565b620002e357600160008084815260200190815260200160002060000160008373ffffffffffffffffffffffffffffffffffffffff1673ffffffffffffffffffffffffffffffffffffffff16815260200190815260200160002060006101000a81548160ff021916908315150217905550620002886200015860201b60201c565b73ffffffffffffffffffffffffffffffffffffffff168173ffffffffffffffffffffffffffffffffffffffff16837f2f8788117e7eff1d82e926ec794901d17c78024a50270940304540a733656f0d60405160405180910390a45b5050565b6000620002fb8383620003cb60201b60201c565b620003565782600001829080600181540180825580915050600190039060005260206000200160009091909190915055826000018054905083600101600084815260200190815260200160002081905550600190506200035b565b600090505b92915050565b600080600084815260200190815260200160002060000160008373ffffffffffffffffffffffffffffffffffffffff1673ffffffffffffffffffffffffffffffffffffffff16815260200190815260200160002060009054906101000a900460ff16905092915050565b600080836001016000848152602001908152602001600020541415905092915050565b828054620003fc90620005f2565b90600052602060002090601f0160209004810192826200042057600085556200046c565b82601f106200043b57805160ff19168380011785556200046c565b828001600101855582156200046c579182015b828111156200046b5782518255916020019190600101906200044e565b5b5090506200047b91906200047f565b5090565b5b808211156200049a57600081600090555060010162000480565b5090565b6000620004b5620004af8462000589565b62000555565b905082815260208101848484011115620004ce57600080fd5b620004db848285620005bc565b509392505050565b600082601f830112620004f557600080fd5b8151620005078482602086016200049e565b91505092915050565b6000602082840312156200052357600080fd5b600082015167ffffffffffffffff8111156200053e57600080fd5b6200054c84828501620004e3565b91505092915050565b6000604051905081810181811067ffffffffffffffff821117156200057f576200057e62000657565b5b8060405250919050565b600067ffffffffffffffff821115620005a757620005a662000657565b5b601f19601f8301169050602081019050919050565b60005b83811015620005dc578082015181840152602081019050620005bf565b83811115620005ec576000848401525b50505050565b600060028204905060018216806200060b57607f821691505b6020821081141562000622576200062162000628565b5b50919050565b7f4e487b7100000000000000000000000000000000000000000000000000000000600052602260045260246000fd5b7f4e487b7100000000000000000000000000000000000000000000000000000000600052604160045260246000fd5b615e0580620006966000396000f3fe608060405234801561001057600080fd5b50600436106101ef5760003560e01c80638456cb591161010f578063ca15c873116100a2578063e985e9c511610071578063e985e9c5146105ee578063f23a6e611461061e578063f242432a1461064e578063f5298aca1461066a576101ef565b8063ca15c87314610566578063d539139314610596578063d547741f146105b4578063e63ab1e9146105d0576101ef565b8063a22cb465116100de578063a22cb465146104ba578063b4b5b48f146104d6578063bc197c8114610506578063c3d0427914610536576101ef565b80638456cb59146104325780639010d07c1461043c57806391d148541461046c578063a217fddf1461049c576101ef565b806336568abe116101875780635c975abb116101565780635c975abb146103ac5780636648b1cb146103ca5780636b20c454146103fa578063731133e914610416576101ef565b806336568abe146103265780633e80bb74146103425780633f4ba83a146103725780634e1273f41461037c576101ef565b8063248a9ca3116101c3578063248a9ca3146102a05780632a5c792a146102d05780632eb2c2d6146102ee5780632f2ff15d1461030a576101ef565b8062fdd58e146101f457806301ffc9a7146102245780630e89341c146102545780631f7fdffa14610284575b600080fd5b61020e60048036038101906102099190614351565b610686565b60405161021b91906157b8565b60405180910390f35b61023e60048036038101906102399190614564565b610750565b60405161024b9190615461565b60405180910390f35b61026e60048036038101906102699190614657565b610762565b60405161027b91906154b2565b60405180910390f35b61029e6004803603810190610299919061426a565b6107f6565b005b6102ba60048036038101906102b591906144c3565b610878565b6040516102c7919061547c565b60405180910390f35b6102d8610897565b6040516102e591906153e6565b60405180910390f35b6103086004803603810190610303919061409d565b610ae7565b005b610324600480360381019061031f91906144ec565b610b88565b005b610340600480360381019061033b91906144ec565b610bbc565b005b61035c60048036038101906103579190614704565b610bf0565b6040516103699190615796565b60405180910390f35b61037a610da9565b005b61039660048036038101906103919190614457565b610e23565b6040516103a39190615408565b60405180910390f35b6103b4610fd4565b6040516103c19190615461565b60405180910390f35b6103e460048036038101906103df91906145b6565b610feb565b6040516103f191906157b8565b60405180910390f35b610414600480360381019061040f91906141eb565b6111d1565b005b610430600480360381019061042b91906143dc565b61126e565b005b61043a6112f0565b005b61045660048036038101906104519190614528565b61136a565b6040516104639190615309565b60405180910390f35b610486600480360381019061048191906144ec565b611399565b6040516104939190615461565b60405180910390f35b6104a4611403565b6040516104b1919061547c565b60405180910390f35b6104d460048036038101906104cf9190614315565b61140a565b005b6104f060048036038101906104eb9190614657565b61158b565b6040516104fd9190615774565b60405180910390f35b610520600480360381019061051b919061409d565b6116dc565b60405161052d9190615497565b60405180910390f35b610550600480360381019061054b9190614680565b6116f1565b60405161055d91906157b8565b60405180910390f35b610580600480360381019061057b91906144c3565b61192f565b60405161058d91906157b8565b60405180910390f35b61059e611953565b6040516105ab919061547c565b60405180910390f35b6105ce60048036038101906105c991906144ec565b611977565b005b6105d86119ab565b6040516105e5919061547c565b60405180910390f35b61060860048036038101906106039190614061565b6119cf565b6040516106159190615461565b60405180910390f35b6106386004803603810190610633919061415c565b611a63565b6040516106459190615497565b60405180910390f35b6106686004803603810190610663919061415c565b611a78565b005b610684600480360381019061067f919061438d565b611b19565b005b60008073ffffffffffffffffffffffffffffffffffffffff168373ffffffffffffffffffffffffffffffffffffffff1614156106f7576040517f08c379a00000000000000000000000000000000000000000000000000000000081526004016106ee90615554565b60405180910390fd5b6002600083815260200190815260200160002060008473ffffffffffffffffffffffffffffffffffffffff1673ffffffffffffffffffffffffffffffffffffffff16815260200190815260200160002054905092915050565b600061075b82611bf4565b9050919050565b60606004805461077190615b56565b80601f016020809104026020016040519081016040528092919081815260200182805461079d90615b56565b80156107ea5780601f106107bf576101008083540402835291602001916107ea565b820191906000526020600020905b8154815290600101906020018083116107cd57829003601f168201915b50505050509050919050565b6108277f9f2df0fed2c77648de5860a4cc508cd0818c85b8b8a1ab4ceeef8d981c8956a6610822611c6e565b611399565b610866576040517f08c379a000000000000000000000000000000000000000000000000000000000815260040161085d90615654565b60405180910390fd5b61087284848484611c76565b50505050565b6000806000838152602001908152602001600020600101549050919050565b60606000600760009054906101000a900460ff1660ff1667ffffffffffffffff8111156108ed577f4e487b7100000000000000000000000000000000000000000000000000000000600052604160045260246000fd5b60405190808252806020026020018201604052801561092657816020015b610913613d11565b81526020019060019003908161090b5790505b50905060005b600760009054906101000a900460ff1660ff16811015610adf576009600082815260200190815260200160002060405180604001604052908160008201805461097490615b56565b80601f01602080910402602001604051908101604052809291908181526020018280546109a090615b56565b80156109ed5780601f106109c2576101008083540402835291602001916109ed565b820191906000526020600020905b8154815290600101906020018083116109d057829003601f168201915b50505050508152602001600182018054610a0690615b56565b80601f0160208091040260200160405190810160405280929190818152602001828054610a3290615b56565b8015610a7f5780601f10610a5457610100808354040283529160200191610a7f565b820191906000526020600020905b815481529060010190602001808311610a6257829003601f168201915b505050505081525050828281518110610ac1577f4e487b7100000000000000000000000000000000000000000000000000000000600052603260045260246000fd5b60200260200101819052508080610ad790615b88565b91505061092c565b508091505090565b610aef611c6e565b73ffffffffffffffffffffffffffffffffffffffff168573ffffffffffffffffffffffffffffffffffffffff161480610b355750610b3485610b2f611c6e565b6119cf565b5b610b74576040517f08c379a0000000000000000000000000000000000000000000000000000000008152600401610b6b90615614565b60405180910390fd5b610b818585858585611ee1565b5050505050565b610b928282612244565b610bb78160016000858152602001908152602001600020611bc490919063ffffffff16565b505050565b610bc6828261226d565b610beb81600160008581526020019081526020016000206122f090919063ffffffff16565b505050565b610bf8613d2b565b600a600084815260200190815260200160002060008381526020019081526020016000206040518060600160405290816000820160009054906101000a900473ffffffffffffffffffffffffffffffffffffffff1673ffffffffffffffffffffffffffffffffffffffff1673ffffffffffffffffffffffffffffffffffffffff168152602001600182018054610c8d90615b56565b80601f0160208091040260200160405190810160405280929190818152602001828054610cb990615b56565b8015610d065780601f10610cdb57610100808354040283529160200191610d06565b820191906000526020600020905b815481529060010190602001808311610ce957829003601f168201915b50505050508152602001600282018054610d1f90615b56565b80601f0160208091040260200160405190810160405280929190818152602001828054610d4b90615b56565b8015610d985780601f10610d6d57610100808354040283529160200191610d98565b820191906000526020600020905b815481529060010190602001808311610d7b57829003601f168201915b505050505081525050905092915050565b610dda7f65d7a28e3265b37a6474929f336521b332c1681b933f6cb9f3376673440d862a610dd5611c6e565b611399565b610e19576040517f08c379a0000000000000000000000000000000000000000000000000000000008152600401610e1090615694565b60405180910390fd5b610e21612320565b565b60608151835114610e69576040517f08c379a0000000000000000000000000000000000000000000000000000000008152600401610e60906156f4565b60405180910390fd5b6000835167ffffffffffffffff811115610eac577f4e487b7100000000000000000000000000000000000000000000000000000000600052604160045260246000fd5b604051908082528060200260200182016040528015610eda5781602001602082028036833780820191505090505b50905060005b8451811015610fc957610f73858281518110610f25577f4e487b7100000000000000000000000000000000000000000000000000000000600052603260045260246000fd5b6020026020010151858381518110610f66577f4e487b7100000000000000000000000000000000000000000000000000000000600052603260045260246000fd5b6020026020010151610686565b828281518110610fac577f4e487b7100000000000000000000000000000000000000000000000000000000600052603260045260246000fd5b60200260200101818152505080610fc290615b88565b9050610ee0565b508091505092915050565b6000600560009054906101000a900460ff16905090565b600061101e7f9f2df0fed2c77648de5860a4cc508cd0818c85b8b8a1ab4ceeef8d981c8956a6611019611c6e565b611399565b61105d576040517f08c379a000000000000000000000000000000000000000000000000000000000815260040161105490615654565b60405180910390fd5b61107c30600760009054906101000a900460ff1660ff166000856123c2565b604051806040016040528087878080601f016020809104026020016040519081016040528093929190818152602001838380828437600081840152601f19601f82011690508083019250505050505050815260200185858080601f016020809104026020016040519081016040528093929190818152602001838380828437600081840152601f19601f8201169050808301925050505050505081525060096000600760009054906101000a900460ff1660ff168152602001908152602001600020600082015181600001908051906020019061115a929190613d62565b506020820151816001019080519060200190611177929190613d62565b509050506007600081819054906101000a900460ff168092919061119a90615bd1565b91906101000a81548160ff021916908360ff16021790555050600760009054906101000a900460ff1660ff16905095945050505050565b6111d9611c6e565b73ffffffffffffffffffffffffffffffffffffffff168373ffffffffffffffffffffffffffffffffffffffff16148061121f575061121e83611219611c6e565b6119cf565b5b61125e576040517f08c379a0000000000000000000000000000000000000000000000000000000008152600401611255906155b4565b60405180910390fd5b611269838383612559565b505050565b61129f7f9f2df0fed2c77648de5860a4cc508cd0818c85b8b8a1ab4ceeef8d981c8956a661129a611c6e565b611399565b6112de576040517f08c379a00000000000000000000000000000000000000000000000000000000081526004016112d590615654565b60405180910390fd5b6112ea848484846123c2565b50505050565b6113217f65d7a28e3265b37a6474929f336521b332c1681b933f6cb9f3376673440d862a61131c611c6e565b611399565b611360576040517f08c379a0000000000000000000000000000000000000000000000000000000008152600401611357906156b4565b60405180910390fd5b611368612858565b565b600061139182600160008681526020019081526020016000206128fb90919063ffffffff16565b905092915050565b600080600084815260200190815260200160002060000160008373ffffffffffffffffffffffffffffffffffffffff1673ffffffffffffffffffffffffffffffffffffffff16815260200190815260200160002060009054906101000a900460ff16905092915050565b6000801b81565b8173ffffffffffffffffffffffffffffffffffffffff16611429611c6e565b73ffffffffffffffffffffffffffffffffffffffff161415611480576040517f08c379a0000000000000000000000000000000000000000000000000000000008152600401611477906156d4565b60405180910390fd5b806003600061148d611c6e565b73ffffffffffffffffffffffffffffffffffffffff1673ffffffffffffffffffffffffffffffffffffffff16815260200190815260200160002060008473ffffffffffffffffffffffffffffffffffffffff1673ffffffffffffffffffffffffffffffffffffffff16815260200190815260200160002060006101000a81548160ff0219169083151502179055508173ffffffffffffffffffffffffffffffffffffffff1661153a611c6e565b73ffffffffffffffffffffffffffffffffffffffff167f17307eab39ab6107e8899845ad3d59bd9653f200f220920489ca2b5937696c318360405161157f9190615461565b60405180910390a35050565b611593613d11565b600960008381526020019081526020016000206040518060400160405290816000820180546115c190615b56565b80601f01602080910402602001604051908101604052809291908181526020018280546115ed90615b56565b801561163a5780601f1061160f5761010080835404028352916020019161163a565b820191906000526020600020905b81548152906001019060200180831161161d57829003601f168201915b5050505050815260200160018201805461165390615b56565b80601f016020809104026020016040519081016040528092919081815260200182805461167f90615b56565b80156116cc5780601f106116a1576101008083540402835291602001916116cc565b820191906000526020600020905b8154815290600101906020018083116116af57829003601f168201915b5050505050815250509050919050565b600063bc197c8160e01b905095945050505050565b60006117247f9f2df0fed2c77648de5860a4cc508cd0818c85b8b8a1ab4ceeef8d981c8956a661171f611c6e565b611399565b611763576040517f08c379a000000000000000000000000000000000000000000000000000000000815260040161175a90615654565b60405180910390fd5b6117833060086000888152602001908152602001600020546001856123c2565b60405180606001604052803073ffffffffffffffffffffffffffffffffffffffff16815260200185858080601f016020809104026020016040519081016040528093929190818152602001838380828437600081840152601f19601f8201169050808301925050505050505081526020016040518060400160405280600681526020017f6d696e7465640000000000000000000000000000000000000000000000000000815250815250600a600087815260200190815260200160002060006008600089815260200190815260200160002054815260200190815260200160002060008201518160000160006101000a81548173ffffffffffffffffffffffffffffffffffffffff021916908373ffffffffffffffffffffffffffffffffffffffff16021790555060208201518160010190805190602001906118c7929190613d62565b5060408201518160020190805190602001906118e4929190613d62565b5090505060086000868152602001908152602001600020600081548092919061190c90615b88565b919050555060086000868152602001908152602001600020549050949350505050565b600061194c60016000848152602001908152602001600020612915565b9050919050565b7f9f2df0fed2c77648de5860a4cc508cd0818c85b8b8a1ab4ceeef8d981c8956a681565b611981828261292a565b6119a681600160008581526020019081526020016000206122f090919063ffffffff16565b505050565b7f65d7a28e3265b37a6474929f336521b332c1681b933f6cb9f3376673440d862a81565b6000600360008473ffffffffffffffffffffffffffffffffffffffff1673ffffffffffffffffffffffffffffffffffffffff16815260200190815260200160002060008373ffffffffffffffffffffffffffffffffffffffff1673ffffffffffffffffffffffffffffffffffffffff16815260200190815260200160002060009054906101000a900460ff16905092915050565b600063f23a6e6160e01b905095945050505050565b611a80611c6e565b73ffffffffffffffffffffffffffffffffffffffff168573ffffffffffffffffffffffffffffffffffffffff161480611ac65750611ac585611ac0611c6e565b6119cf565b5b611b05576040517f08c379a0000000000000000000000000000000000000000000000000000000008152600401611afc906155b4565b60405180910390fd5b611b128585858585612953565b5050505050565b611b21611c6e565b73ffffffffffffffffffffffffffffffffffffffff168373ffffffffffffffffffffffffffffffffffffffff161480611b675750611b6683611b61611c6e565b6119cf565b5b611ba6576040517f08c379a0000000000000000000000000000000000000000000000000000000008152600401611b9d906155b4565b60405180910390fd5b611bb1838383612bd8565b505050565b611bc08282612df7565b5050565b6000611bec836000018373ffffffffffffffffffffffffffffffffffffffff1660001b612ed7565b905092915050565b60007f4e2312e0000000000000000000000000000000000000000000000000000000007bffffffffffffffffffffffffffffffffffffffffffffffffffffffff1916827bffffffffffffffffffffffffffffffffffffffffffffffffffffffff19161480611c675750611c6682612f47565b5b9050919050565b600033905090565b600073ffffffffffffffffffffffffffffffffffffffff168473ffffffffffffffffffffffffffffffffffffffff161415611ce6576040517f08c379a0000000000000000000000000000000000000000000000000000000008152600401611cdd90615734565b60405180910390fd5b8151835114611d2a576040517f08c379a0000000000000000000000000000000000000000000000000000000008152600401611d2190615714565b60405180910390fd5b6000611d34611c6e565b9050611d4581600087878787612f59565b60005b8451811015611e4b57838181518110611d8a577f4e487b7100000000000000000000000000000000000000000000000000000000600052603260045260246000fd5b602002602001015160026000878481518110611dcf577f4e487b7100000000000000000000000000000000000000000000000000000000600052603260045260246000fd5b6020026020010151815260200190815260200160002060008873ffffffffffffffffffffffffffffffffffffffff1673ffffffffffffffffffffffffffffffffffffffff1681526020019081526020016000206000828254611e31919061597b565b925050819055508080611e4390615b88565b915050611d48565b508473ffffffffffffffffffffffffffffffffffffffff16600073ffffffffffffffffffffffffffffffffffffffff168273ffffffffffffffffffffffffffffffffffffffff167f4a39dc06d4c0dbc64b70af90fd698a233a518aa5d07e595d983b8c0526c8f7fb8787604051611ec392919061542a565b60405180910390a4611eda81600087878787612f6f565b5050505050565b8151835114611f25576040517f08c379a0000000000000000000000000000000000000000000000000000000008152600401611f1c90615714565b60405180910390fd5b600073ffffffffffffffffffffffffffffffffffffffff168473ffffffffffffffffffffffffffffffffffffffff161415611f95576040517f08c379a0000000000000000000000000000000000000000000000000000000008152600401611f8c906155f4565b60405180910390fd5b6000611f9f611c6e565b9050611faf818787878787612f59565b60005b84518110156121af576000858281518110611ff6577f4e487b7100000000000000000000000000000000000000000000000000000000600052603260045260246000fd5b60200260200101519050600085838151811061203b577f4e487b7100000000000000000000000000000000000000000000000000000000600052603260045260246000fd5b6020026020010151905060006002600084815260200190815260200160002060008b73ffffffffffffffffffffffffffffffffffffffff1673ffffffffffffffffffffffffffffffffffffffff168152602001908152602001600020549050818110156120dd576040517f08c379a00000000000000000000000000000000000000000000000000000000081526004016120d490615674565b60405180910390fd5b8181036002600085815260200190815260200160002060008c73ffffffffffffffffffffffffffffffffffffffff1673ffffffffffffffffffffffffffffffffffffffff16815260200190815260200160002081905550816002600085815260200190815260200160002060008b73ffffffffffffffffffffffffffffffffffffffff1673ffffffffffffffffffffffffffffffffffffffff1681526020019081526020016000206000828254612194919061597b565b92505081905550505050806121a890615b88565b9050611fb2565b508473ffffffffffffffffffffffffffffffffffffffff168673ffffffffffffffffffffffffffffffffffffffff168273ffffffffffffffffffffffffffffffffffffffff167f4a39dc06d4c0dbc64b70af90fd698a233a518aa5d07e595d983b8c0526c8f7fb878760405161222692919061542a565b60405180910390a461223c818787878787612f6f565b505050505050565b61224d82610878565b61225e81612259611c6e565b61313f565b6122688383612df7565b505050565b612275611c6e565b73ffffffffffffffffffffffffffffffffffffffff168173ffffffffffffffffffffffffffffffffffffffff16146122e2576040517f08c379a00000000000000000000000000000000000000000000000000000000081526004016122d990615754565b60405180910390fd5b6122ec82826131dc565b5050565b6000612318836000018373ffffffffffffffffffffffffffffffffffffffff1660001b6132bd565b905092915050565b612328610fd4565b612367576040517f08c379a000000000000000000000000000000000000000000000000000000000815260040161235e90615534565b60405180910390fd5b6000600560006101000a81548160ff0219169083151502179055507f5db9ee0a495bf2e6ff9c91a7834c1ba4fdd244a5e8aa4e537bd38aeae4b073aa6123ab611c6e565b6040516123b89190615309565b60405180910390a1565b600073ffffffffffffffffffffffffffffffffffffffff168473ffffffffffffffffffffffffffffffffffffffff161415612432576040517f08c379a000000000000000000000000000000000000000000000000000000000815260040161242990615734565b60405180910390fd5b600061243c611c6e565b905061245d8160008761244e88613443565b61245788613443565b87612f59565b826002600086815260200190815260200160002060008773ffffffffffffffffffffffffffffffffffffffff1673ffffffffffffffffffffffffffffffffffffffff16815260200190815260200160002060008282546124bd919061597b565b925050819055508473ffffffffffffffffffffffffffffffffffffffff16600073ffffffffffffffffffffffffffffffffffffffff168273ffffffffffffffffffffffffffffffffffffffff167fc3d58168c5ae7397731d063d5bbf3d657854427343f4c083240f7aacaa2d0f62878760405161253b9291906157d3565b60405180910390a461255281600087878787613509565b5050505050565b600073ffffffffffffffffffffffffffffffffffffffff168373ffffffffffffffffffffffffffffffffffffffff1614156125c9576040517f08c379a00000000000000000000000000000000000000000000000000000000081526004016125c090615634565b60405180910390fd5b805182511461260d576040517f08c379a000000000000000000000000000000000000000000000000000000000815260040161260490615714565b60405180910390fd5b6000612617611c6e565b905061263781856000868660405180602001604052806000815250612f59565b60005b83518110156127d257600084828151811061267e577f4e487b7100000000000000000000000000000000000000000000000000000000600052603260045260246000fd5b6020026020010151905060008483815181106126c3577f4e487b7100000000000000000000000000000000000000000000000000000000600052603260045260246000fd5b6020026020010151905060006002600084815260200190815260200160002060008973ffffffffffffffffffffffffffffffffffffffff1673ffffffffffffffffffffffffffffffffffffffff16815260200190815260200160002054905081811015612765576040517f08c379a000000000000000000000000000000000000000000000000000000000815260040161275c90615574565b60405180910390fd5b8181036002600085815260200190815260200160002060008a73ffffffffffffffffffffffffffffffffffffffff1673ffffffffffffffffffffffffffffffffffffffff1681526020019081526020016000208190555050505080806127ca90615b88565b91505061263a565b50600073ffffffffffffffffffffffffffffffffffffffff168473ffffffffffffffffffffffffffffffffffffffff168273ffffffffffffffffffffffffffffffffffffffff167f4a39dc06d4c0dbc64b70af90fd698a233a518aa5d07e595d983b8c0526c8f7fb868660405161284a92919061542a565b60405180910390a450505050565b612860610fd4565b156128a0576040517f08c379a0000000000000000000000000000000000000000000000000000000008152600401612897906155d4565b60405180910390fd5b6001600560006101000a81548160ff0219169083151502179055507f62e78cea01bee320cd4e420270b5ea74000d11b0c9f74754ebdbfc544b05a2586128e4611c6e565b6040516128f19190615309565b60405180910390a1565b600061290a83600001836136d9565b60001c905092915050565b60006129238260000161372a565b9050919050565b61293382610878565b6129448161293f611c6e565b61313f565b61294e83836131dc565b505050565b600073ffffffffffffffffffffffffffffffffffffffff168473ffffffffffffffffffffffffffffffffffffffff1614156129c3576040517f08c379a00000000000000000000000000000000000000000000000000000000081526004016129ba906155f4565b60405180910390fd5b60006129cd611c6e565b90506129ed8187876129de88613443565b6129e788613443565b87612f59565b60006002600086815260200190815260200160002060008873ffffffffffffffffffffffffffffffffffffffff1673ffffffffffffffffffffffffffffffffffffffff16815260200190815260200160002054905083811015612a85576040517f08c379a0000000000000000000000000000000000000000000000000000000008152600401612a7c90615674565b60405180910390fd5b8381036002600087815260200190815260200160002060008973ffffffffffffffffffffffffffffffffffffffff1673ffffffffffffffffffffffffffffffffffffffff16815260200190815260200160002081905550836002600087815260200190815260200160002060008873ffffffffffffffffffffffffffffffffffffffff1673ffffffffffffffffffffffffffffffffffffffff1681526020019081526020016000206000828254612b3c919061597b565b925050819055508573ffffffffffffffffffffffffffffffffffffffff168773ffffffffffffffffffffffffffffffffffffffff168373ffffffffffffffffffffffffffffffffffffffff167fc3d58168c5ae7397731d063d5bbf3d657854427343f4c083240f7aacaa2d0f628888604051612bb99291906157d3565b60405180910390a4612bcf828888888888613509565b50505050505050565b600073ffffffffffffffffffffffffffffffffffffffff168373ffffffffffffffffffffffffffffffffffffffff161415612c48576040517f08c379a0000000000000000000000000000000000000000000000000000000008152600401612c3f90615634565b60405180910390fd5b6000612c52611c6e565b9050612c8281856000612c6487613443565b612c6d87613443565b60405180602001604052806000815250612f59565b60006002600085815260200190815260200160002060008673ffffffffffffffffffffffffffffffffffffffff1673ffffffffffffffffffffffffffffffffffffffff16815260200190815260200160002054905082811015612d1a576040517f08c379a0000000000000000000000000000000000000000000000000000000008152600401612d1190615574565b60405180910390fd5b8281036002600086815260200190815260200160002060008773ffffffffffffffffffffffffffffffffffffffff1673ffffffffffffffffffffffffffffffffffffffff16815260200190815260200160002081905550600073ffffffffffffffffffffffffffffffffffffffff168573ffffffffffffffffffffffffffffffffffffffff168373ffffffffffffffffffffffffffffffffffffffff167fc3d58168c5ae7397731d063d5bbf3d657854427343f4c083240f7aacaa2d0f628787604051612de89291906157d3565b60405180910390a45050505050565b612e018282611399565b612ed357600160008084815260200190815260200160002060000160008373ffffffffffffffffffffffffffffffffffffffff1673ffffffffffffffffffffffffffffffffffffffff16815260200190815260200160002060006101000a81548160ff021916908315150217905550612e78611c6e565b73ffffffffffffffffffffffffffffffffffffffff168173ffffffffffffffffffffffffffffffffffffffff16837f2f8788117e7eff1d82e926ec794901d17c78024a50270940304540a733656f0d60405160405180910390a45b5050565b6000612ee3838361373b565b612f3c578260000182908060018154018082558091505060019003906000526020600020016000909190919091505582600001805490508360010160008481526020019081526020016000208190555060019050612f41565b600090505b92915050565b6000612f528261375e565b9050919050565b612f67868686868686613840565b505050505050565b612f8e8473ffffffffffffffffffffffffffffffffffffffff1661389e565b15613137578373ffffffffffffffffffffffffffffffffffffffff1663bc197c8187878686866040518663ffffffff1660e01b8152600401612fd4959493929190615324565b602060405180830381600087803b158015612fee57600080fd5b505af192505050801561301f57506040513d601f19601f8201168201806040525081019061301c919061458d565b60015b6130ae5761302b615ca6565b806130365750613073565b806040517f08c379a000000000000000000000000000000000000000000000000000000000815260040161306a91906154b2565b60405180910390fd5b6040517f08c379a00000000000000000000000000000000000000000000000000000000081526004016130a5906154d4565b60405180910390fd5b63bc197c8160e01b7bffffffffffffffffffffffffffffffffffffffffffffffffffffffff1916817bffffffffffffffffffffffffffffffffffffffffffffffffffffffff191614613135576040517f08c379a000000000000000000000000000000000000000000000000000000000815260040161312c90615514565b60405180910390fd5b505b505050505050565b6131498282611399565b6131d85761316e8173ffffffffffffffffffffffffffffffffffffffff1660146138b1565b61317c8360001c60206138b1565b60405160200161318d9291906152cf565b6040516020818303038152906040526040517f08c379a00000000000000000000000000000000000000000000000000000000081526004016131cf91906154b2565b60405180910390fd5b5050565b6131e68282611399565b156132b957600080600084815260200190815260200160002060000160008373ffffffffffffffffffffffffffffffffffffffff1673ffffffffffffffffffffffffffffffffffffffff16815260200190815260200160002060006101000a81548160ff02191690831515021790555061325e611c6e565b73ffffffffffffffffffffffffffffffffffffffff168173ffffffffffffffffffffffffffffffffffffffff16837ff6391f5c32d9c69d2a47ea670b442974b53935d1edc7fd64eb21e047a839171b60405160405180910390a45b5050565b600080836001016000848152602001908152602001600020549050600081146134375760006001826132ef9190615a2b565b90506000600186600001805490506133079190615a2b565b90508181146133c257600086600001828154811061334e577f4e487b7100000000000000000000000000000000000000000000000000000000600052603260045260246000fd5b9060005260206000200154905080876000018481548110613398577f4e487b7100000000000000000000000000000000000000000000000000000000600052603260045260246000fd5b90600052602060002001819055508387600101600083815260200190815260200160002081905550505b856000018054806133fc577f4e487b7100000000000000000000000000000000000000000000000000000000600052603160045260246000fd5b60019003818190600052602060002001600090559055856001016000868152602001908152602001600020600090556001935050505061343d565b60009150505b92915050565b60606000600167ffffffffffffffff811115613488577f4e487b7100000000000000000000000000000000000000000000000000000000600052604160045260246000fd5b6040519080825280602002602001820160405280156134b65781602001602082028036833780820191505090505b50905082816000815181106134f4577f4e487b7100000000000000000000000000000000000000000000000000000000600052603260045260246000fd5b60200260200101818152505080915050919050565b6135288473ffffffffffffffffffffffffffffffffffffffff1661389e565b156136d1578373ffffffffffffffffffffffffffffffffffffffff1663f23a6e6187878686866040518663ffffffff1660e01b815260040161356e95949392919061538c565b602060405180830381600087803b15801561358857600080fd5b505af19250505080156135b957506040513d601f19601f820116820180604052508101906135b6919061458d565b60015b613648576135c5615ca6565b806135d0575061360d565b806040517f08c379a000000000000000000000000000000000000000000000000000000000815260040161360491906154b2565b60405180910390fd5b6040517f08c379a000000000000000000000000000000000000000000000000000000000815260040161363f906154d4565b60405180910390fd5b63f23a6e6160e01b7bffffffffffffffffffffffffffffffffffffffffffffffffffffffff1916817bffffffffffffffffffffffffffffffffffffffffffffffffffffffff1916146136cf576040517f08c379a00000000000000000000000000000000000000000000000000000000081526004016136c690615514565b60405180910390fd5b505b505050505050565b6000826000018281548110613717577f4e487b7100000000000000000000000000000000000000000000000000000000600052603260045260246000fd5b9060005260206000200154905092915050565b600081600001805490509050919050565b600080836001016000848152602001908152602001600020541415905092915050565b60007fd9b67a26000000000000000000000000000000000000000000000000000000007bffffffffffffffffffffffffffffffffffffffffffffffffffffffff1916827bffffffffffffffffffffffffffffffffffffffffffffffffffffffff1916148061382957507f0e89341c000000000000000000000000000000000000000000000000000000007bffffffffffffffffffffffffffffffffffffffffffffffffffffffff1916827bffffffffffffffffffffffffffffffffffffffffffffffffffffffff1916145b80613839575061383882613bab565b5b9050919050565b61384e868686868686613c25565b613856610fd4565b15613896576040517f08c379a000000000000000000000000000000000000000000000000000000000815260040161388d90615594565b60405180910390fd5b505050505050565b600080823b905060008111915050919050565b6060600060028360026138c491906159d1565b6138ce919061597b565b67ffffffffffffffff81111561390d577f4e487b7100000000000000000000000000000000000000000000000000000000600052604160045260246000fd5b6040519080825280601f01601f19166020018201604052801561393f5781602001600182028036833780820191505090505b5090507f30000000000000000000000000000000000000000000000000000000000000008160008151811061399d577f4e487b7100000000000000000000000000000000000000000000000000000000600052603260045260246000fd5b60200101907effffffffffffffffffffffffffffffffffffffffffffffffffffffffffffff1916908160001a9053507f780000000000000000000000000000000000000000000000000000000000000081600181518110613a27577f4e487b7100000000000000000000000000000000000000000000000000000000600052603260045260246000fd5b60200101907effffffffffffffffffffffffffffffffffffffffffffffffffffffffffffff1916908160001a90535060006001846002613a6791906159d1565b613a71919061597b565b90505b6001811115613b5d577f3031323334353637383961626364656600000000000000000000000000000000600f861660108110613ad9577f4e487b7100000000000000000000000000000000000000000000000000000000600052603260045260246000fd5b1a60f81b828281518110613b16577f4e487b7100000000000000000000000000000000000000000000000000000000600052603260045260246000fd5b60200101907effffffffffffffffffffffffffffffffffffffffffffffffffffffffffffff1916908160001a905350600485901c945080613b5690615b2c565b9050613a74565b5060008414613ba1576040517f08c379a0000000000000000000000000000000000000000000000000000000008152600401613b98906154f4565b60405180910390fd5b8091505092915050565b60007f5a05180f000000000000000000000000000000000000000000000000000000007bffffffffffffffffffffffffffffffffffffffffffffffffffffffff1916827bffffffffffffffffffffffffffffffffffffffffffffffffffffffff19161480613c1e5750613c1d82613c2d565b5b9050919050565b505050505050565b60007f7965db0b000000000000000000000000000000000000000000000000000000007bffffffffffffffffffffffffffffffffffffffffffffffffffffffff1916827bffffffffffffffffffffffffffffffffffffffffffffffffffffffff19161480613ca05750613c9f82613ca7565b5b9050919050565b60007f01ffc9a7000000000000000000000000000000000000000000000000000000007bffffffffffffffffffffffffffffffffffffffffffffffffffffffff1916827bffffffffffffffffffffffffffffffffffffffffffffffffffffffff1916149050919050565b604051806040016040528060608152602001606081525090565b6040518060600160405280600073ffffffffffffffffffffffffffffffffffffffff16815260200160608152602001606081525090565b828054613d6e90615b56565b90600052602060002090601f016020900481019282613d905760008555613dd7565b82601f10613da957805160ff1916838001178555613dd7565b82800160010185558215613dd7579182015b82811115613dd6578251825591602001919060010190613dbb565b5b509050613de49190613de8565b5090565b5b80821115613e01576000816000905550600101613de9565b5090565b6000613e18613e138461582d565b6157fc565b90508083825260208201905082856020860282011115613e3757600080fd5b60005b85811015613e675781613e4d8882613f1b565b845260208401935060208301925050600181019050613e3a565b5050509392505050565b6000613e84613e7f84615859565b6157fc565b90508083825260208201905082856020860282011115613ea357600080fd5b60005b85811015613ed35781613eb9888261404c565b845260208401935060208301925050600181019050613ea6565b5050509392505050565b6000613ef0613eeb84615885565b6157fc565b905082815260208101848484011115613f0857600080fd5b613f13848285615aea565b509392505050565b600081359050613f2a81615d5c565b92915050565b600082601f830112613f4157600080fd5b8135613f51848260208601613e05565b91505092915050565b600082601f830112613f6b57600080fd5b8135613f7b848260208601613e71565b91505092915050565b600081359050613f9381615d73565b92915050565b600081359050613fa881615d8a565b92915050565b600081359050613fbd81615da1565b92915050565b600081519050613fd281615da1565b92915050565b600082601f830112613fe957600080fd5b8135613ff9848260208601613edd565b91505092915050565b60008083601f84011261401457600080fd5b8235905067ffffffffffffffff81111561402d57600080fd5b60208301915083600182028301111561404557600080fd5b9250929050565b60008135905061405b81615db8565b92915050565b6000806040838503121561407457600080fd5b600061408285828601613f1b565b925050602061409385828601613f1b565b9150509250929050565b600080600080600060a086880312156140b557600080fd5b60006140c388828901613f1b565b95505060206140d488828901613f1b565b945050604086013567ffffffffffffffff8111156140f157600080fd5b6140fd88828901613f5a565b935050606086013567ffffffffffffffff81111561411a57600080fd5b61412688828901613f5a565b925050608086013567ffffffffffffffff81111561414357600080fd5b61414f88828901613fd8565b9150509295509295909350565b600080600080600060a0868803121561417457600080fd5b600061418288828901613f1b565b955050602061419388828901613f1b565b94505060406141a48882890161404c565b93505060606141b58882890161404c565b925050608086013567ffffffffffffffff8111156141d257600080fd5b6141de88828901613fd8565b9150509295509295909350565b60008060006060848603121561420057600080fd5b600061420e86828701613f1b565b935050602084013567ffffffffffffffff81111561422b57600080fd5b61423786828701613f5a565b925050604084013567ffffffffffffffff81111561425457600080fd5b61426086828701613f5a565b9150509250925092565b6000806000806080858703121561428057600080fd5b600061428e87828801613f1b565b945050602085013567ffffffffffffffff8111156142ab57600080fd5b6142b787828801613f5a565b935050604085013567ffffffffffffffff8111156142d457600080fd5b6142e087828801613f5a565b925050606085013567ffffffffffffffff8111156142fd57600080fd5b61430987828801613fd8565b91505092959194509250565b6000806040838503121561432857600080fd5b600061433685828601613f1b565b925050602061434785828601613f84565b9150509250929050565b6000806040838503121561436457600080fd5b600061437285828601613f1b565b92505060206143838582860161404c565b9150509250929050565b6000806000606084860312156143a257600080fd5b60006143b086828701613f1b565b93505060206143c18682870161404c565b92505060406143d28682870161404c565b9150509250925092565b600080600080608085870312156143f257600080fd5b600061440087828801613f1b565b94505060206144118782880161404c565b93505060406144228782880161404c565b925050606085013567ffffffffffffffff81111561443f57600080fd5b61444b87828801613fd8565b91505092959194509250565b6000806040838503121561446a57600080fd5b600083013567ffffffffffffffff81111561448457600080fd5b61449085828601613f30565b925050602083013567ffffffffffffffff8111156144ad57600080fd5b6144b985828601613f5a565b9150509250929050565b6000602082840312156144d557600080fd5b60006144e384828501613f99565b91505092915050565b600080604083850312156144ff57600080fd5b600061450d85828601613f99565b925050602061451e85828601613f1b565b9150509250929050565b6000806040838503121561453b57600080fd5b600061454985828601613f99565b925050602061455a8582860161404c565b9150509250929050565b60006020828403121561457657600080fd5b600061458484828501613fae565b91505092915050565b60006020828403121561459f57600080fd5b60006145ad84828501613fc3565b91505092915050565b6000806000806000606086880312156145ce57600080fd5b600086013567ffffffffffffffff8111156145e857600080fd5b6145f488828901614002565b9550955050602086013567ffffffffffffffff81111561461357600080fd5b61461f88828901614002565b9350935050604086013567ffffffffffffffff81111561463e57600080fd5b61464a88828901613fd8565b9150509295509295909350565b60006020828403121561466957600080fd5b60006146778482850161404c565b91505092915050565b6000806000806060858703121561469657600080fd5b60006146a48782880161404c565b945050602085013567ffffffffffffffff8111156146c157600080fd5b6146cd87828801614002565b9350935050604085013567ffffffffffffffff8111156146ec57600080fd5b6146f887828801613fd8565b91505092959194509250565b6000806040838503121561471757600080fd5b60006147258582860161404c565b92505060206147368582860161404c565b9150509250929050565b600061474c83836151d2565b905092915050565b600061476083836152b1565b60208301905092915050565b61477581615a5f565b82525050565b61478481615a5f565b82525050565b6000614795826158d5565b61479f818561591b565b9350836020820285016147b1856158b5565b8060005b858110156147ed57848403895281516147ce8582614740565b94506147d983615901565b925060208a019950506001810190506147b5565b50829750879550505050505092915050565b600061480a826158e0565b614814818561592c565b935061481f836158c5565b8060005b838110156148505781516148378882614754565b97506148428361590e565b925050600181019050614823565b5085935050505092915050565b61486681615a71565b82525050565b61487581615a7d565b82525050565b61488481615a87565b82525050565b6000614895826158eb565b61489f818561593d565b93506148af818560208601615af9565b6148b881615c88565b840191505092915050565b60006148ce826158f6565b6148d8818561594e565b93506148e8818560208601615af9565b6148f181615c88565b840191505092915050565b6000614907826158f6565b614911818561595f565b9350614921818560208601615af9565b61492a81615c88565b840191505092915050565b6000614940826158f6565b61494a8185615970565b935061495a818560208601615af9565b80840191505092915050565b600061497360348361595f565b91507f455243313135353a207472616e7366657220746f206e6f6e204552433131353560008301527f526563656976657220696d706c656d656e7465720000000000000000000000006020830152604082019050919050565b60006149d960208361595f565b91507f537472696e67733a20686578206c656e67746820696e73756666696369656e746000830152602082019050919050565b6000614a1960288361595f565b91507f455243313135353a204552433131353552656365697665722072656a6563746560008301527f6420746f6b656e730000000000000000000000000000000000000000000000006020830152604082019050919050565b6000614a7f60148361595f565b91507f5061757361626c653a206e6f74207061757365640000000000000000000000006000830152602082019050919050565b6000614abf602b8361595f565b91507f455243313135353a2062616c616e636520717565727920666f7220746865207a60008301527f65726f20616464726573730000000000000000000000000000000000000000006020830152604082019050919050565b6000614b2560248361595f565b91507f455243313135353a206275726e20616d6f756e7420657863656564732062616c60008301527f616e6365000000000000000000000000000000000000000000000000000000006020830152604082019050919050565b6000614b8b602c8361595f565b91507f455243313135355061757361626c653a20746f6b656e207472616e736665722060008301527f7768696c652070617573656400000000000000000000000000000000000000006020830152604082019050919050565b6000614bf160298361595f565b91507f455243313135353a2063616c6c6572206973206e6f74206f776e6572206e6f7260008301527f20617070726f76656400000000000000000000000000000000000000000000006020830152604082019050919050565b6000614c5760108361595f565b91507f5061757361626c653a20706175736564000000000000000000000000000000006000830152602082019050919050565b6000614c9760258361595f565b91507f455243313135353a207472616e7366657220746f20746865207a65726f20616460008301527f64726573730000000000000000000000000000000000000000000000000000006020830152604082019050919050565b6000614cfd60328361595f565b91507f455243313135353a207472616e736665722063616c6c6572206973206e6f742060008301527f6f776e6572206e6f7220617070726f76656400000000000000000000000000006020830152604082019050919050565b6000614d6360238361595f565b91507f455243313135353a206275726e2066726f6d20746865207a65726f206164647260008301527f65737300000000000000000000000000000000000000000000000000000000006020830152604082019050919050565b6000614dc960388361595f565b91507f455243313135355072657365744d696e7465725061757365723a206d7573742060008301527f68617665206d696e74657220726f6c6520746f206d696e7400000000000000006020830152604082019050919050565b6000614e2f602a8361595f565b91507f455243313135353a20696e73756666696369656e742062616c616e636520666f60008301527f72207472616e73666572000000000000000000000000000000000000000000006020830152604082019050919050565b6000614e95603b8361595f565b91507f455243313135355072657365744d696e7465725061757365723a206d7573742060008301527f686176652070617573657220726f6c6520746f20756e706175736500000000006020830152604082019050919050565b6000614efb60398361595f565b91507f455243313135355072657365744d696e7465725061757365723a206d7573742060008301527f686176652070617573657220726f6c6520746f207061757365000000000000006020830152604082019050919050565b6000614f61601783615970565b91507f416363657373436f6e74726f6c3a206163636f756e74200000000000000000006000830152601782019050919050565b6000614fa160298361595f565b91507f455243313135353a2073657474696e6720617070726f76616c2073746174757360008301527f20666f722073656c6600000000000000000000000000000000000000000000006020830152604082019050919050565b600061500760298361595f565b91507f455243313135353a206163636f756e747320616e6420696473206c656e67746860008301527f206d69736d6174636800000000000000000000000000000000000000000000006020830152604082019050919050565b600061506d60288361595f565b91507f455243313135353a2069647320616e6420616d6f756e7473206c656e6774682060008301527f6d69736d617463680000000000000000000000000000000000000000000000006020830152604082019050919050565b60006150d360218361595f565b91507f455243313135353a206d696e7420746f20746865207a65726f2061646472657360008301527f73000000000000000000000000000000000000000000000000000000000000006020830152604082019050919050565b6000615139601183615970565b91507f206973206d697373696e6720726f6c65200000000000000000000000000000006000830152601182019050919050565b6000615179602f8361595f565b91507f416363657373436f6e74726f6c3a2063616e206f6e6c792072656e6f756e636560008301527f20726f6c657320666f722073656c6600000000000000000000000000000000006020830152604082019050919050565b600060408301600083015184820360008601526151ef82826148c3565b9150506020830151848203602086015261520982826148c3565b9150508091505092915050565b6000604083016000830151848203600086015261523382826148c3565b9150506020830151848203602086015261524d82826148c3565b9150508091505092915050565b6000606083016000830151615272600086018261476c565b506020830151848203602086015261528a82826148c3565b915050604083015184820360408601526152a482826148c3565b9150508091505092915050565b6152ba81615ad3565b82525050565b6152c981615ad3565b82525050565b60006152da82614f54565b91506152e68285614935565b91506152f18261512c565b91506152fd8284614935565b91508190509392505050565b600060208201905061531e600083018461477b565b92915050565b600060a082019050615339600083018861477b565b615346602083018761477b565b818103604083015261535881866147ff565b9050818103606083015261536c81856147ff565b90508181036080830152615380818461488a565b90509695505050505050565b600060a0820190506153a1600083018861477b565b6153ae602083018761477b565b6153bb60408301866152c0565b6153c860608301856152c0565b81810360808301526153da818461488a565b90509695505050505050565b60006020820190508181036000830152615400818461478a565b905092915050565b6000602082019050818103600083015261542281846147ff565b905092915050565b6000604082019050818103600083015261544481856147ff565b9050818103602083015261545881846147ff565b90509392505050565b6000602082019050615476600083018461485d565b92915050565b6000602082019050615491600083018461486c565b92915050565b60006020820190506154ac600083018461487b565b92915050565b600060208201905081810360008301526154cc81846148fc565b905092915050565b600060208201905081810360008301526154ed81614966565b9050919050565b6000602082019050818103600083015261550d816149cc565b9050919050565b6000602082019050818103600083015261552d81614a0c565b9050919050565b6000602082019050818103600083015261554d81614a72565b9050919050565b6000602082019050818103600083015261556d81614ab2565b9050919050565b6000602082019050818103600083015261558d81614b18565b9050919050565b600060208201905081810360008301526155ad81614b7e565b9050919050565b600060208201905081810360008301526155cd81614be4565b9050919050565b600060208201905081810360008301526155ed81614c4a565b9050919050565b6000602082019050818103600083015261560d81614c8a565b9050919050565b6000602082019050818103600083015261562d81614cf0565b9050919050565b6000602082019050818103600083015261564d81614d56565b9050919050565b6000602082019050818103600083015261566d81614dbc565b9050919050565b6000602082019050818103600083015261568d81614e22565b9050919050565b600060208201905081810360008301526156ad81614e88565b9050919050565b600060208201905081810360008301526156cd81614eee565b9050919050565b600060208201905081810360008301526156ed81614f94565b9050919050565b6000602082019050818103600083015261570d81614ffa565b9050919050565b6000602082019050818103600083015261572d81615060565b9050919050565b6000602082019050818103600083015261574d816150c6565b9050919050565b6000602082019050818103600083015261576d8161516c565b9050919050565b6000602082019050818103600083015261578e8184615216565b905092915050565b600060208201905081810360008301526157b0818461525a565b905092915050565b60006020820190506157cd60008301846152c0565b92915050565b60006040820190506157e860008301856152c0565b6157f560208301846152c0565b9392505050565b6000604051905081810181811067ffffffffffffffff8211171561582357615822615c59565b5b8060405250919050565b600067ffffffffffffffff82111561584857615847615c59565b5b602082029050602081019050919050565b600067ffffffffffffffff82111561587457615873615c59565b5b602082029050602081019050919050565b600067ffffffffffffffff8211156158a05761589f615c59565b5b601f19601f8301169050602081019050919050565b6000819050602082019050919050565b6000819050602082019050919050565b600081519050919050565b600081519050919050565b600081519050919050565b600081519050919050565b6000602082019050919050565b6000602082019050919050565b600082825260208201905092915050565b600082825260208201905092915050565b600082825260208201905092915050565b600082825260208201905092915050565b600082825260208201905092915050565b600081905092915050565b600061598682615ad3565b915061599183615ad3565b9250827fffffffffffffffffffffffffffffffffffffffffffffffffffffffffffffffff038211156159c6576159c5615bfb565b5b828201905092915050565b60006159dc82615ad3565b91506159e783615ad3565b9250817fffffffffffffffffffffffffffffffffffffffffffffffffffffffffffffffff0483118215151615615a2057615a1f615bfb565b5b828202905092915050565b6000615a3682615ad3565b9150615a4183615ad3565b925082821015615a5457615a53615bfb565b5b828203905092915050565b6000615a6a82615ab3565b9050919050565b60008115159050919050565b6000819050919050565b60007fffffffff0000000000000000000000000000000000000000000000000000000082169050919050565b600073ffffffffffffffffffffffffffffffffffffffff82169050919050565b6000819050919050565b600060ff82169050919050565b82818337600083830152505050565b60005b83811015615b17578082015181840152602081019050615afc565b83811115615b26576000848401525b50505050565b6000615b3782615ad3565b91506000821415615b4b57615b4a615bfb565b5b600182039050919050565b60006002820490506001821680615b6e57607f821691505b60208210811415615b8257615b81615c2a565b5b50919050565b6000615b9382615ad3565b91507fffffffffffffffffffffffffffffffffffffffffffffffffffffffffffffffff821415615bc657615bc5615bfb565b5b600182019050919050565b6000615bdc82615add565b915060ff821415615bf057615bef615bfb565b5b600182019050919050565b7f4e487b7100000000000000000000000000000000000000000000000000000000600052601160045260246000fd5b7f4e487b7100000000000000000000000000000000000000000000000000000000600052602260045260246000fd5b7f4e487b7100000000000000000000000000000000000000000000000000000000600052604160045260246000fd5b6000601f19601f8301169050919050565b60008160e01c9050919050565b600060443d1015615cb657615d59565b60046000803e615cc7600051615c99565b6308c379a08114615cd85750615d59565b60405160043d036004823e80513d602482011167ffffffffffffffff82111715615d0457505050615d59565b808201805167ffffffffffffffff811115615d23575050505050615d59565b8060208301013d8501811115615d3e57505050505050615d59565b615d4782615c88565b60208401016040528296505050505050505b90565b615d6581615a5f565b8114615d7057600080fd5b50565b615d7c81615a71565b8114615d8757600080fd5b50565b615d9381615a7d565b8114615d9e57600080fd5b50565b615daa81615a87565b8114615db557600080fd5b50565b615dc181615ad3565b8114615dcc57600080fd5b5056fea264697066735822122098b2d6eedb1f8d92b8ec4d9994c218cc6945251b69385429398f9b61e12c53d364736f6c63430008000033",
  "immutableReferences": {},
  "source": "pragma solidity ^0.8.0;\r\n\r\nimport \"@openzeppelin/contracts/token/ERC1155/presets/ERC1155PresetMinterPauser.sol\";\r\nimport \"@openzeppelin/contracts/token/ERC1155/extensions/IERC1155MetadataURI.sol\";\r\nimport \"@openzeppelin/contracts/token/ERC1155/utils/ERC1155Holder.sol\";\r\n\r\n\r\ncontract NFCool is ERC1155PresetMinterPauser, ERC1155Holder {\r\n    using Strings for uint256;\r\n\r\n    struct TokenData {\r\n        string uri;\r\n        string name;\r\n    }\r\n\r\n    struct TokenUnitData {\r\n        address owner;\r\n        string nfcId;\r\n        string status;\r\n    }\r\n\r\n    string brandName;\r\n\r\n    uint8 tokensCount;\r\n    mapping (uint256 => uint256) private _tokenUnitsCount;\r\n\r\n    mapping(uint256 => TokenData) private _tokenData;\r\n\r\n    mapping(uint256 => mapping(uint256 => TokenUnitData)) private _tokenUnitData;\r\n\r\n    constructor(string memory _brandName) ERC1155PresetMinterPauser(\"\") {\r\n        brandName = _brandName;\r\n    }\r\n\r\n    function getAllTokens() public view virtual returns (TokenData[] memory) {\r\n        TokenData[] memory tokens = new TokenData[](tokensCount);\r\n\r\n        for (uint256 i = 0 ; i < tokensCount ; i++) {\r\n            tokens[i] = _tokenData[i];\r\n        }\r\n\r\n        return tokens;\r\n    }\r\n\r\n    function tokenData(uint256 tokenId) public view virtual returns (TokenData memory) {\r\n        return _tokenData[tokenId];\r\n    }\r\n\r\n    function tokenUnitData(uint256 tokenId, uint256 tokenUnitId) public view virtual returns (TokenUnitData memory) {\r\n        return _tokenUnitData[tokenId][tokenUnitId];\r\n    }\r\n\r\n    function _setTokenURI(uint256 tokenId, string memory _tokenURI) internal virtual {\r\n        _tokenData[tokenId].uri = _tokenURI;\r\n    }\r\n\r\n    function _exists(uint256 tokenId) private view returns (bool) {\r\n        return keccak256(bytes(_tokenData[tokenId].name)) != keccak256(bytes(\"\"));\r\n    }\r\n\r\n    function mintToken(string calldata tokenUri, string calldata tokenName, bytes memory data) external returns (uint256) {\r\n        require(hasRole(MINTER_ROLE, _msgSender()), \"ERC1155PresetMinterPauser: must have minter role to mint\");\r\n\r\n        _mint(address(this), tokensCount, 0, data);\r\n        _tokenData[tokensCount] = TokenData(tokenUri, tokenName);\r\n\r\n        tokensCount++;\r\n        return tokensCount;\r\n    }\r\n\r\n    function mintTokenUnit(uint256 tokenId, string calldata nfcId, bytes memory data) external returns (uint256) {\r\n        require(hasRole(MINTER_ROLE, _msgSender()), \"ERC1155PresetMinterPauser: must have minter role to mint\");\r\n\r\n        _mint(address(this), _tokenUnitsCount[tokenId], 1, data);\r\n        _tokenUnitData[tokenId][_tokenUnitsCount[tokenId]] = TokenUnitData(address(this), nfcId, \"minted\");\r\n\r\n        _tokenUnitsCount[tokenId]++;\r\n        return _tokenUnitsCount[tokenId];\r\n    }\r\n\r\n    function supportsInterface(bytes4 interfaceId) public view virtual override(ERC1155PresetMinterPauser, ERC1155Receiver) returns (bool) {\r\n        return super.supportsInterface(interfaceId);\r\n    }\r\n}\r\n",
  "sourcePath": "C:\\Users\\smlvi\\WebstormProjects\\nfcool-smart-contracts\\contracts\\NFCool.sol",
  "compiler": {
    "name": "solc",
    "version": "0.8.0+commit.c7dfd78e.Emscripten.clang"
  },
  "schemaVersion": "3.4.3",
  "updatedAt": "2021-11-03T09:04:57.628Z",
  "devdoc": {
    "kind": "dev",
    "methods": {
      "balanceOf(address,uint256)": {
        "details": "See {IERC1155-balanceOf}. Requirements: - `account` cannot be the zero address."
      },
      "balanceOfBatch(address[],uint256[])": {
        "details": "See {IERC1155-balanceOfBatch}. Requirements: - `accounts` and `ids` must have the same length."
      },
      "getRoleAdmin(bytes32)": {
        "details": "Returns the admin role that controls `role`. See {grantRole} and {revokeRole}. To change a role's admin, use {_setRoleAdmin}."
      },
      "getRoleMember(bytes32,uint256)": {
        "details": "Returns one of the accounts that have `role`. `index` must be a value between 0 and {getRoleMemberCount}, non-inclusive. Role bearers are not sorted in any particular way, and their ordering may change at any point. WARNING: When using {getRoleMember} and {getRoleMemberCount}, make sure you perform all queries on the same block. See the following https://forum.openzeppelin.com/t/iterating-over-elements-on-enumerableset-in-openzeppelin-contracts/2296[forum post] for more information."
      },
      "getRoleMemberCount(bytes32)": {
        "details": "Returns the number of accounts that have `role`. Can be used together with {getRoleMember} to enumerate all bearers of a role."
      },
      "grantRole(bytes32,address)": {
        "details": "Overload {grantRole} to track enumerable memberships"
      },
      "hasRole(bytes32,address)": {
        "details": "Returns `true` if `account` has been granted `role`."
      },
      "isApprovedForAll(address,address)": {
        "details": "See {IERC1155-isApprovedForAll}."
      },
      "mint(address,uint256,uint256,bytes)": {
        "details": "Creates `amount` new tokens for `to`, of token type `id`. See {ERC1155-_mint}. Requirements: - the caller must have the `MINTER_ROLE`."
      },
      "mintBatch(address,uint256[],uint256[],bytes)": {
        "details": "xref:ROOT:erc1155.adoc#batch-operations[Batched] variant of {mint}."
      },
      "pause()": {
        "details": "Pauses all token transfers. See {ERC1155Pausable} and {Pausable-_pause}. Requirements: - the caller must have the `PAUSER_ROLE`."
      },
      "paused()": {
        "details": "Returns true if the contract is paused, and false otherwise."
      },
      "renounceRole(bytes32,address)": {
        "details": "Overload {renounceRole} to track enumerable memberships"
      },
      "revokeRole(bytes32,address)": {
        "details": "Overload {revokeRole} to track enumerable memberships"
      },
      "safeBatchTransferFrom(address,address,uint256[],uint256[],bytes)": {
        "details": "See {IERC1155-safeBatchTransferFrom}."
      },
      "safeTransferFrom(address,address,uint256,uint256,bytes)": {
        "details": "See {IERC1155-safeTransferFrom}."
      },
      "setApprovalForAll(address,bool)": {
        "details": "See {IERC1155-setApprovalForAll}."
      },
      "unpause()": {
        "details": "Unpauses all token transfers. See {ERC1155Pausable} and {Pausable-_unpause}. Requirements: - the caller must have the `PAUSER_ROLE`."
      },
      "uri(uint256)": {
        "details": "See {IERC1155MetadataURI-uri}. This implementation returns the same URI for *all* token types. It relies on the token type ID substitution mechanism https://eips.ethereum.org/EIPS/eip-1155#metadata[defined in the EIP]. Clients calling this function must replace the `\\{id\\}` substring with the actual token type ID."
      }
    },
    "version": 1
  },
  "userdoc": {
    "kind": "user",
    "methods": {},
    "version": 1
  }
}